{
	"data": {
		"bytecode": {
			"linkReferences": {},
			"object": "60806040525f6004555f6005555f6006553480156200001c575f80fd5b505f8054336001600160a01b03199182168117835560028054600181810183557f405787fa12a823e0f2b7631cc41b3ba8828b3321ca811111fa75cd3aa3bb5ace90910180549094169092179092556003918255600780549182018155909252604080518082019091529081526208aa8960eb1b60208201527fa66cc928b5edb82af9bd49922954155ab7b0942694bea4ce44661d9a8736c68890910190620000c6908262000175565b506008805460ff1916905562000241565b634e487b7160e01b5f52604160045260245ffd5b600181811c908216806200010057607f821691505b6020821081036200011f57634e487b7160e01b5f52602260045260245ffd5b50919050565b601f8211156200017057805f5260205f20601f840160051c810160208510156200014c5750805b601f840160051c820191505b818110156200016d575f815560010162000158565b50505b505050565b81516001600160401b03811115620001915762000191620000d7565b620001a981620001a28454620000eb565b8462000125565b602080601f831160018114620001df575f8415620001c75750858301515b5f19600386901b1c1916600185901b17855562000239565b5f85815260208120601f198616915b828110156200020f57888601518255948401946001909101908401620001ee565b50858210156200022d57878501515f19600388901b60f8161c191681555b505060018460011b0185555b505050505050565b613a20806200024f5f395ff3fe60806040526004361061011b575f3560e01c80638a94d4161161009d578063a7fbd80d11610062578063a7fbd80d146102f5578063b0b22c2c14610314578063ce3b3e8814610333578063d2381c7314610352578063e6c1e1371461037e575f80fd5b80638a94d416146102625780638e27d719146102835780638f03144314610296578063a04ef145146102b5578063a4e360c8146102d6575f80fd5b80634e67d1d6116100e35780634e67d1d6146101c05780636edb0503146101df5780636f9fb98a1461021d5780637278a1fa1461022f57806380735a5a14610243575f80fd5b8063273cbaa01461011f5780633a51d246146101495780633ccfd60b146101765780634071e6d91461018c57806342cde4e8146101ab575b5f80fd5b34801561012a575f80fd5b506101336103a9565b6040516101409190612fd3565b60405180910390f35b348015610154575f80fd5b506101686101633660046130f3565b61047d565b604051908152602001610140565b348015610181575f80fd5b5061018a6104af565b005b348015610197575f80fd5b5061018a6101a6366004613141565b610942565b3480156101b6575f80fd5b5061016860035481565b3480156101cb575f80fd5b5061018a6101da366004613189565b610b75565b3480156101ea575f80fd5b5061020d6101f93660046131cb565b600b6020525f908152604090205460ff1681565b6040519015158152602001610140565b348015610228575f80fd5b5047610168565b34801561023a575f80fd5b50610168610fa6565b34801561024e575f80fd5b5061018a61025d366004613189565b611028565b34801561026d575f80fd5b50610276611465565b60405161014091906131ed565b61018a610291366004613189565b61153d565b3480156102a1575f80fd5b5061018a6102b0366004613141565b6118f9565b3480156102c0575f80fd5b506102c9611aaa565b604051610140919061327c565b3480156102e1575f80fd5b5061020d6102f036600461335d565b611cbf565b348015610300575f80fd5b5061018a61030f366004613189565b611e0f565b34801561031f575f80fd5b5061018a61032e366004613374565b612085565b34801561033e575f80fd5b5061018a61034d3660046133c3565b612343565b34801561035d575f80fd5b5061037161036c3660046131cb565b61273b565b6040516101409190613419565b348015610389575f80fd5b506101686103983660046131cb565b600d6020525f908152604090205481565b60606007805480602002602001604051908101604052809291908181526020015f905b82821015610474578382905f5260205f200180546103e99061342b565b80601f01602080910402602001604051908101604052809291908181526020018280546104159061342b565b80156104605780601f1061043757610100808354040283529160200191610460565b820191905f5260205f20905b81548152906001019060200180831161044357829003601f168201915b5050505050815260200190600101906103cc565b50505050905090565b335f90815260096020526040808220905161049990849061345d565b9081526020016040518091039020549050919050565b5f805b60025481101561050357336001600160a01b0316600282815481106104d9576104d9613478565b5f918252602090912001546001600160a01b0316036104fb5760019150610503565b6001016104b2565b5060018115151461052f5760405162461bcd60e51b81526004016105269061348c565b60405180910390fd5b60085460ff16156105525760405162461bcd60e51b8152600401610526906134e0565b6008805460ff19166001179055335f908152600b602052604090205460ff166105bd5760405162461bcd60e51b815260206004820152601c60248201527f546964616b20616461207769746864726177616c2072657175657374000000006044820152606401610526565b335f908152600a602052604090205460ff16156105ec5760405162461bcd60e51b815260040161052690613517565b335f908152600a60209081526040808320805460ff19166001179055600d825280832054600e909252822080548391906106259061342b565b80601f01602080910402602001604051908101604052809291908181526020018280546106519061342b565b801561069c5780601f106106735761010080835404028352916020019161069c565b820191905f5260205f20905b81548152906001019060200180831161067f57829003601f168201915b5050335f818152600d6020908152604080832083905580518083018252838152938352600e90915290209495506106d893509150839050613597565b50335f908152600b6020908152604091829020805460ff191690558151808301909252600382526208aa8960eb1b918101919091528151908201207f55514145c7ef4e1948f87e0eb4d28d3e34763f4d4cdf3bc449800860a9d0a00c0161078657604051339083905f81818185875af1925050503d805f8114610776576040519150601f19603f3d011682016040523d82523d5f602084013e61077b565b606091505b505080935050610869565b5f6001600160a01b0316600c826040516107a0919061345d565b908152604051908190036020019020600101546001600160a01b0316036107d95760405162461bcd60e51b815260040161052690613653565b600c816040516107e9919061345d565b9081526040519081900360200181206001015463a9059cbb60e01b8252336004830152602482018490526001600160a01b03169063a9059cbb906044016020604051808303815f875af1158015610842573d5f803e3d5ffd5b505050506040513d601f19601f820116820180604052508101906108669190613681565b92505b826108865760405162461bcd60e51b8152600401610526906136a0565b335f908152600960205260409081902090518391906108a690849061345d565b90815260200160405180910390205f8282546108c291906136e3565b90915550506005546040517f6a647eacc9e98792655e8dba08e3167440b93e02ef76e8e3330fa10a27b4ecbf91610901918491339187919042906136f6565b60405180910390a1335f908152600a60205260408120805460ff19169055600580549161092d83613735565b90915550506008805460ff1916905550505050565b5f805b60025481101561099657336001600160a01b03166002828154811061096c5761096c613478565b5f918252602090912001546001600160a01b03160361098e5760019150610996565b600101610945565b506001811515146109b95760405162461bcd60e51b81526004016105269061348c565b5f80805b600254811015610a1157866001600160a01b0316600282815481106109e4576109e4613478565b5f918252602090912001546001600160a01b031603610a095760019250809150610a11565b6001016109bd565b50600182151514610a645760405162461bcd60e51b815260206004820152601c60248201527f77616c6c6574206f776e657220746964616b20746572646574656374000000006044820152606401610526565b60028054610a74906001906136e3565b81548110610a8457610a84613478565b5f91825260209091200154600280546001600160a01b039092169183908110610aaf57610aaf613478565b905f5260205f20015f6101000a8154816001600160a01b0302191690836001600160a01b031602179055506002805480610aeb57610aeb61374d565b5f8281526020908190205f19908301810180546001600160a01b0319169055909101909155604080513381526001600160a01b0389169281019290925242908201527fd1f329271e4a98b0181a7d91618a0a5de6f42a1aaf4c1362493d829eaf405a8a9060600160405180910390a1610b63856127d2565b610b6d86856127f4565b505050505050565b5f805b600254811015610bc957336001600160a01b031660028281548110610b9f57610b9f613478565b5f918252602090912001546001600160a01b031603610bc15760019150610bc9565b600101610b78565b50600181151514610bec5760405162461bcd60e51b81526004016105269061348c565b5f805f5b600f54811015610c415784600f8281548110610c0e57610c0e613478565b905f5260205f2090600802016004015403610c2c5760019250610c41565b81610c3681613735565b925050600101610bf0565b5081610c5f5760405162461bcd60e51b815260040161052690613761565b610ce133600f8381548110610c7657610c76613478565b905f5260205f209060080201600701805480602002602001604051908101604052809291908181526020018280548015610cd757602002820191905f5260205f20905b81546001600160a01b03168152600190910190602001808311610cb9575b505050505061285e565b15610d545760405162461bcd60e51b815260206004820152603960248201527f746964616b20646170617420617070726f76652070616461207472616e73616b60448201527f7369207472616e73666572206b65647561206b616c696e7961000000000000006064820152608401610526565b336001600160a01b0316600f8281548110610d7157610d71613478565b5f9182526020909120600160089092020101546001600160a01b031603610def5760405162461bcd60e51b815260206004820152602c60248201527f746964616b20646170617420617070726f76652070616461207472616e73616360448201526b74696f6e207072696261646960a01b6064820152608401610526565b600f8181548110610e0257610e02613478565b5f9182526020808320600760089093020191909101805460018101825590835291200180546001600160a01b03191633179055600f805482908110610e4957610e49613478565b5f91825260208220600560089092020101805491610e6683613735565b91905055507fead8052a59bd99f1b0115f4da8e862ebc15be06d11ad168b737b8e6dae0886c88533600f8481548110610ea157610ea1613478565b905f5260205f2090600802016002015f9054906101000a90046001600160a01b0316600f8581548110610ed657610ed6613478565b905f5260205f20906008020160030154600f8681548110610ef957610ef9613478565b905f5260205f20906008020160040154600f8781548110610f1c57610f1c613478565b905f5260205f20906008020160050154600f8881548110610f3f57610f3f613478565b905f5260205f20906008020160060154604051610f6297969594939291906137a9565b60405180910390a1600354600f8281548110610f8057610f80613478565b905f5260205f2090600802016005015410610f9f57610f9f85826128b9565b5050505050565b5f80805b600254811015610ffb57336001600160a01b031660028281548110610fd157610fd1613478565b5f918252602090912001546001600160a01b031603610ff35760019150610ffb565b600101610faa565b5060018115151461101e5760405162461bcd60e51b81526004016105269061348c565b60035491505b5090565b5f805b60025481101561107c57336001600160a01b03166002828154811061105257611052613478565b5f918252602090912001546001600160a01b031603611074576001915061107c565b60010161102b565b5060018115151461109f5760405162461bcd60e51b81526004016105269061348c565b5f805f5b600f548110156110f45784600f82815481106110c1576110c1613478565b905f5260205f20906008020160040154036110df57600192506110f4565b816110e981613735565b9250506001016110a3565b50336001600160a01b0316600f828154811061111257611112613478565b5f9182526020909120600160089092020101546001600160a01b03161461114b5760405162461bcd60e51b815260040161052690613761565b816111985760405162461bcd60e51b815260206004820152601f60248201527f7472616e73666572207265717565737420746964616b207465727365646961006044820152606401610526565b600f81815481106111ab576111ab613478565b905f5260205f2090600802016003015460095f336001600160a01b03166001600160a01b031681526020019081526020015f20866040516111ec919061345d565b90815260200160405180910390205f82825461120891906137f5565b9091555050600f805461121d906001906136e3565b8154811061122d5761122d613478565b905f5260205f209060080201600f828154811061124c5761124c613478565b5f9182526020909120600890910201806112668382613808565b5060018281015490820180546001600160a01b039283166001600160a01b031991821617909155600280850154908401805491909316911617905560038083015490820155600480830154908201556005808301549082015560068083015490820155600780830180546112dd9284019190612e82565b509050507f88ac4e01306872c0a5f289baf13af804eedb981db2018261cf8afed94bd9e19b8533600f848154811061131757611317613478565b905f5260205f2090600802016002015f9054906101000a90046001600160a01b0316600f858154811061134c5761134c613478565b905f5260205f20906008020160030154600f868154811061136f5761136f613478565b905f5260205f20906008020160040154600f878154811061139257611392613478565b905f5260205f20906008020160050154600f88815481106113b5576113b5613478565b905f5260205f209060080201600601546040516113d897969594939291906137a9565b60405180910390a1600f8054806113f1576113f161374d565b5f828152602081205f199092019160088302019061140f8282612eca565b6001820180546001600160a01b031990811690915560028301805490911690555f6003830181905560048301819055600583018190556006830181905561145a906007840190612f04565b505090555050505050565b60605f805b6002548110156114bb57336001600160a01b03166002828154811061149157611491613478565b5f918252602090912001546001600160a01b0316036114b357600191506114bb565b60010161146a565b506001811515146114de5760405162461bcd60e51b81526004016105269061348c565b600280548060200260200160405190810160405280929190818152602001828054801561153257602002820191905f5260205f20905b81546001600160a01b03168152600190910190602001808311611514575b505050505091505090565b5f805b60025481101561159157336001600160a01b03166002828154811061156757611567613478565b5f918252602090912001546001600160a01b0316036115895760019150611591565b600101611540565b506001811515146115b45760405162461bcd60e51b81526004016105269061348c565b60085460ff16156115d75760405162461bcd60e51b8152600401610526906134e0565b6008805460ff19166001179055335f90815260096020526040808220905161160090869061345d565b908152602001604051809103902054101561165d5760405162461bcd60e51b815260206004820152601b60248201527f746964616b206461706174206465706f7369742076616c7565203000000000006044820152606401610526565b335f908152600a602052604090205460ff161561168c5760405162461bcd60e51b815260040161052690613517565b335f908152600a6020908152604091829020805460ff191660011790558151808301909252600382526208aa8960eb1b918101919091528351908401207f55514145c7ef4e1948f87e0eb4d28d3e34763f4d4cdf3bc449800860a9d0a00c0161173757335f908152600960205260409081902090516208aa8960eb1b815234919060030190815260200160405180910390205f82825461172c91906137f5565b909155506118809050565b5f6001600160a01b0316600c84604051611751919061345d565b908152604051908190036020019020600101546001600160a01b03160361178a5760405162461bcd60e51b815260040161052690613653565b5f600c8460405161179b919061345d565b908152604051908190036020018120600101546323b872dd60e01b8252336004830152306024830152604482018590526001600160a01b0316906323b872dd906064016020604051808303815f875af11580156117fa573d5f803e3d5ffd5b505050506040513d601f19601f8201168201806040525081019061181e9190613681565b90508061183d5760405162461bcd60e51b8152600401610526906136a0565b335f9081526009602052604090819020905184919061185d90879061345d565b90815260200160405180910390205f82825461187991906137f5565b9091555050505b7f41751252894a74bd975de630158c4e47bb25c36d9ce7ad90383d86d391d2be12833334600454426040516118b99594939291906136f6565b60405180910390a1335f908152600a60205260408120805460ff1916905560048054916118e583613735565b90915550506008805460ff19169055505050565b5f805b60025481101561194d57336001600160a01b03166002828154811061192357611923613478565b5f918252602090912001546001600160a01b031603611945576001915061194d565b6001016118fc565b506001811515146119705760405162461bcd60e51b81526004016105269061348c565b5f5b600254811015611a0257846001600160a01b03166002828154811061199957611999613478565b5f918252602090912001546001600160a01b0316036119fa5760405162461bcd60e51b815260206004820152601b60248201527f63616e6e6f7420616464206475706c6963617465206f776e65727300000000006044820152606401610526565b600101611972565b50600280546001810182555f919091527f405787fa12a823e0f2b7631cc41b3ba8828b3321ca811111fa75cd3aa3bb5ace0180546001600160a01b0319166001600160a01b03861690811790915560408051338152602081019290925242908201527f43abcff3409244ec1056224394af5f818e9a74866f0a11bfee2ad52f68ad6fb99060600160405180910390a1611a9a836127d2565b611aa48483612e46565b50505050565b60605f805b600254811015611b0057336001600160a01b031660028281548110611ad657611ad6613478565b5f918252602090912001546001600160a01b031603611af85760019150611b00565b600101611aaf565b50600181151514611b235760405162461bcd60e51b81526004016105269061348c565b600f805480602002602001604051908101604052809291908181526020015f905b82821015611cb5578382905f5260205f209060080201604051806101000160405290815f82018054611b759061342b565b80601f0160208091040260200160405190810160405280929190818152602001828054611ba19061342b565b8015611bec5780601f10611bc357610100808354040283529160200191611bec565b820191905f5260205f20905b815481529060010190602001808311611bcf57829003601f168201915b505050918352505060018201546001600160a01b0390811660208084019190915260028401549091166040808401919091526003840154606084015260048401546080840152600584015460a0840152600684015460c084015260078401805482518185028101850190935280835260e0909401939192909190830182828015611c9d57602002820191905f5260205f20905b81546001600160a01b03168152600190910190602001808311611c7f575b50505050508152505081526020019060010190611b44565b5050505091505090565b5f80805b600254811015611d1457336001600160a01b031660028281548110611cea57611cea613478565b5f918252602090912001546001600160a01b031603611d0c5760019150611d14565b600101611cc3565b50600181151514611d375760405162461bcd60e51b81526004016105269061348c565b5f600f8481548110611d4b57611d4b613478565b905f5260205f209060080201600701805480602002602001604051908101604052809291908181526020018280548015611dac57602002820191905f5260205f20905b81546001600160a01b03168152600190910190602001808311611d8e575b505050505090505f5b8151811015611e0357336001600160a01b0316828281518110611dda57611dda613478565b60200260200101516001600160a01b031603611dfb57600193505050611e09565b600101611db5565b505f9250505b50919050565b5f805b600254811015611e6357336001600160a01b031660028281548110611e3957611e39613478565b5f918252602090912001546001600160a01b031603611e5b5760019150611e63565b600101611e12565b50600181151514611e865760405162461bcd60e51b81526004016105269061348c565b5f8211611ed55760405162461bcd60e51b815260206004820152601d60248201527f416d6f756e74206d7573742062652067726561746572207468616e20300000006044820152606401610526565b335f90815260096020526040908190209051839190611ef590869061345d565b9081526020016040518091039020541015611f485760405162461bcd60e51b8152602060048201526013602482015272062616c616e636520746964616b2063756b757606c1b6044820152606401610526565b335f908152600b602052604090205460ff1615611fa75760405162461bcd60e51b815260206004820152601d60248201527f5769746864726177616c207265717565737420696e2070726f636573730000006044820152606401610526565b60408051808201909152600381526208aa8960eb1b6020918201528351908401207faaaebeba3810b1e6b70781f14b2d72c1cb89c0b2b320c43bb67ff79f562f5ff414612041575f6001600160a01b0316600c84604051612008919061345d565b908152604051908190036020019020600101546001600160a01b0316036120415760405162461bcd60e51b815260040161052690613653565b335f908152600d60209081526040808320859055600e90915290206120668482613597565b5050335f908152600b60205260409020805460ff191660011790555050565b5f805b6002548110156120d957336001600160a01b0316600282815481106120af576120af613478565b5f918252602090912001546001600160a01b0316036120d157600191506120d9565b600101612088565b506001811515146120fc5760405162461bcd60e51b81526004016105269061348c565b5f5b6007548110156121955783805190602001206007828154811061212357612123613478565b905f5260205f200160405161213891906138d3565b60405180910390200361218d5760405162461bcd60e51b815260206004820152601f60248201527f746964616b2064617061742061646420746f6b656e73206475706c696b6174006044820152606401610526565b6001016120fe565b508280519060200120826001600160a01b03166395d89b416040518163ffffffff1660e01b81526004015f60405180830381865afa1580156121d9573d5f803e3d5ffd5b505050506040513d5f823e601f3d908101601f191682016040526122009190810190613945565b80519060200120146122545760405162461bcd60e51b815260206004820152601f60248201527f746f6b656e20746964616b2074657273656469612070616461204552433230006044820152606401610526565b6040518060400160405280848152602001836001600160a01b0316815250600c84604051612282919061345d565b9081526040519081900360200190208151819061229f9082613597565b5060209190910151600191820180546001600160a01b0319166001600160a01b039092169190911790556007805491820181555f527fa66cc928b5edb82af9bd49922954155ab7b0942694bea4ce44661d9a8736c688016123008482613597565b507fe6887a88bb2477605d9b68e33f64a263587018a6a232f3b234ba1b78c96b84f23384844260405161233694939291906139b7565b60405180910390a1505050565b5f805b60025481101561239757336001600160a01b03166002828154811061236d5761236d613478565b5f918252602090912001546001600160a01b03160361238f5760019150612397565b600101612346565b506001811515146123ba5760405162461bcd60e51b81526004016105269061348c565b60408051808201909152600381526208aa8960eb1b60209182015284519085012084907faaaebeba3810b1e6b70781f14b2d72c1cb89c0b2b320c43bb67ff79f562f5ff414612456575f6001600160a01b0316600c8260405161241d919061345d565b908152604051908190036020019020600101546001600160a01b0316036124565760405162461bcd60e51b815260040161052690613653565b335f9081526009602052604090819020905184919061247690889061345d565b90815260200160405180910390205410156124e35760405162461bcd60e51b815260206004820152602760248201527f66756e647320746964616b2063756b757020756e74756b2063726561746520746044820152663930b739b332b960c91b6064820152608401610526565b5f5b60025481101561258b57846001600160a01b03166002828154811061250c5761250c613478565b5f918252602090912001546001600160a01b0316036125835760405162461bcd60e51b815260206004820152602d60248201527f746964616b2062697361207472616e736665722066756e64732070616461207760448201526c616c6c6574207072696261646960981b6064820152608401610526565b6001016124e5565b50335f908152600960205260409081902090518491906125ac90889061345d565b90815260200160405180910390205f8282546125c891906136e3565b909155505060408051610100810182528681523360208201526001600160a01b03861691810191909152606081810185905260065460808301525f60a083018190524260c084015260e08301829052600f80546001810182559152825191929160089091027f8d1108e10bcb7c27dddfc02ed9d693a074039d026cf4ea4240b40f7d581ac8020190819061265c9082613597565b506020828101516001830180546001600160a01b039283166001600160a01b0319918216179091556040850151600285018054919093169116179055606083015160038301556080830151600483015560a0830151600583015560c0830151600683015560e083015180516126d79260078501920190612f1f565b50506006805491505f6126e983613735565b91905055507f9cc5df05955d08828d561f92ad3f6b82c78a55cf7d3dedacffacc4f694faf9be863387876006545f4260405161272b97969594939291906137a9565b60405180910390a1505050505050565b600e6020525f9081526040902080546127539061342b565b80601f016020809104026020016040519081016040528092919081815260200182805461277f9061342b565b80156127ca5780601f106127a1576101008083540402835291602001916127ca565b820191905f5260205f20905b8154815290600101906020018083116127ad57829003601f168201915b505050505081565b600180546001600160a01b0319166001600160a01b0392909216919091179055565b60015460405163628bf69160e01b81526001600160a01b038481166004830152838116602483015290911690819063628bf691906044015b5f604051808303815f87803b158015612843575f80fd5b505af1158015612855573d5f803e3d5ffd5b50505050505050565b5f805b82518110156128ae57836001600160a01b031683828151811061288657612886613478565b60200260200101516001600160a01b0316036128a65760019150506128b3565b600101612861565b505f90505b92915050565b60085460ff16156128dc5760405162461bcd60e51b8152600401610526906134e0565b6008805460ff19166001179055335f908152600a602052604090205460ff16156129185760405162461bcd60e51b815260040161052690613517565b335f908152600a60205260408120805460ff19166001179055600f80548390811061294557612945613478565b905f5260205f2090600802016003015460095f600f858154811061296b5761296b613478565b5f9182526020808320600260089093020191909101546001600160a01b03168352820192909252604090810190912090516129a790869061345d565b90815260200160405180910390205f8282546129c391906137f5565b909155505060408051808201909152600381526208aa8960eb1b6020918201528351908401207f55514145c7ef4e1948f87e0eb4d28d3e34763f4d4cdf3bc449800860a9d0a00c01612ab257600f8281548110612a2257612a22613478565b5f918252602090912060026008909202010154600f80546001600160a01b039092169184908110612a5557612a55613478565b905f5260205f209060080201600301546040515f6040518083038185875af1925050503d805f8114612aa2576040519150601f19603f3d011682016040523d82523d5f602084013e612aa7565b606091505b505080915050612bb3565b600c83604051612ac2919061345d565b90815260405190819003602001902060010154600f80546001600160a01b039092169163a9059cbb919085908110612afc57612afc613478565b905f5260205f2090600802016002015f9054906101000a90046001600160a01b0316600f8581548110612b3157612b31613478565b5f9182526020909120600360089092020101546040516001600160e01b031960e085901b1681526001600160a01b03909216600483015260248201526044016020604051808303815f875af1158015612b8c573d5f803e3d5ffd5b505050506040513d601f19601f82011682018060405250810190612bb09190613681565b90505b80612bd05760405162461bcd60e51b8152600401610526906136a0565b7fdeea4c72b502b4bd7dce3c793e57c46bb32f3b2f66613d54a765e7585f520a2c8333600f8581548110612c0657612c06613478565b905f5260205f2090600802016002015f9054906101000a90046001600160a01b0316600f8681548110612c3b57612c3b613478565b905f5260205f20906008020160030154600f8781548110612c5e57612c5e613478565b905f5260205f20906008020160040154600f8881548110612c8157612c81613478565b905f5260205f20906008020160050154600f8981548110612ca457612ca4613478565b905f5260205f20906008020160060154604051612cc797969594939291906137a9565b60405180910390a1335f908152600a60205260409020805460ff19169055600f8054612cf5906001906136e3565b81548110612d0557612d05613478565b905f5260205f209060080201600f8381548110612d2457612d24613478565b5f918252602090912060089091020180612d3e8382613808565b5060018281015490820180546001600160a01b039283166001600160a01b03199182161790915560028085015490840180549190931691161790556003808301549082015560048083015490820155600580830154908201556006808301549082015560078083018054612db59284019190612e82565b50905050600f805480612dca57612dca61374d565b5f828152602081205f1990920191600883020190612de88282612eca565b6001820180546001600160a01b031990811690915560028301805490911690555f60038301819055600483018190556005830181905560068301819055612e33906007840190612f04565b5050905550506008805460ff1916905550565b60015460405163269ae8b160e01b81526001600160a01b038481166004830152838116602483015290911690819063269ae8b19060440161282c565b828054828255905f5260205f20908101928215612ebe575f5260205f209182015b82811115612ebe578254825591600101919060010190612ea3565b50611024929150612f72565b508054612ed69061342b565b5f825580601f10612ee5575050565b601f0160209004905f5260205f2090810190612f019190612f72565b50565b5080545f8255905f5260205f2090810190612f019190612f72565b828054828255905f5260205f20908101928215612ebe579160200282015b82811115612ebe57825182546001600160a01b0319166001600160a01b03909116178255602090920191600190910190612f3d565b5b80821115611024575f8155600101612f73565b5f5b83811015612fa0578181015183820152602001612f88565b50505f910152565b5f8151808452612fbf816020860160208601612f86565b601f01601f19169290920160200192915050565b5f60208083016020845280855180835260408601915060408160051b8701019250602087015f5b8281101561302857603f19888603018452613016858351612fa8565b94509285019290850190600101612ffa565b5092979650505050505050565b634e487b7160e01b5f52604160045260245ffd5b604051601f8201601f1916810167ffffffffffffffff8111828210171561307257613072613035565b604052919050565b5f67ffffffffffffffff82111561309357613093613035565b50601f01601f191660200190565b5f82601f8301126130b0575f80fd5b81356130c36130be8261307a565b613049565b8181528460208386010111156130d7575f80fd5b816020850160208301375f918101602001919091529392505050565b5f60208284031215613103575f80fd5b813567ffffffffffffffff811115613119575f80fd5b613125848285016130a1565b949350505050565b6001600160a01b0381168114612f01575f80fd5b5f805f60608486031215613153575f80fd5b833561315e8161312d565b9250602084013561316e8161312d565b9150604084013561317e8161312d565b809150509250925092565b5f806040838503121561319a575f80fd5b823567ffffffffffffffff8111156131b0575f80fd5b6131bc858286016130a1565b95602094909401359450505050565b5f602082840312156131db575f80fd5b81356131e68161312d565b9392505050565b602080825282518282018190525f9190848201906040850190845b8181101561322d5783516001600160a01b031683529284019291840191600101613208565b50909695505050505050565b5f815180845260208085019450602084015f5b838110156132715781516001600160a01b03168752958201959082019060010161324c565b509495945050505050565b5f60208083018184528085518083526040925060408601915060408160051b8701018488015f5b8381101561334f57603f19898403018552815161010081518186526132ca82870182612fa8565b838b01516001600160a01b0316878c01528984015190925090506132f8898701826001600160a01b03169052565b50606082810151908601526080808301519086015260a0808301519086015260c0808301519086015260e0918201518582039286019290925261333b8183613239565b9689019694505050908601906001016132a3565b509098975050505050505050565b5f6020828403121561336d575f80fd5b5035919050565b5f8060408385031215613385575f80fd5b823567ffffffffffffffff81111561339b575f80fd5b6133a7858286016130a1565b92505060208301356133b88161312d565b809150509250929050565b5f805f606084860312156133d5575f80fd5b833567ffffffffffffffff8111156133eb575f80fd5b6133f7868287016130a1565b93505060208401356134088161312d565b929592945050506040919091013590565b602081525f6131e66020830184612fa8565b600181811c9082168061343f57607f821691505b602082108103611e0957634e487b7160e01b5f52602260045260245ffd5b5f825161346e818460208701612f86565b9190910192915050565b634e487b7160e01b5f52603260045260245ffd5b60208082526034908201527f68616e79612077616c6c6574206f776e6572732079616e672062697361206d656040820152736d616e6767696c2066756e6374696f6e20696e6960601b606082015260800190565b60208082526018908201527f5265656e7472616e63792067756172643a206c6f636b65640000000000000000604082015260600190565b60208082526019908201527f70726f73657320736564616e67206265726c616e6773756e6700000000000000604082015260600190565b601f82111561359257805f5260205f20601f840160051c810160208510156135735750805b601f840160051c820191505b81811015610f9f575f815560010161357f565b505050565b815167ffffffffffffffff8111156135b1576135b1613035565b6135c5816135bf845461342b565b8461354e565b602080601f8311600181146135f8575f84156135e15750858301515b5f19600386901b1c1916600185901b178555610b6d565b5f85815260208120601f198616915b8281101561362657888601518255948401946001909101908401613607565b508582101561364357878501515f19600388901b60f8161c191681555b5050505050600190811b01905550565b602080825260149082015273746f6b656e20746964616b20746572736564696160601b604082015260600190565b5f60208284031215613691575f80fd5b815180151581146131e6575f80fd5b602080825260159082015274115490cc8c081d1c985b9cd9995c8819985a5b1959605a1b604082015260600190565b634e487b7160e01b5f52601160045260245ffd5b818103818111156128b3576128b36136cf565b60a081525f61370860a0830188612fa8565b6001600160a01b039690961660208301525060408101939093526060830191909152608090910152919050565b5f60018201613746576137466136cf565b5060010190565b634e487b7160e01b5f52603160045260245ffd5b60208082526028908201527f68616e7961207472616e736665722063726561746f722079616e6720646170616040820152671d0818d85b98d95b60c21b606082015260800190565b60e081525f6137bb60e083018a612fa8565b6001600160a01b0398891660208401529690971660408201526060810194909452608084019290925260a083015260c09091015292915050565b808201808211156128b3576128b36136cf565b818103613813575050565b61381d825461342b565b67ffffffffffffffff81111561383557613835613035565b613843816135bf845461342b565b5f601f821160018114613874575f831561385d5750848201545b5f19600385901b1c1916600184901b178455610f9f565b5f8581526020808220868352908220601f198616925b838110156138aa578286015482556001958601959091019060200161388a565b5085831015613643579301545f1960f8600387901b161c19169092555050600190811b01905550565b5f8083546138e08161342b565b600182811680156138f8576001811461390d57613939565b60ff1984168752821515830287019450613939565b875f526020805f205f5b858110156139305781548a820152908401908201613917565b50505082870194505b50929695505050505050565b5f60208284031215613955575f80fd5b815167ffffffffffffffff81111561396b575f80fd5b8201601f8101841361397b575f80fd5b80516139896130be8261307a565b81815285602083850101111561399d575f80fd5b6139ae826020830160208601612f86565b95945050505050565b5f60018060a01b038087168352608060208401526139d86080840187612fa8565b9416604083015250606001529291505056fea2646970667358221220cd64daf511d588bbcde446cd49332fddec200c9b3365fc7f7f26a1d464e4def064736f6c63430008180033",
			"opcodes": "PUSH1 0x80 PUSH1 0x40 MSTORE PUSH0 PUSH1 0x4 SSTORE PUSH0 PUSH1 0x5 SSTORE PUSH0 PUSH1 0x6 SSTORE CALLVALUE DUP1 ISZERO PUSH3 0x1C JUMPI PUSH0 DUP1 REVERT JUMPDEST POP PUSH0 DUP1 SLOAD CALLER PUSH1 0x1 PUSH1 0x1 PUSH1 0xA0 SHL SUB NOT SWAP2 DUP3 AND DUP2 OR DUP4 SSTORE PUSH1 0x2 DUP1 SLOAD PUSH1 0x1 DUP2 DUP2 ADD DUP4 SSTORE PUSH32 0x405787FA12A823E0F2B7631CC41B3BA8828B3321CA811111FA75CD3AA3BB5ACE SWAP1 SWAP2 ADD DUP1 SLOAD SWAP1 SWAP5 AND SWAP1 SWAP3 OR SWAP1 SWAP3 SSTORE PUSH1 0x3 SWAP2 DUP3 SSTORE PUSH1 0x7 DUP1 SLOAD SWAP2 DUP3 ADD DUP2 SSTORE SWAP1 SWAP3 MSTORE PUSH1 0x40 DUP1 MLOAD DUP1 DUP3 ADD SWAP1 SWAP2 MSTORE SWAP1 DUP2 MSTORE PUSH3 0x8AA89 PUSH1 0xEB SHL PUSH1 0x20 DUP3 ADD MSTORE PUSH32 0xA66CC928B5EDB82AF9BD49922954155AB7B0942694BEA4CE44661D9A8736C688 SWAP1 SWAP2 ADD SWAP1 PUSH3 0xC6 SWAP1 DUP3 PUSH3 0x175 JUMP JUMPDEST POP PUSH1 0x8 DUP1 SLOAD PUSH1 0xFF NOT AND SWAP1 SSTORE PUSH3 0x241 JUMP JUMPDEST PUSH4 0x4E487B71 PUSH1 0xE0 SHL PUSH0 MSTORE PUSH1 0x41 PUSH1 0x4 MSTORE PUSH1 0x24 PUSH0 REVERT JUMPDEST PUSH1 0x1 DUP2 DUP2 SHR SWAP1 DUP3 AND DUP1 PUSH3 0x100 JUMPI PUSH1 0x7F DUP3 AND SWAP2 POP JUMPDEST PUSH1 0x20 DUP3 LT DUP2 SUB PUSH3 0x11F JUMPI PUSH4 0x4E487B71 PUSH1 0xE0 SHL PUSH0 MSTORE PUSH1 0x22 PUSH1 0x4 MSTORE PUSH1 0x24 PUSH0 REVERT JUMPDEST POP SWAP2 SWAP1 POP JUMP JUMPDEST PUSH1 0x1F DUP3 GT ISZERO PUSH3 0x170 JUMPI DUP1 PUSH0 MSTORE PUSH1 0x20 PUSH0 KECCAK256 PUSH1 0x1F DUP5 ADD PUSH1 0x5 SHR DUP2 ADD PUSH1 0x20 DUP6 LT ISZERO PUSH3 0x14C JUMPI POP DUP1 JUMPDEST PUSH1 0x1F DUP5 ADD PUSH1 0x5 SHR DUP3 ADD SWAP2 POP JUMPDEST DUP2 DUP2 LT ISZERO PUSH3 0x16D JUMPI PUSH0 DUP2 SSTORE PUSH1 0x1 ADD PUSH3 0x158 JUMP JUMPDEST POP POP JUMPDEST POP POP POP JUMP JUMPDEST DUP2 MLOAD PUSH1 0x1 PUSH1 0x1 PUSH1 0x40 SHL SUB DUP2 GT ISZERO PUSH3 0x191 JUMPI PUSH3 0x191 PUSH3 0xD7 JUMP JUMPDEST PUSH3 0x1A9 DUP2 PUSH3 0x1A2 DUP5 SLOAD PUSH3 0xEB JUMP JUMPDEST DUP5 PUSH3 0x125 JUMP JUMPDEST PUSH1 0x20 DUP1 PUSH1 0x1F DUP4 GT PUSH1 0x1 DUP2 EQ PUSH3 0x1DF JUMPI PUSH0 DUP5 ISZERO PUSH3 0x1C7 JUMPI POP DUP6 DUP4 ADD MLOAD JUMPDEST PUSH0 NOT PUSH1 0x3 DUP7 SWAP1 SHL SHR NOT AND PUSH1 0x1 DUP6 SWAP1 SHL OR DUP6 SSTORE PUSH3 0x239 JUMP JUMPDEST PUSH0 DUP6 DUP2 MSTORE PUSH1 0x20 DUP2 KECCAK256 PUSH1 0x1F NOT DUP7 AND SWAP2 JUMPDEST DUP3 DUP2 LT ISZERO PUSH3 0x20F JUMPI DUP9 DUP7 ADD MLOAD DUP3 SSTORE SWAP5 DUP5 ADD SWAP5 PUSH1 0x1 SWAP1 SWAP2 ADD SWAP1 DUP5 ADD PUSH3 0x1EE JUMP JUMPDEST POP DUP6 DUP3 LT ISZERO PUSH3 0x22D JUMPI DUP8 DUP6 ADD MLOAD PUSH0 NOT PUSH1 0x3 DUP9 SWAP1 SHL PUSH1 0xF8 AND SHR NOT AND DUP2 SSTORE JUMPDEST POP POP PUSH1 0x1 DUP5 PUSH1 0x1 SHL ADD DUP6 SSTORE JUMPDEST POP POP POP POP POP POP JUMP JUMPDEST PUSH2 0x3A20 DUP1 PUSH3 0x24F PUSH0 CODECOPY PUSH0 RETURN INVALID PUSH1 0x80 PUSH1 0x40 MSTORE PUSH1 0x4 CALLDATASIZE LT PUSH2 0x11B JUMPI PUSH0 CALLDATALOAD PUSH1 0xE0 SHR DUP1 PUSH4 0x8A94D416 GT PUSH2 0x9D JUMPI DUP1 PUSH4 0xA7FBD80D GT PUSH2 0x62 JUMPI DUP1 PUSH4 0xA7FBD80D EQ PUSH2 0x2F5 JUMPI DUP1 PUSH4 0xB0B22C2C EQ PUSH2 0x314 JUMPI DUP1 PUSH4 0xCE3B3E88 EQ PUSH2 0x333 JUMPI DUP1 PUSH4 0xD2381C73 EQ PUSH2 0x352 JUMPI DUP1 PUSH4 0xE6C1E137 EQ PUSH2 0x37E JUMPI PUSH0 DUP1 REVERT JUMPDEST DUP1 PUSH4 0x8A94D416 EQ PUSH2 0x262 JUMPI DUP1 PUSH4 0x8E27D719 EQ PUSH2 0x283 JUMPI DUP1 PUSH4 0x8F031443 EQ PUSH2 0x296 JUMPI DUP1 PUSH4 0xA04EF145 EQ PUSH2 0x2B5 JUMPI DUP1 PUSH4 0xA4E360C8 EQ PUSH2 0x2D6 JUMPI PUSH0 DUP1 REVERT JUMPDEST DUP1 PUSH4 0x4E67D1D6 GT PUSH2 0xE3 JUMPI DUP1 PUSH4 0x4E67D1D6 EQ PUSH2 0x1C0 JUMPI DUP1 PUSH4 0x6EDB0503 EQ PUSH2 0x1DF JUMPI DUP1 PUSH4 0x6F9FB98A EQ PUSH2 0x21D JUMPI DUP1 PUSH4 0x7278A1FA EQ PUSH2 0x22F JUMPI DUP1 PUSH4 0x80735A5A EQ PUSH2 0x243 JUMPI PUSH0 DUP1 REVERT JUMPDEST DUP1 PUSH4 0x273CBAA0 EQ PUSH2 0x11F JUMPI DUP1 PUSH4 0x3A51D246 EQ PUSH2 0x149 JUMPI DUP1 PUSH4 0x3CCFD60B EQ PUSH2 0x176 JUMPI DUP1 PUSH4 0x4071E6D9 EQ PUSH2 0x18C JUMPI DUP1 PUSH4 0x42CDE4E8 EQ PUSH2 0x1AB JUMPI JUMPDEST PUSH0 DUP1 REVERT JUMPDEST CALLVALUE DUP1 ISZERO PUSH2 0x12A JUMPI PUSH0 DUP1 REVERT JUMPDEST POP PUSH2 0x133 PUSH2 0x3A9 JUMP JUMPDEST PUSH1 0x40 MLOAD PUSH2 0x140 SWAP2 SWAP1 PUSH2 0x2FD3 JUMP JUMPDEST PUSH1 0x40 MLOAD DUP1 SWAP2 SUB SWAP1 RETURN JUMPDEST CALLVALUE DUP1 ISZERO PUSH2 0x154 JUMPI PUSH0 DUP1 REVERT JUMPDEST POP PUSH2 0x168 PUSH2 0x163 CALLDATASIZE PUSH1 0x4 PUSH2 0x30F3 JUMP JUMPDEST PUSH2 0x47D JUMP JUMPDEST PUSH1 0x40 MLOAD SWAP1 DUP2 MSTORE PUSH1 0x20 ADD PUSH2 0x140 JUMP JUMPDEST CALLVALUE DUP1 ISZERO PUSH2 0x181 JUMPI PUSH0 DUP1 REVERT JUMPDEST POP PUSH2 0x18A PUSH2 0x4AF JUMP JUMPDEST STOP JUMPDEST CALLVALUE DUP1 ISZERO PUSH2 0x197 JUMPI PUSH0 DUP1 REVERT JUMPDEST POP PUSH2 0x18A PUSH2 0x1A6 CALLDATASIZE PUSH1 0x4 PUSH2 0x3141 JUMP JUMPDEST PUSH2 0x942 JUMP JUMPDEST CALLVALUE DUP1 ISZERO PUSH2 0x1B6 JUMPI PUSH0 DUP1 REVERT JUMPDEST POP PUSH2 0x168 PUSH1 0x3 SLOAD DUP2 JUMP JUMPDEST CALLVALUE DUP1 ISZERO PUSH2 0x1CB JUMPI PUSH0 DUP1 REVERT JUMPDEST POP PUSH2 0x18A PUSH2 0x1DA CALLDATASIZE PUSH1 0x4 PUSH2 0x3189 JUMP JUMPDEST PUSH2 0xB75 JUMP JUMPDEST CALLVALUE DUP1 ISZERO PUSH2 0x1EA JUMPI PUSH0 DUP1 REVERT JUMPDEST POP PUSH2 0x20D PUSH2 0x1F9 CALLDATASIZE PUSH1 0x4 PUSH2 0x31CB JUMP JUMPDEST PUSH1 0xB PUSH1 0x20 MSTORE PUSH0 SWAP1 DUP2 MSTORE PUSH1 0x40 SWAP1 KECCAK256 SLOAD PUSH1 0xFF AND DUP2 JUMP JUMPDEST PUSH1 0x40 MLOAD SWAP1 ISZERO ISZERO DUP2 MSTORE PUSH1 0x20 ADD PUSH2 0x140 JUMP JUMPDEST CALLVALUE DUP1 ISZERO PUSH2 0x228 JUMPI PUSH0 DUP1 REVERT JUMPDEST POP SELFBALANCE PUSH2 0x168 JUMP JUMPDEST CALLVALUE DUP1 ISZERO PUSH2 0x23A JUMPI PUSH0 DUP1 REVERT JUMPDEST POP PUSH2 0x168 PUSH2 0xFA6 JUMP JUMPDEST CALLVALUE DUP1 ISZERO PUSH2 0x24E JUMPI PUSH0 DUP1 REVERT JUMPDEST POP PUSH2 0x18A PUSH2 0x25D CALLDATASIZE PUSH1 0x4 PUSH2 0x3189 JUMP JUMPDEST PUSH2 0x1028 JUMP JUMPDEST CALLVALUE DUP1 ISZERO PUSH2 0x26D JUMPI PUSH0 DUP1 REVERT JUMPDEST POP PUSH2 0x276 PUSH2 0x1465 JUMP JUMPDEST PUSH1 0x40 MLOAD PUSH2 0x140 SWAP2 SWAP1 PUSH2 0x31ED JUMP JUMPDEST PUSH2 0x18A PUSH2 0x291 CALLDATASIZE PUSH1 0x4 PUSH2 0x3189 JUMP JUMPDEST PUSH2 0x153D JUMP JUMPDEST CALLVALUE DUP1 ISZERO PUSH2 0x2A1 JUMPI PUSH0 DUP1 REVERT JUMPDEST POP PUSH2 0x18A PUSH2 0x2B0 CALLDATASIZE PUSH1 0x4 PUSH2 0x3141 JUMP JUMPDEST PUSH2 0x18F9 JUMP JUMPDEST CALLVALUE DUP1 ISZERO PUSH2 0x2C0 JUMPI PUSH0 DUP1 REVERT JUMPDEST POP PUSH2 0x2C9 PUSH2 0x1AAA JUMP JUMPDEST PUSH1 0x40 MLOAD PUSH2 0x140 SWAP2 SWAP1 PUSH2 0x327C JUMP JUMPDEST CALLVALUE DUP1 ISZERO PUSH2 0x2E1 JUMPI PUSH0 DUP1 REVERT JUMPDEST POP PUSH2 0x20D PUSH2 0x2F0 CALLDATASIZE PUSH1 0x4 PUSH2 0x335D JUMP JUMPDEST PUSH2 0x1CBF JUMP JUMPDEST CALLVALUE DUP1 ISZERO PUSH2 0x300 JUMPI PUSH0 DUP1 REVERT JUMPDEST POP PUSH2 0x18A PUSH2 0x30F CALLDATASIZE PUSH1 0x4 PUSH2 0x3189 JUMP JUMPDEST PUSH2 0x1E0F JUMP JUMPDEST CALLVALUE DUP1 ISZERO PUSH2 0x31F JUMPI PUSH0 DUP1 REVERT JUMPDEST POP PUSH2 0x18A PUSH2 0x32E CALLDATASIZE PUSH1 0x4 PUSH2 0x3374 JUMP JUMPDEST PUSH2 0x2085 JUMP JUMPDEST CALLVALUE DUP1 ISZERO PUSH2 0x33E JUMPI PUSH0 DUP1 REVERT JUMPDEST POP PUSH2 0x18A PUSH2 0x34D CALLDATASIZE PUSH1 0x4 PUSH2 0x33C3 JUMP JUMPDEST PUSH2 0x2343 JUMP JUMPDEST CALLVALUE DUP1 ISZERO PUSH2 0x35D JUMPI PUSH0 DUP1 REVERT JUMPDEST POP PUSH2 0x371 PUSH2 0x36C CALLDATASIZE PUSH1 0x4 PUSH2 0x31CB JUMP JUMPDEST PUSH2 0x273B JUMP JUMPDEST PUSH1 0x40 MLOAD PUSH2 0x140 SWAP2 SWAP1 PUSH2 0x3419 JUMP JUMPDEST CALLVALUE DUP1 ISZERO PUSH2 0x389 JUMPI PUSH0 DUP1 REVERT JUMPDEST POP PUSH2 0x168 PUSH2 0x398 CALLDATASIZE PUSH1 0x4 PUSH2 0x31CB JUMP JUMPDEST PUSH1 0xD PUSH1 0x20 MSTORE PUSH0 SWAP1 DUP2 MSTORE PUSH1 0x40 SWAP1 KECCAK256 SLOAD DUP2 JUMP JUMPDEST PUSH1 0x60 PUSH1 0x7 DUP1 SLOAD DUP1 PUSH1 0x20 MUL PUSH1 0x20 ADD PUSH1 0x40 MLOAD SWAP1 DUP2 ADD PUSH1 0x40 MSTORE DUP1 SWAP3 SWAP2 SWAP1 DUP2 DUP2 MSTORE PUSH1 0x20 ADD PUSH0 SWAP1 JUMPDEST DUP3 DUP3 LT ISZERO PUSH2 0x474 JUMPI DUP4 DUP3 SWAP1 PUSH0 MSTORE PUSH1 0x20 PUSH0 KECCAK256 ADD DUP1 SLOAD PUSH2 0x3E9 SWAP1 PUSH2 0x342B JUMP JUMPDEST DUP1 PUSH1 0x1F ADD PUSH1 0x20 DUP1 SWAP2 DIV MUL PUSH1 0x20 ADD PUSH1 0x40 MLOAD SWAP1 DUP2 ADD PUSH1 0x40 MSTORE DUP1 SWAP3 SWAP2 SWAP1 DUP2 DUP2 MSTORE PUSH1 0x20 ADD DUP3 DUP1 SLOAD PUSH2 0x415 SWAP1 PUSH2 0x342B JUMP JUMPDEST DUP1 ISZERO PUSH2 0x460 JUMPI DUP1 PUSH1 0x1F LT PUSH2 0x437 JUMPI PUSH2 0x100 DUP1 DUP4 SLOAD DIV MUL DUP4 MSTORE SWAP2 PUSH1 0x20 ADD SWAP2 PUSH2 0x460 JUMP JUMPDEST DUP3 ADD SWAP2 SWAP1 PUSH0 MSTORE PUSH1 0x20 PUSH0 KECCAK256 SWAP1 JUMPDEST DUP2 SLOAD DUP2 MSTORE SWAP1 PUSH1 0x1 ADD SWAP1 PUSH1 0x20 ADD DUP1 DUP4 GT PUSH2 0x443 JUMPI DUP3 SWAP1 SUB PUSH1 0x1F AND DUP3 ADD SWAP2 JUMPDEST POP POP POP POP POP DUP2 MSTORE PUSH1 0x20 ADD SWAP1 PUSH1 0x1 ADD SWAP1 PUSH2 0x3CC JUMP JUMPDEST POP POP POP POP SWAP1 POP SWAP1 JUMP JUMPDEST CALLER PUSH0 SWAP1 DUP2 MSTORE PUSH1 0x9 PUSH1 0x20 MSTORE PUSH1 0x40 DUP1 DUP3 KECCAK256 SWAP1 MLOAD PUSH2 0x499 SWAP1 DUP5 SWAP1 PUSH2 0x345D JUMP JUMPDEST SWAP1 DUP2 MSTORE PUSH1 0x20 ADD PUSH1 0x40 MLOAD DUP1 SWAP2 SUB SWAP1 KECCAK256 SLOAD SWAP1 POP SWAP2 SWAP1 POP JUMP JUMPDEST PUSH0 DUP1 JUMPDEST PUSH1 0x2 SLOAD DUP2 LT ISZERO PUSH2 0x503 JUMPI CALLER PUSH1 0x1 PUSH1 0x1 PUSH1 0xA0 SHL SUB AND PUSH1 0x2 DUP3 DUP2 SLOAD DUP2 LT PUSH2 0x4D9 JUMPI PUSH2 0x4D9 PUSH2 0x3478 JUMP JUMPDEST PUSH0 SWAP2 DUP3 MSTORE PUSH1 0x20 SWAP1 SWAP2 KECCAK256 ADD SLOAD PUSH1 0x1 PUSH1 0x1 PUSH1 0xA0 SHL SUB AND SUB PUSH2 0x4FB JUMPI PUSH1 0x1 SWAP2 POP PUSH2 0x503 JUMP JUMPDEST PUSH1 0x1 ADD PUSH2 0x4B2 JUMP JUMPDEST POP PUSH1 0x1 DUP2 ISZERO ISZERO EQ PUSH2 0x52F JUMPI PUSH1 0x40 MLOAD PUSH3 0x461BCD PUSH1 0xE5 SHL DUP2 MSTORE PUSH1 0x4 ADD PUSH2 0x526 SWAP1 PUSH2 0x348C JUMP JUMPDEST PUSH1 0x40 MLOAD DUP1 SWAP2 SUB SWAP1 REVERT JUMPDEST PUSH1 0x8 SLOAD PUSH1 0xFF AND ISZERO PUSH2 0x552 JUMPI PUSH1 0x40 MLOAD PUSH3 0x461BCD PUSH1 0xE5 SHL DUP2 MSTORE PUSH1 0x4 ADD PUSH2 0x526 SWAP1 PUSH2 0x34E0 JUMP JUMPDEST PUSH1 0x8 DUP1 SLOAD PUSH1 0xFF NOT AND PUSH1 0x1 OR SWAP1 SSTORE CALLER PUSH0 SWAP1 DUP2 MSTORE PUSH1 0xB PUSH1 0x20 MSTORE PUSH1 0x40 SWAP1 KECCAK256 SLOAD PUSH1 0xFF AND PUSH2 0x5BD JUMPI PUSH1 0x40 MLOAD PUSH3 0x461BCD PUSH1 0xE5 SHL DUP2 MSTORE PUSH1 0x20 PUSH1 0x4 DUP3 ADD MSTORE PUSH1 0x1C PUSH1 0x24 DUP3 ADD MSTORE PUSH32 0x546964616B20616461207769746864726177616C207265717565737400000000 PUSH1 0x44 DUP3 ADD MSTORE PUSH1 0x64 ADD PUSH2 0x526 JUMP JUMPDEST CALLER PUSH0 SWAP1 DUP2 MSTORE PUSH1 0xA PUSH1 0x20 MSTORE PUSH1 0x40 SWAP1 KECCAK256 SLOAD PUSH1 0xFF AND ISZERO PUSH2 0x5EC JUMPI PUSH1 0x40 MLOAD PUSH3 0x461BCD PUSH1 0xE5 SHL DUP2 MSTORE PUSH1 0x4 ADD PUSH2 0x526 SWAP1 PUSH2 0x3517 JUMP JUMPDEST CALLER PUSH0 SWAP1 DUP2 MSTORE PUSH1 0xA PUSH1 0x20 SWAP1 DUP2 MSTORE PUSH1 0x40 DUP1 DUP4 KECCAK256 DUP1 SLOAD PUSH1 0xFF NOT AND PUSH1 0x1 OR SWAP1 SSTORE PUSH1 0xD DUP3 MSTORE DUP1 DUP4 KECCAK256 SLOAD PUSH1 0xE SWAP1 SWAP3 MSTORE DUP3 KECCAK256 DUP1 SLOAD DUP4 SWAP2 SWAP1 PUSH2 0x625 SWAP1 PUSH2 0x342B JUMP JUMPDEST DUP1 PUSH1 0x1F ADD PUSH1 0x20 DUP1 SWAP2 DIV MUL PUSH1 0x20 ADD PUSH1 0x40 MLOAD SWAP1 DUP2 ADD PUSH1 0x40 MSTORE DUP1 SWAP3 SWAP2 SWAP1 DUP2 DUP2 MSTORE PUSH1 0x20 ADD DUP3 DUP1 SLOAD PUSH2 0x651 SWAP1 PUSH2 0x342B JUMP JUMPDEST DUP1 ISZERO PUSH2 0x69C JUMPI DUP1 PUSH1 0x1F LT PUSH2 0x673 JUMPI PUSH2 0x100 DUP1 DUP4 SLOAD DIV MUL DUP4 MSTORE SWAP2 PUSH1 0x20 ADD SWAP2 PUSH2 0x69C JUMP JUMPDEST DUP3 ADD SWAP2 SWAP1 PUSH0 MSTORE PUSH1 0x20 PUSH0 KECCAK256 SWAP1 JUMPDEST DUP2 SLOAD DUP2 MSTORE SWAP1 PUSH1 0x1 ADD SWAP1 PUSH1 0x20 ADD DUP1 DUP4 GT PUSH2 0x67F JUMPI DUP3 SWAP1 SUB PUSH1 0x1F AND DUP3 ADD SWAP2 JUMPDEST POP POP CALLER PUSH0 DUP2 DUP2 MSTORE PUSH1 0xD PUSH1 0x20 SWAP1 DUP2 MSTORE PUSH1 0x40 DUP1 DUP4 KECCAK256 DUP4 SWAP1 SSTORE DUP1 MLOAD DUP1 DUP4 ADD DUP3 MSTORE DUP4 DUP2 MSTORE SWAP4 DUP4 MSTORE PUSH1 0xE SWAP1 SWAP2 MSTORE SWAP1 KECCAK256 SWAP5 SWAP6 POP PUSH2 0x6D8 SWAP4 POP SWAP2 POP DUP4 SWAP1 POP PUSH2 0x3597 JUMP JUMPDEST POP CALLER PUSH0 SWAP1 DUP2 MSTORE PUSH1 0xB PUSH1 0x20 SWAP1 DUP2 MSTORE PUSH1 0x40 SWAP2 DUP3 SWAP1 KECCAK256 DUP1 SLOAD PUSH1 0xFF NOT AND SWAP1 SSTORE DUP2 MLOAD DUP1 DUP4 ADD SWAP1 SWAP3 MSTORE PUSH1 0x3 DUP3 MSTORE PUSH3 0x8AA89 PUSH1 0xEB SHL SWAP2 DUP2 ADD SWAP2 SWAP1 SWAP2 MSTORE DUP2 MLOAD SWAP1 DUP3 ADD KECCAK256 PUSH32 0x55514145C7EF4E1948F87E0EB4D28D3E34763F4D4CDF3BC449800860A9D0A00C ADD PUSH2 0x786 JUMPI PUSH1 0x40 MLOAD CALLER SWAP1 DUP4 SWAP1 PUSH0 DUP2 DUP2 DUP2 DUP6 DUP8 GAS CALL SWAP3 POP POP POP RETURNDATASIZE DUP1 PUSH0 DUP2 EQ PUSH2 0x776 JUMPI PUSH1 0x40 MLOAD SWAP2 POP PUSH1 0x1F NOT PUSH1 0x3F RETURNDATASIZE ADD AND DUP3 ADD PUSH1 0x40 MSTORE RETURNDATASIZE DUP3 MSTORE RETURNDATASIZE PUSH0 PUSH1 0x20 DUP5 ADD RETURNDATACOPY PUSH2 0x77B JUMP JUMPDEST PUSH1 0x60 SWAP2 POP JUMPDEST POP POP DUP1 SWAP4 POP POP PUSH2 0x869 JUMP JUMPDEST PUSH0 PUSH1 0x1 PUSH1 0x1 PUSH1 0xA0 SHL SUB AND PUSH1 0xC DUP3 PUSH1 0x40 MLOAD PUSH2 0x7A0 SWAP2 SWAP1 PUSH2 0x345D JUMP JUMPDEST SWAP1 DUP2 MSTORE PUSH1 0x40 MLOAD SWAP1 DUP2 SWAP1 SUB PUSH1 0x20 ADD SWAP1 KECCAK256 PUSH1 0x1 ADD SLOAD PUSH1 0x1 PUSH1 0x1 PUSH1 0xA0 SHL SUB AND SUB PUSH2 0x7D9 JUMPI PUSH1 0x40 MLOAD PUSH3 0x461BCD PUSH1 0xE5 SHL DUP2 MSTORE PUSH1 0x4 ADD PUSH2 0x526 SWAP1 PUSH2 0x3653 JUMP JUMPDEST PUSH1 0xC DUP2 PUSH1 0x40 MLOAD PUSH2 0x7E9 SWAP2 SWAP1 PUSH2 0x345D JUMP JUMPDEST SWAP1 DUP2 MSTORE PUSH1 0x40 MLOAD SWAP1 DUP2 SWAP1 SUB PUSH1 0x20 ADD DUP2 KECCAK256 PUSH1 0x1 ADD SLOAD PUSH4 0xA9059CBB PUSH1 0xE0 SHL DUP3 MSTORE CALLER PUSH1 0x4 DUP4 ADD MSTORE PUSH1 0x24 DUP3 ADD DUP5 SWAP1 MSTORE PUSH1 0x1 PUSH1 0x1 PUSH1 0xA0 SHL SUB AND SWAP1 PUSH4 0xA9059CBB SWAP1 PUSH1 0x44 ADD PUSH1 0x20 PUSH1 0x40 MLOAD DUP1 DUP4 SUB DUP2 PUSH0 DUP8 GAS CALL ISZERO DUP1 ISZERO PUSH2 0x842 JUMPI RETURNDATASIZE PUSH0 DUP1 RETURNDATACOPY RETURNDATASIZE PUSH0 REVERT JUMPDEST POP POP POP POP PUSH1 0x40 MLOAD RETURNDATASIZE PUSH1 0x1F NOT PUSH1 0x1F DUP3 ADD AND DUP3 ADD DUP1 PUSH1 0x40 MSTORE POP DUP2 ADD SWAP1 PUSH2 0x866 SWAP2 SWAP1 PUSH2 0x3681 JUMP JUMPDEST SWAP3 POP JUMPDEST DUP3 PUSH2 0x886 JUMPI PUSH1 0x40 MLOAD PUSH3 0x461BCD PUSH1 0xE5 SHL DUP2 MSTORE PUSH1 0x4 ADD PUSH2 0x526 SWAP1 PUSH2 0x36A0 JUMP JUMPDEST CALLER PUSH0 SWAP1 DUP2 MSTORE PUSH1 0x9 PUSH1 0x20 MSTORE PUSH1 0x40 SWAP1 DUP2 SWAP1 KECCAK256 SWAP1 MLOAD DUP4 SWAP2 SWAP1 PUSH2 0x8A6 SWAP1 DUP5 SWAP1 PUSH2 0x345D JUMP JUMPDEST SWAP1 DUP2 MSTORE PUSH1 0x20 ADD PUSH1 0x40 MLOAD DUP1 SWAP2 SUB SWAP1 KECCAK256 PUSH0 DUP3 DUP3 SLOAD PUSH2 0x8C2 SWAP2 SWAP1 PUSH2 0x36E3 JUMP JUMPDEST SWAP1 SWAP2 SSTORE POP POP PUSH1 0x5 SLOAD PUSH1 0x40 MLOAD PUSH32 0x6A647EACC9E98792655E8DBA08E3167440B93E02EF76E8E3330FA10A27B4ECBF SWAP2 PUSH2 0x901 SWAP2 DUP5 SWAP2 CALLER SWAP2 DUP8 SWAP2 SWAP1 TIMESTAMP SWAP1 PUSH2 0x36F6 JUMP JUMPDEST PUSH1 0x40 MLOAD DUP1 SWAP2 SUB SWAP1 LOG1 CALLER PUSH0 SWAP1 DUP2 MSTORE PUSH1 0xA PUSH1 0x20 MSTORE PUSH1 0x40 DUP2 KECCAK256 DUP1 SLOAD PUSH1 0xFF NOT AND SWAP1 SSTORE PUSH1 0x5 DUP1 SLOAD SWAP2 PUSH2 0x92D DUP4 PUSH2 0x3735 JUMP JUMPDEST SWAP1 SWAP2 SSTORE POP POP PUSH1 0x8 DUP1 SLOAD PUSH1 0xFF NOT AND SWAP1 SSTORE POP POP POP POP JUMP JUMPDEST PUSH0 DUP1 JUMPDEST PUSH1 0x2 SLOAD DUP2 LT ISZERO PUSH2 0x996 JUMPI CALLER PUSH1 0x1 PUSH1 0x1 PUSH1 0xA0 SHL SUB AND PUSH1 0x2 DUP3 DUP2 SLOAD DUP2 LT PUSH2 0x96C JUMPI PUSH2 0x96C PUSH2 0x3478 JUMP JUMPDEST PUSH0 SWAP2 DUP3 MSTORE PUSH1 0x20 SWAP1 SWAP2 KECCAK256 ADD SLOAD PUSH1 0x1 PUSH1 0x1 PUSH1 0xA0 SHL SUB AND SUB PUSH2 0x98E JUMPI PUSH1 0x1 SWAP2 POP PUSH2 0x996 JUMP JUMPDEST PUSH1 0x1 ADD PUSH2 0x945 JUMP JUMPDEST POP PUSH1 0x1 DUP2 ISZERO ISZERO EQ PUSH2 0x9B9 JUMPI PUSH1 0x40 MLOAD PUSH3 0x461BCD PUSH1 0xE5 SHL DUP2 MSTORE PUSH1 0x4 ADD PUSH2 0x526 SWAP1 PUSH2 0x348C JUMP JUMPDEST PUSH0 DUP1 DUP1 JUMPDEST PUSH1 0x2 SLOAD DUP2 LT ISZERO PUSH2 0xA11 JUMPI DUP7 PUSH1 0x1 PUSH1 0x1 PUSH1 0xA0 SHL SUB AND PUSH1 0x2 DUP3 DUP2 SLOAD DUP2 LT PUSH2 0x9E4 JUMPI PUSH2 0x9E4 PUSH2 0x3478 JUMP JUMPDEST PUSH0 SWAP2 DUP3 MSTORE PUSH1 0x20 SWAP1 SWAP2 KECCAK256 ADD SLOAD PUSH1 0x1 PUSH1 0x1 PUSH1 0xA0 SHL SUB AND SUB PUSH2 0xA09 JUMPI PUSH1 0x1 SWAP3 POP DUP1 SWAP2 POP PUSH2 0xA11 JUMP JUMPDEST PUSH1 0x1 ADD PUSH2 0x9BD JUMP JUMPDEST POP PUSH1 0x1 DUP3 ISZERO ISZERO EQ PUSH2 0xA64 JUMPI PUSH1 0x40 MLOAD PUSH3 0x461BCD PUSH1 0xE5 SHL DUP2 MSTORE PUSH1 0x20 PUSH1 0x4 DUP3 ADD MSTORE PUSH1 0x1C PUSH1 0x24 DUP3 ADD MSTORE PUSH32 0x77616C6C6574206F776E657220746964616B2074657264657465637400000000 PUSH1 0x44 DUP3 ADD MSTORE PUSH1 0x64 ADD PUSH2 0x526 JUMP JUMPDEST PUSH1 0x2 DUP1 SLOAD PUSH2 0xA74 SWAP1 PUSH1 0x1 SWAP1 PUSH2 0x36E3 JUMP JUMPDEST DUP2 SLOAD DUP2 LT PUSH2 0xA84 JUMPI PUSH2 0xA84 PUSH2 0x3478 JUMP JUMPDEST PUSH0 SWAP2 DUP3 MSTORE PUSH1 0x20 SWAP1 SWAP2 KECCAK256 ADD SLOAD PUSH1 0x2 DUP1 SLOAD PUSH1 0x1 PUSH1 0x1 PUSH1 0xA0 SHL SUB SWAP1 SWAP3 AND SWAP2 DUP4 SWAP1 DUP2 LT PUSH2 0xAAF JUMPI PUSH2 0xAAF PUSH2 0x3478 JUMP JUMPDEST SWAP1 PUSH0 MSTORE PUSH1 0x20 PUSH0 KECCAK256 ADD PUSH0 PUSH2 0x100 EXP DUP2 SLOAD DUP2 PUSH1 0x1 PUSH1 0x1 PUSH1 0xA0 SHL SUB MUL NOT AND SWAP1 DUP4 PUSH1 0x1 PUSH1 0x1 PUSH1 0xA0 SHL SUB AND MUL OR SWAP1 SSTORE POP PUSH1 0x2 DUP1 SLOAD DUP1 PUSH2 0xAEB JUMPI PUSH2 0xAEB PUSH2 0x374D JUMP JUMPDEST PUSH0 DUP3 DUP2 MSTORE PUSH1 0x20 SWAP1 DUP2 SWAP1 KECCAK256 PUSH0 NOT SWAP1 DUP4 ADD DUP2 ADD DUP1 SLOAD PUSH1 0x1 PUSH1 0x1 PUSH1 0xA0 SHL SUB NOT AND SWAP1 SSTORE SWAP1 SWAP2 ADD SWAP1 SWAP2 SSTORE PUSH1 0x40 DUP1 MLOAD CALLER DUP2 MSTORE PUSH1 0x1 PUSH1 0x1 PUSH1 0xA0 SHL SUB DUP10 AND SWAP3 DUP2 ADD SWAP3 SWAP1 SWAP3 MSTORE TIMESTAMP SWAP1 DUP3 ADD MSTORE PUSH32 0xD1F329271E4A98B0181A7D91618A0A5DE6F42A1AAF4C1362493D829EAF405A8A SWAP1 PUSH1 0x60 ADD PUSH1 0x40 MLOAD DUP1 SWAP2 SUB SWAP1 LOG1 PUSH2 0xB63 DUP6 PUSH2 0x27D2 JUMP JUMPDEST PUSH2 0xB6D DUP7 DUP6 PUSH2 0x27F4 JUMP JUMPDEST POP POP POP POP POP POP JUMP JUMPDEST PUSH0 DUP1 JUMPDEST PUSH1 0x2 SLOAD DUP2 LT ISZERO PUSH2 0xBC9 JUMPI CALLER PUSH1 0x1 PUSH1 0x1 PUSH1 0xA0 SHL SUB AND PUSH1 0x2 DUP3 DUP2 SLOAD DUP2 LT PUSH2 0xB9F JUMPI PUSH2 0xB9F PUSH2 0x3478 JUMP JUMPDEST PUSH0 SWAP2 DUP3 MSTORE PUSH1 0x20 SWAP1 SWAP2 KECCAK256 ADD SLOAD PUSH1 0x1 PUSH1 0x1 PUSH1 0xA0 SHL SUB AND SUB PUSH2 0xBC1 JUMPI PUSH1 0x1 SWAP2 POP PUSH2 0xBC9 JUMP JUMPDEST PUSH1 0x1 ADD PUSH2 0xB78 JUMP JUMPDEST POP PUSH1 0x1 DUP2 ISZERO ISZERO EQ PUSH2 0xBEC JUMPI PUSH1 0x40 MLOAD PUSH3 0x461BCD PUSH1 0xE5 SHL DUP2 MSTORE PUSH1 0x4 ADD PUSH2 0x526 SWAP1 PUSH2 0x348C JUMP JUMPDEST PUSH0 DUP1 PUSH0 JUMPDEST PUSH1 0xF SLOAD DUP2 LT ISZERO PUSH2 0xC41 JUMPI DUP5 PUSH1 0xF DUP3 DUP2 SLOAD DUP2 LT PUSH2 0xC0E JUMPI PUSH2 0xC0E PUSH2 0x3478 JUMP JUMPDEST SWAP1 PUSH0 MSTORE PUSH1 0x20 PUSH0 KECCAK256 SWAP1 PUSH1 0x8 MUL ADD PUSH1 0x4 ADD SLOAD SUB PUSH2 0xC2C JUMPI PUSH1 0x1 SWAP3 POP PUSH2 0xC41 JUMP JUMPDEST DUP2 PUSH2 0xC36 DUP2 PUSH2 0x3735 JUMP JUMPDEST SWAP3 POP POP PUSH1 0x1 ADD PUSH2 0xBF0 JUMP JUMPDEST POP DUP2 PUSH2 0xC5F JUMPI PUSH1 0x40 MLOAD PUSH3 0x461BCD PUSH1 0xE5 SHL DUP2 MSTORE PUSH1 0x4 ADD PUSH2 0x526 SWAP1 PUSH2 0x3761 JUMP JUMPDEST PUSH2 0xCE1 CALLER PUSH1 0xF DUP4 DUP2 SLOAD DUP2 LT PUSH2 0xC76 JUMPI PUSH2 0xC76 PUSH2 0x3478 JUMP JUMPDEST SWAP1 PUSH0 MSTORE PUSH1 0x20 PUSH0 KECCAK256 SWAP1 PUSH1 0x8 MUL ADD PUSH1 0x7 ADD DUP1 SLOAD DUP1 PUSH1 0x20 MUL PUSH1 0x20 ADD PUSH1 0x40 MLOAD SWAP1 DUP2 ADD PUSH1 0x40 MSTORE DUP1 SWAP3 SWAP2 SWAP1 DUP2 DUP2 MSTORE PUSH1 0x20 ADD DUP3 DUP1 SLOAD DUP1 ISZERO PUSH2 0xCD7 JUMPI PUSH1 0x20 MUL DUP3 ADD SWAP2 SWAP1 PUSH0 MSTORE PUSH1 0x20 PUSH0 KECCAK256 SWAP1 JUMPDEST DUP2 SLOAD PUSH1 0x1 PUSH1 0x1 PUSH1 0xA0 SHL SUB AND DUP2 MSTORE PUSH1 0x1 SWAP1 SWAP2 ADD SWAP1 PUSH1 0x20 ADD DUP1 DUP4 GT PUSH2 0xCB9 JUMPI JUMPDEST POP POP POP POP POP PUSH2 0x285E JUMP JUMPDEST ISZERO PUSH2 0xD54 JUMPI PUSH1 0x40 MLOAD PUSH3 0x461BCD PUSH1 0xE5 SHL DUP2 MSTORE PUSH1 0x20 PUSH1 0x4 DUP3 ADD MSTORE PUSH1 0x39 PUSH1 0x24 DUP3 ADD MSTORE PUSH32 0x746964616B20646170617420617070726F76652070616461207472616E73616B PUSH1 0x44 DUP3 ADD MSTORE PUSH32 0x7369207472616E73666572206B65647561206B616C696E796100000000000000 PUSH1 0x64 DUP3 ADD MSTORE PUSH1 0x84 ADD PUSH2 0x526 JUMP JUMPDEST CALLER PUSH1 0x1 PUSH1 0x1 PUSH1 0xA0 SHL SUB AND PUSH1 0xF DUP3 DUP2 SLOAD DUP2 LT PUSH2 0xD71 JUMPI PUSH2 0xD71 PUSH2 0x3478 JUMP JUMPDEST PUSH0 SWAP2 DUP3 MSTORE PUSH1 0x20 SWAP1 SWAP2 KECCAK256 PUSH1 0x1 PUSH1 0x8 SWAP1 SWAP3 MUL ADD ADD SLOAD PUSH1 0x1 PUSH1 0x1 PUSH1 0xA0 SHL SUB AND SUB PUSH2 0xDEF JUMPI PUSH1 0x40 MLOAD PUSH3 0x461BCD PUSH1 0xE5 SHL DUP2 MSTORE PUSH1 0x20 PUSH1 0x4 DUP3 ADD MSTORE PUSH1 0x2C PUSH1 0x24 DUP3 ADD MSTORE PUSH32 0x746964616B20646170617420617070726F76652070616461207472616E736163 PUSH1 0x44 DUP3 ADD MSTORE PUSH12 0x74696F6E2070726962616469 PUSH1 0xA0 SHL PUSH1 0x64 DUP3 ADD MSTORE PUSH1 0x84 ADD PUSH2 0x526 JUMP JUMPDEST PUSH1 0xF DUP2 DUP2 SLOAD DUP2 LT PUSH2 0xE02 JUMPI PUSH2 0xE02 PUSH2 0x3478 JUMP JUMPDEST PUSH0 SWAP2 DUP3 MSTORE PUSH1 0x20 DUP1 DUP4 KECCAK256 PUSH1 0x7 PUSH1 0x8 SWAP1 SWAP4 MUL ADD SWAP2 SWAP1 SWAP2 ADD DUP1 SLOAD PUSH1 0x1 DUP2 ADD DUP3 SSTORE SWAP1 DUP4 MSTORE SWAP2 KECCAK256 ADD DUP1 SLOAD PUSH1 0x1 PUSH1 0x1 PUSH1 0xA0 SHL SUB NOT AND CALLER OR SWAP1 SSTORE PUSH1 0xF DUP1 SLOAD DUP3 SWAP1 DUP2 LT PUSH2 0xE49 JUMPI PUSH2 0xE49 PUSH2 0x3478 JUMP JUMPDEST PUSH0 SWAP2 DUP3 MSTORE PUSH1 0x20 DUP3 KECCAK256 PUSH1 0x5 PUSH1 0x8 SWAP1 SWAP3 MUL ADD ADD DUP1 SLOAD SWAP2 PUSH2 0xE66 DUP4 PUSH2 0x3735 JUMP JUMPDEST SWAP2 SWAP1 POP SSTORE POP PUSH32 0xEAD8052A59BD99F1B0115F4DA8E862EBC15BE06D11AD168B737B8E6DAE0886C8 DUP6 CALLER PUSH1 0xF DUP5 DUP2 SLOAD DUP2 LT PUSH2 0xEA1 JUMPI PUSH2 0xEA1 PUSH2 0x3478 JUMP JUMPDEST SWAP1 PUSH0 MSTORE PUSH1 0x20 PUSH0 KECCAK256 SWAP1 PUSH1 0x8 MUL ADD PUSH1 0x2 ADD PUSH0 SWAP1 SLOAD SWAP1 PUSH2 0x100 EXP SWAP1 DIV PUSH1 0x1 PUSH1 0x1 PUSH1 0xA0 SHL SUB AND PUSH1 0xF DUP6 DUP2 SLOAD DUP2 LT PUSH2 0xED6 JUMPI PUSH2 0xED6 PUSH2 0x3478 JUMP JUMPDEST SWAP1 PUSH0 MSTORE PUSH1 0x20 PUSH0 KECCAK256 SWAP1 PUSH1 0x8 MUL ADD PUSH1 0x3 ADD SLOAD PUSH1 0xF DUP7 DUP2 SLOAD DUP2 LT PUSH2 0xEF9 JUMPI PUSH2 0xEF9 PUSH2 0x3478 JUMP JUMPDEST SWAP1 PUSH0 MSTORE PUSH1 0x20 PUSH0 KECCAK256 SWAP1 PUSH1 0x8 MUL ADD PUSH1 0x4 ADD SLOAD PUSH1 0xF DUP8 DUP2 SLOAD DUP2 LT PUSH2 0xF1C JUMPI PUSH2 0xF1C PUSH2 0x3478 JUMP JUMPDEST SWAP1 PUSH0 MSTORE PUSH1 0x20 PUSH0 KECCAK256 SWAP1 PUSH1 0x8 MUL ADD PUSH1 0x5 ADD SLOAD PUSH1 0xF DUP9 DUP2 SLOAD DUP2 LT PUSH2 0xF3F JUMPI PUSH2 0xF3F PUSH2 0x3478 JUMP JUMPDEST SWAP1 PUSH0 MSTORE PUSH1 0x20 PUSH0 KECCAK256 SWAP1 PUSH1 0x8 MUL ADD PUSH1 0x6 ADD SLOAD PUSH1 0x40 MLOAD PUSH2 0xF62 SWAP8 SWAP7 SWAP6 SWAP5 SWAP4 SWAP3 SWAP2 SWAP1 PUSH2 0x37A9 JUMP JUMPDEST PUSH1 0x40 MLOAD DUP1 SWAP2 SUB SWAP1 LOG1 PUSH1 0x3 SLOAD PUSH1 0xF DUP3 DUP2 SLOAD DUP2 LT PUSH2 0xF80 JUMPI PUSH2 0xF80 PUSH2 0x3478 JUMP JUMPDEST SWAP1 PUSH0 MSTORE PUSH1 0x20 PUSH0 KECCAK256 SWAP1 PUSH1 0x8 MUL ADD PUSH1 0x5 ADD SLOAD LT PUSH2 0xF9F JUMPI PUSH2 0xF9F DUP6 DUP3 PUSH2 0x28B9 JUMP JUMPDEST POP POP POP POP POP JUMP JUMPDEST PUSH0 DUP1 DUP1 JUMPDEST PUSH1 0x2 SLOAD DUP2 LT ISZERO PUSH2 0xFFB JUMPI CALLER PUSH1 0x1 PUSH1 0x1 PUSH1 0xA0 SHL SUB AND PUSH1 0x2 DUP3 DUP2 SLOAD DUP2 LT PUSH2 0xFD1 JUMPI PUSH2 0xFD1 PUSH2 0x3478 JUMP JUMPDEST PUSH0 SWAP2 DUP3 MSTORE PUSH1 0x20 SWAP1 SWAP2 KECCAK256 ADD SLOAD PUSH1 0x1 PUSH1 0x1 PUSH1 0xA0 SHL SUB AND SUB PUSH2 0xFF3 JUMPI PUSH1 0x1 SWAP2 POP PUSH2 0xFFB JUMP JUMPDEST PUSH1 0x1 ADD PUSH2 0xFAA JUMP JUMPDEST POP PUSH1 0x1 DUP2 ISZERO ISZERO EQ PUSH2 0x101E JUMPI PUSH1 0x40 MLOAD PUSH3 0x461BCD PUSH1 0xE5 SHL DUP2 MSTORE PUSH1 0x4 ADD PUSH2 0x526 SWAP1 PUSH2 0x348C JUMP JUMPDEST PUSH1 0x3 SLOAD SWAP2 POP JUMPDEST POP SWAP1 JUMP JUMPDEST PUSH0 DUP1 JUMPDEST PUSH1 0x2 SLOAD DUP2 LT ISZERO PUSH2 0x107C JUMPI CALLER PUSH1 0x1 PUSH1 0x1 PUSH1 0xA0 SHL SUB AND PUSH1 0x2 DUP3 DUP2 SLOAD DUP2 LT PUSH2 0x1052 JUMPI PUSH2 0x1052 PUSH2 0x3478 JUMP JUMPDEST PUSH0 SWAP2 DUP3 MSTORE PUSH1 0x20 SWAP1 SWAP2 KECCAK256 ADD SLOAD PUSH1 0x1 PUSH1 0x1 PUSH1 0xA0 SHL SUB AND SUB PUSH2 0x1074 JUMPI PUSH1 0x1 SWAP2 POP PUSH2 0x107C JUMP JUMPDEST PUSH1 0x1 ADD PUSH2 0x102B JUMP JUMPDEST POP PUSH1 0x1 DUP2 ISZERO ISZERO EQ PUSH2 0x109F JUMPI PUSH1 0x40 MLOAD PUSH3 0x461BCD PUSH1 0xE5 SHL DUP2 MSTORE PUSH1 0x4 ADD PUSH2 0x526 SWAP1 PUSH2 0x348C JUMP JUMPDEST PUSH0 DUP1 PUSH0 JUMPDEST PUSH1 0xF SLOAD DUP2 LT ISZERO PUSH2 0x10F4 JUMPI DUP5 PUSH1 0xF DUP3 DUP2 SLOAD DUP2 LT PUSH2 0x10C1 JUMPI PUSH2 0x10C1 PUSH2 0x3478 JUMP JUMPDEST SWAP1 PUSH0 MSTORE PUSH1 0x20 PUSH0 KECCAK256 SWAP1 PUSH1 0x8 MUL ADD PUSH1 0x4 ADD SLOAD SUB PUSH2 0x10DF JUMPI PUSH1 0x1 SWAP3 POP PUSH2 0x10F4 JUMP JUMPDEST DUP2 PUSH2 0x10E9 DUP2 PUSH2 0x3735 JUMP JUMPDEST SWAP3 POP POP PUSH1 0x1 ADD PUSH2 0x10A3 JUMP JUMPDEST POP CALLER PUSH1 0x1 PUSH1 0x1 PUSH1 0xA0 SHL SUB AND PUSH1 0xF DUP3 DUP2 SLOAD DUP2 LT PUSH2 0x1112 JUMPI PUSH2 0x1112 PUSH2 0x3478 JUMP JUMPDEST PUSH0 SWAP2 DUP3 MSTORE PUSH1 0x20 SWAP1 SWAP2 KECCAK256 PUSH1 0x1 PUSH1 0x8 SWAP1 SWAP3 MUL ADD ADD SLOAD PUSH1 0x1 PUSH1 0x1 PUSH1 0xA0 SHL SUB AND EQ PUSH2 0x114B JUMPI PUSH1 0x40 MLOAD PUSH3 0x461BCD PUSH1 0xE5 SHL DUP2 MSTORE PUSH1 0x4 ADD PUSH2 0x526 SWAP1 PUSH2 0x3761 JUMP JUMPDEST DUP2 PUSH2 0x1198 JUMPI PUSH1 0x40 MLOAD PUSH3 0x461BCD PUSH1 0xE5 SHL DUP2 MSTORE PUSH1 0x20 PUSH1 0x4 DUP3 ADD MSTORE PUSH1 0x1F PUSH1 0x24 DUP3 ADD MSTORE PUSH32 0x7472616E73666572207265717565737420746964616B20746572736564696100 PUSH1 0x44 DUP3 ADD MSTORE PUSH1 0x64 ADD PUSH2 0x526 JUMP JUMPDEST PUSH1 0xF DUP2 DUP2 SLOAD DUP2 LT PUSH2 0x11AB JUMPI PUSH2 0x11AB PUSH2 0x3478 JUMP JUMPDEST SWAP1 PUSH0 MSTORE PUSH1 0x20 PUSH0 KECCAK256 SWAP1 PUSH1 0x8 MUL ADD PUSH1 0x3 ADD SLOAD PUSH1 0x9 PUSH0 CALLER PUSH1 0x1 PUSH1 0x1 PUSH1 0xA0 SHL SUB AND PUSH1 0x1 PUSH1 0x1 PUSH1 0xA0 SHL SUB AND DUP2 MSTORE PUSH1 0x20 ADD SWAP1 DUP2 MSTORE PUSH1 0x20 ADD PUSH0 KECCAK256 DUP7 PUSH1 0x40 MLOAD PUSH2 0x11EC SWAP2 SWAP1 PUSH2 0x345D JUMP JUMPDEST SWAP1 DUP2 MSTORE PUSH1 0x20 ADD PUSH1 0x40 MLOAD DUP1 SWAP2 SUB SWAP1 KECCAK256 PUSH0 DUP3 DUP3 SLOAD PUSH2 0x1208 SWAP2 SWAP1 PUSH2 0x37F5 JUMP JUMPDEST SWAP1 SWAP2 SSTORE POP POP PUSH1 0xF DUP1 SLOAD PUSH2 0x121D SWAP1 PUSH1 0x1 SWAP1 PUSH2 0x36E3 JUMP JUMPDEST DUP2 SLOAD DUP2 LT PUSH2 0x122D JUMPI PUSH2 0x122D PUSH2 0x3478 JUMP JUMPDEST SWAP1 PUSH0 MSTORE PUSH1 0x20 PUSH0 KECCAK256 SWAP1 PUSH1 0x8 MUL ADD PUSH1 0xF DUP3 DUP2 SLOAD DUP2 LT PUSH2 0x124C JUMPI PUSH2 0x124C PUSH2 0x3478 JUMP JUMPDEST PUSH0 SWAP2 DUP3 MSTORE PUSH1 0x20 SWAP1 SWAP2 KECCAK256 PUSH1 0x8 SWAP1 SWAP2 MUL ADD DUP1 PUSH2 0x1266 DUP4 DUP3 PUSH2 0x3808 JUMP JUMPDEST POP PUSH1 0x1 DUP3 DUP2 ADD SLOAD SWAP1 DUP3 ADD DUP1 SLOAD PUSH1 0x1 PUSH1 0x1 PUSH1 0xA0 SHL SUB SWAP3 DUP4 AND PUSH1 0x1 PUSH1 0x1 PUSH1 0xA0 SHL SUB NOT SWAP2 DUP3 AND OR SWAP1 SWAP2 SSTORE PUSH1 0x2 DUP1 DUP6 ADD SLOAD SWAP1 DUP5 ADD DUP1 SLOAD SWAP2 SWAP1 SWAP4 AND SWAP2 AND OR SWAP1 SSTORE PUSH1 0x3 DUP1 DUP4 ADD SLOAD SWAP1 DUP3 ADD SSTORE PUSH1 0x4 DUP1 DUP4 ADD SLOAD SWAP1 DUP3 ADD SSTORE PUSH1 0x5 DUP1 DUP4 ADD SLOAD SWAP1 DUP3 ADD SSTORE PUSH1 0x6 DUP1 DUP4 ADD SLOAD SWAP1 DUP3 ADD SSTORE PUSH1 0x7 DUP1 DUP4 ADD DUP1 SLOAD PUSH2 0x12DD SWAP3 DUP5 ADD SWAP2 SWAP1 PUSH2 0x2E82 JUMP JUMPDEST POP SWAP1 POP POP PUSH32 0x88AC4E01306872C0A5F289BAF13AF804EEDB981DB2018261CF8AFED94BD9E19B DUP6 CALLER PUSH1 0xF DUP5 DUP2 SLOAD DUP2 LT PUSH2 0x1317 JUMPI PUSH2 0x1317 PUSH2 0x3478 JUMP JUMPDEST SWAP1 PUSH0 MSTORE PUSH1 0x20 PUSH0 KECCAK256 SWAP1 PUSH1 0x8 MUL ADD PUSH1 0x2 ADD PUSH0 SWAP1 SLOAD SWAP1 PUSH2 0x100 EXP SWAP1 DIV PUSH1 0x1 PUSH1 0x1 PUSH1 0xA0 SHL SUB AND PUSH1 0xF DUP6 DUP2 SLOAD DUP2 LT PUSH2 0x134C JUMPI PUSH2 0x134C PUSH2 0x3478 JUMP JUMPDEST SWAP1 PUSH0 MSTORE PUSH1 0x20 PUSH0 KECCAK256 SWAP1 PUSH1 0x8 MUL ADD PUSH1 0x3 ADD SLOAD PUSH1 0xF DUP7 DUP2 SLOAD DUP2 LT PUSH2 0x136F JUMPI PUSH2 0x136F PUSH2 0x3478 JUMP JUMPDEST SWAP1 PUSH0 MSTORE PUSH1 0x20 PUSH0 KECCAK256 SWAP1 PUSH1 0x8 MUL ADD PUSH1 0x4 ADD SLOAD PUSH1 0xF DUP8 DUP2 SLOAD DUP2 LT PUSH2 0x1392 JUMPI PUSH2 0x1392 PUSH2 0x3478 JUMP JUMPDEST SWAP1 PUSH0 MSTORE PUSH1 0x20 PUSH0 KECCAK256 SWAP1 PUSH1 0x8 MUL ADD PUSH1 0x5 ADD SLOAD PUSH1 0xF DUP9 DUP2 SLOAD DUP2 LT PUSH2 0x13B5 JUMPI PUSH2 0x13B5 PUSH2 0x3478 JUMP JUMPDEST SWAP1 PUSH0 MSTORE PUSH1 0x20 PUSH0 KECCAK256 SWAP1 PUSH1 0x8 MUL ADD PUSH1 0x6 ADD SLOAD PUSH1 0x40 MLOAD PUSH2 0x13D8 SWAP8 SWAP7 SWAP6 SWAP5 SWAP4 SWAP3 SWAP2 SWAP1 PUSH2 0x37A9 JUMP JUMPDEST PUSH1 0x40 MLOAD DUP1 SWAP2 SUB SWAP1 LOG1 PUSH1 0xF DUP1 SLOAD DUP1 PUSH2 0x13F1 JUMPI PUSH2 0x13F1 PUSH2 0x374D JUMP JUMPDEST PUSH0 DUP3 DUP2 MSTORE PUSH1 0x20 DUP2 KECCAK256 PUSH0 NOT SWAP1 SWAP3 ADD SWAP2 PUSH1 0x8 DUP4 MUL ADD SWAP1 PUSH2 0x140F DUP3 DUP3 PUSH2 0x2ECA JUMP JUMPDEST PUSH1 0x1 DUP3 ADD DUP1 SLOAD PUSH1 0x1 PUSH1 0x1 PUSH1 0xA0 SHL SUB NOT SWAP1 DUP2 AND SWAP1 SWAP2 SSTORE PUSH1 0x2 DUP4 ADD DUP1 SLOAD SWAP1 SWAP2 AND SWAP1 SSTORE PUSH0 PUSH1 0x3 DUP4 ADD DUP2 SWAP1 SSTORE PUSH1 0x4 DUP4 ADD DUP2 SWAP1 SSTORE PUSH1 0x5 DUP4 ADD DUP2 SWAP1 SSTORE PUSH1 0x6 DUP4 ADD DUP2 SWAP1 SSTORE PUSH2 0x145A SWAP1 PUSH1 0x7 DUP5 ADD SWAP1 PUSH2 0x2F04 JUMP JUMPDEST POP POP SWAP1 SSTORE POP POP POP POP POP JUMP JUMPDEST PUSH1 0x60 PUSH0 DUP1 JUMPDEST PUSH1 0x2 SLOAD DUP2 LT ISZERO PUSH2 0x14BB JUMPI CALLER PUSH1 0x1 PUSH1 0x1 PUSH1 0xA0 SHL SUB AND PUSH1 0x2 DUP3 DUP2 SLOAD DUP2 LT PUSH2 0x1491 JUMPI PUSH2 0x1491 PUSH2 0x3478 JUMP JUMPDEST PUSH0 SWAP2 DUP3 MSTORE PUSH1 0x20 SWAP1 SWAP2 KECCAK256 ADD SLOAD PUSH1 0x1 PUSH1 0x1 PUSH1 0xA0 SHL SUB AND SUB PUSH2 0x14B3 JUMPI PUSH1 0x1 SWAP2 POP PUSH2 0x14BB JUMP JUMPDEST PUSH1 0x1 ADD PUSH2 0x146A JUMP JUMPDEST POP PUSH1 0x1 DUP2 ISZERO ISZERO EQ PUSH2 0x14DE JUMPI PUSH1 0x40 MLOAD PUSH3 0x461BCD PUSH1 0xE5 SHL DUP2 MSTORE PUSH1 0x4 ADD PUSH2 0x526 SWAP1 PUSH2 0x348C JUMP JUMPDEST PUSH1 0x2 DUP1 SLOAD DUP1 PUSH1 0x20 MUL PUSH1 0x20 ADD PUSH1 0x40 MLOAD SWAP1 DUP2 ADD PUSH1 0x40 MSTORE DUP1 SWAP3 SWAP2 SWAP1 DUP2 DUP2 MSTORE PUSH1 0x20 ADD DUP3 DUP1 SLOAD DUP1 ISZERO PUSH2 0x1532 JUMPI PUSH1 0x20 MUL DUP3 ADD SWAP2 SWAP1 PUSH0 MSTORE PUSH1 0x20 PUSH0 KECCAK256 SWAP1 JUMPDEST DUP2 SLOAD PUSH1 0x1 PUSH1 0x1 PUSH1 0xA0 SHL SUB AND DUP2 MSTORE PUSH1 0x1 SWAP1 SWAP2 ADD SWAP1 PUSH1 0x20 ADD DUP1 DUP4 GT PUSH2 0x1514 JUMPI JUMPDEST POP POP POP POP POP SWAP2 POP POP SWAP1 JUMP JUMPDEST PUSH0 DUP1 JUMPDEST PUSH1 0x2 SLOAD DUP2 LT ISZERO PUSH2 0x1591 JUMPI CALLER PUSH1 0x1 PUSH1 0x1 PUSH1 0xA0 SHL SUB AND PUSH1 0x2 DUP3 DUP2 SLOAD DUP2 LT PUSH2 0x1567 JUMPI PUSH2 0x1567 PUSH2 0x3478 JUMP JUMPDEST PUSH0 SWAP2 DUP3 MSTORE PUSH1 0x20 SWAP1 SWAP2 KECCAK256 ADD SLOAD PUSH1 0x1 PUSH1 0x1 PUSH1 0xA0 SHL SUB AND SUB PUSH2 0x1589 JUMPI PUSH1 0x1 SWAP2 POP PUSH2 0x1591 JUMP JUMPDEST PUSH1 0x1 ADD PUSH2 0x1540 JUMP JUMPDEST POP PUSH1 0x1 DUP2 ISZERO ISZERO EQ PUSH2 0x15B4 JUMPI PUSH1 0x40 MLOAD PUSH3 0x461BCD PUSH1 0xE5 SHL DUP2 MSTORE PUSH1 0x4 ADD PUSH2 0x526 SWAP1 PUSH2 0x348C JUMP JUMPDEST PUSH1 0x8 SLOAD PUSH1 0xFF AND ISZERO PUSH2 0x15D7 JUMPI PUSH1 0x40 MLOAD PUSH3 0x461BCD PUSH1 0xE5 SHL DUP2 MSTORE PUSH1 0x4 ADD PUSH2 0x526 SWAP1 PUSH2 0x34E0 JUMP JUMPDEST PUSH1 0x8 DUP1 SLOAD PUSH1 0xFF NOT AND PUSH1 0x1 OR SWAP1 SSTORE CALLER PUSH0 SWAP1 DUP2 MSTORE PUSH1 0x9 PUSH1 0x20 MSTORE PUSH1 0x40 DUP1 DUP3 KECCAK256 SWAP1 MLOAD PUSH2 0x1600 SWAP1 DUP7 SWAP1 PUSH2 0x345D JUMP JUMPDEST SWAP1 DUP2 MSTORE PUSH1 0x20 ADD PUSH1 0x40 MLOAD DUP1 SWAP2 SUB SWAP1 KECCAK256 SLOAD LT ISZERO PUSH2 0x165D JUMPI PUSH1 0x40 MLOAD PUSH3 0x461BCD PUSH1 0xE5 SHL DUP2 MSTORE PUSH1 0x20 PUSH1 0x4 DUP3 ADD MSTORE PUSH1 0x1B PUSH1 0x24 DUP3 ADD MSTORE PUSH32 0x746964616B206461706174206465706F7369742076616C756520300000000000 PUSH1 0x44 DUP3 ADD MSTORE PUSH1 0x64 ADD PUSH2 0x526 JUMP JUMPDEST CALLER PUSH0 SWAP1 DUP2 MSTORE PUSH1 0xA PUSH1 0x20 MSTORE PUSH1 0x40 SWAP1 KECCAK256 SLOAD PUSH1 0xFF AND ISZERO PUSH2 0x168C JUMPI PUSH1 0x40 MLOAD PUSH3 0x461BCD PUSH1 0xE5 SHL DUP2 MSTORE PUSH1 0x4 ADD PUSH2 0x526 SWAP1 PUSH2 0x3517 JUMP JUMPDEST CALLER PUSH0 SWAP1 DUP2 MSTORE PUSH1 0xA PUSH1 0x20 SWAP1 DUP2 MSTORE PUSH1 0x40 SWAP2 DUP3 SWAP1 KECCAK256 DUP1 SLOAD PUSH1 0xFF NOT AND PUSH1 0x1 OR SWAP1 SSTORE DUP2 MLOAD DUP1 DUP4 ADD SWAP1 SWAP3 MSTORE PUSH1 0x3 DUP3 MSTORE PUSH3 0x8AA89 PUSH1 0xEB SHL SWAP2 DUP2 ADD SWAP2 SWAP1 SWAP2 MSTORE DUP4 MLOAD SWAP1 DUP5 ADD KECCAK256 PUSH32 0x55514145C7EF4E1948F87E0EB4D28D3E34763F4D4CDF3BC449800860A9D0A00C ADD PUSH2 0x1737 JUMPI CALLER PUSH0 SWAP1 DUP2 MSTORE PUSH1 0x9 PUSH1 0x20 MSTORE PUSH1 0x40 SWAP1 DUP2 SWAP1 KECCAK256 SWAP1 MLOAD PUSH3 0x8AA89 PUSH1 0xEB SHL DUP2 MSTORE CALLVALUE SWAP2 SWAP1 PUSH1 0x3 ADD SWAP1 DUP2 MSTORE PUSH1 0x20 ADD PUSH1 0x40 MLOAD DUP1 SWAP2 SUB SWAP1 KECCAK256 PUSH0 DUP3 DUP3 SLOAD PUSH2 0x172C SWAP2 SWAP1 PUSH2 0x37F5 JUMP JUMPDEST SWAP1 SWAP2 SSTORE POP PUSH2 0x1880 SWAP1 POP JUMP JUMPDEST PUSH0 PUSH1 0x1 PUSH1 0x1 PUSH1 0xA0 SHL SUB AND PUSH1 0xC DUP5 PUSH1 0x40 MLOAD PUSH2 0x1751 SWAP2 SWAP1 PUSH2 0x345D JUMP JUMPDEST SWAP1 DUP2 MSTORE PUSH1 0x40 MLOAD SWAP1 DUP2 SWAP1 SUB PUSH1 0x20 ADD SWAP1 KECCAK256 PUSH1 0x1 ADD SLOAD PUSH1 0x1 PUSH1 0x1 PUSH1 0xA0 SHL SUB AND SUB PUSH2 0x178A JUMPI PUSH1 0x40 MLOAD PUSH3 0x461BCD PUSH1 0xE5 SHL DUP2 MSTORE PUSH1 0x4 ADD PUSH2 0x526 SWAP1 PUSH2 0x3653 JUMP JUMPDEST PUSH0 PUSH1 0xC DUP5 PUSH1 0x40 MLOAD PUSH2 0x179B SWAP2 SWAP1 PUSH2 0x345D JUMP JUMPDEST SWAP1 DUP2 MSTORE PUSH1 0x40 MLOAD SWAP1 DUP2 SWAP1 SUB PUSH1 0x20 ADD DUP2 KECCAK256 PUSH1 0x1 ADD SLOAD PUSH4 0x23B872DD PUSH1 0xE0 SHL DUP3 MSTORE CALLER PUSH1 0x4 DUP4 ADD MSTORE ADDRESS PUSH1 0x24 DUP4 ADD MSTORE PUSH1 0x44 DUP3 ADD DUP6 SWAP1 MSTORE PUSH1 0x1 PUSH1 0x1 PUSH1 0xA0 SHL SUB AND SWAP1 PUSH4 0x23B872DD SWAP1 PUSH1 0x64 ADD PUSH1 0x20 PUSH1 0x40 MLOAD DUP1 DUP4 SUB DUP2 PUSH0 DUP8 GAS CALL ISZERO DUP1 ISZERO PUSH2 0x17FA JUMPI RETURNDATASIZE PUSH0 DUP1 RETURNDATACOPY RETURNDATASIZE PUSH0 REVERT JUMPDEST POP POP POP POP PUSH1 0x40 MLOAD RETURNDATASIZE PUSH1 0x1F NOT PUSH1 0x1F DUP3 ADD AND DUP3 ADD DUP1 PUSH1 0x40 MSTORE POP DUP2 ADD SWAP1 PUSH2 0x181E SWAP2 SWAP1 PUSH2 0x3681 JUMP JUMPDEST SWAP1 POP DUP1 PUSH2 0x183D JUMPI PUSH1 0x40 MLOAD PUSH3 0x461BCD PUSH1 0xE5 SHL DUP2 MSTORE PUSH1 0x4 ADD PUSH2 0x526 SWAP1 PUSH2 0x36A0 JUMP JUMPDEST CALLER PUSH0 SWAP1 DUP2 MSTORE PUSH1 0x9 PUSH1 0x20 MSTORE PUSH1 0x40 SWAP1 DUP2 SWAP1 KECCAK256 SWAP1 MLOAD DUP5 SWAP2 SWAP1 PUSH2 0x185D SWAP1 DUP8 SWAP1 PUSH2 0x345D JUMP JUMPDEST SWAP1 DUP2 MSTORE PUSH1 0x20 ADD PUSH1 0x40 MLOAD DUP1 SWAP2 SUB SWAP1 KECCAK256 PUSH0 DUP3 DUP3 SLOAD PUSH2 0x1879 SWAP2 SWAP1 PUSH2 0x37F5 JUMP JUMPDEST SWAP1 SWAP2 SSTORE POP POP POP JUMPDEST PUSH32 0x41751252894A74BD975DE630158C4E47BB25C36D9CE7AD90383D86D391D2BE12 DUP4 CALLER CALLVALUE PUSH1 0x4 SLOAD TIMESTAMP PUSH1 0x40 MLOAD PUSH2 0x18B9 SWAP6 SWAP5 SWAP4 SWAP3 SWAP2 SWAP1 PUSH2 0x36F6 JUMP JUMPDEST PUSH1 0x40 MLOAD DUP1 SWAP2 SUB SWAP1 LOG1 CALLER PUSH0 SWAP1 DUP2 MSTORE PUSH1 0xA PUSH1 0x20 MSTORE PUSH1 0x40 DUP2 KECCAK256 DUP1 SLOAD PUSH1 0xFF NOT AND SWAP1 SSTORE PUSH1 0x4 DUP1 SLOAD SWAP2 PUSH2 0x18E5 DUP4 PUSH2 0x3735 JUMP JUMPDEST SWAP1 SWAP2 SSTORE POP POP PUSH1 0x8 DUP1 SLOAD PUSH1 0xFF NOT AND SWAP1 SSTORE POP POP POP JUMP JUMPDEST PUSH0 DUP1 JUMPDEST PUSH1 0x2 SLOAD DUP2 LT ISZERO PUSH2 0x194D JUMPI CALLER PUSH1 0x1 PUSH1 0x1 PUSH1 0xA0 SHL SUB AND PUSH1 0x2 DUP3 DUP2 SLOAD DUP2 LT PUSH2 0x1923 JUMPI PUSH2 0x1923 PUSH2 0x3478 JUMP JUMPDEST PUSH0 SWAP2 DUP3 MSTORE PUSH1 0x20 SWAP1 SWAP2 KECCAK256 ADD SLOAD PUSH1 0x1 PUSH1 0x1 PUSH1 0xA0 SHL SUB AND SUB PUSH2 0x1945 JUMPI PUSH1 0x1 SWAP2 POP PUSH2 0x194D JUMP JUMPDEST PUSH1 0x1 ADD PUSH2 0x18FC JUMP JUMPDEST POP PUSH1 0x1 DUP2 ISZERO ISZERO EQ PUSH2 0x1970 JUMPI PUSH1 0x40 MLOAD PUSH3 0x461BCD PUSH1 0xE5 SHL DUP2 MSTORE PUSH1 0x4 ADD PUSH2 0x526 SWAP1 PUSH2 0x348C JUMP JUMPDEST PUSH0 JUMPDEST PUSH1 0x2 SLOAD DUP2 LT ISZERO PUSH2 0x1A02 JUMPI DUP5 PUSH1 0x1 PUSH1 0x1 PUSH1 0xA0 SHL SUB AND PUSH1 0x2 DUP3 DUP2 SLOAD DUP2 LT PUSH2 0x1999 JUMPI PUSH2 0x1999 PUSH2 0x3478 JUMP JUMPDEST PUSH0 SWAP2 DUP3 MSTORE PUSH1 0x20 SWAP1 SWAP2 KECCAK256 ADD SLOAD PUSH1 0x1 PUSH1 0x1 PUSH1 0xA0 SHL SUB AND SUB PUSH2 0x19FA JUMPI PUSH1 0x40 MLOAD PUSH3 0x461BCD PUSH1 0xE5 SHL DUP2 MSTORE PUSH1 0x20 PUSH1 0x4 DUP3 ADD MSTORE PUSH1 0x1B PUSH1 0x24 DUP3 ADD MSTORE PUSH32 0x63616E6E6F7420616464206475706C6963617465206F776E6572730000000000 PUSH1 0x44 DUP3 ADD MSTORE PUSH1 0x64 ADD PUSH2 0x526 JUMP JUMPDEST PUSH1 0x1 ADD PUSH2 0x1972 JUMP JUMPDEST POP PUSH1 0x2 DUP1 SLOAD PUSH1 0x1 DUP2 ADD DUP3 SSTORE PUSH0 SWAP2 SWAP1 SWAP2 MSTORE PUSH32 0x405787FA12A823E0F2B7631CC41B3BA8828B3321CA811111FA75CD3AA3BB5ACE ADD DUP1 SLOAD PUSH1 0x1 PUSH1 0x1 PUSH1 0xA0 SHL SUB NOT AND PUSH1 0x1 PUSH1 0x1 PUSH1 0xA0 SHL SUB DUP7 AND SWAP1 DUP2 OR SWAP1 SWAP2 SSTORE PUSH1 0x40 DUP1 MLOAD CALLER DUP2 MSTORE PUSH1 0x20 DUP2 ADD SWAP3 SWAP1 SWAP3 MSTORE TIMESTAMP SWAP1 DUP3 ADD MSTORE PUSH32 0x43ABCFF3409244EC1056224394AF5F818E9A74866F0A11BFEE2AD52F68AD6FB9 SWAP1 PUSH1 0x60 ADD PUSH1 0x40 MLOAD DUP1 SWAP2 SUB SWAP1 LOG1 PUSH2 0x1A9A DUP4 PUSH2 0x27D2 JUMP JUMPDEST PUSH2 0x1AA4 DUP5 DUP4 PUSH2 0x2E46 JUMP JUMPDEST POP POP POP POP JUMP JUMPDEST PUSH1 0x60 PUSH0 DUP1 JUMPDEST PUSH1 0x2 SLOAD DUP2 LT ISZERO PUSH2 0x1B00 JUMPI CALLER PUSH1 0x1 PUSH1 0x1 PUSH1 0xA0 SHL SUB AND PUSH1 0x2 DUP3 DUP2 SLOAD DUP2 LT PUSH2 0x1AD6 JUMPI PUSH2 0x1AD6 PUSH2 0x3478 JUMP JUMPDEST PUSH0 SWAP2 DUP3 MSTORE PUSH1 0x20 SWAP1 SWAP2 KECCAK256 ADD SLOAD PUSH1 0x1 PUSH1 0x1 PUSH1 0xA0 SHL SUB AND SUB PUSH2 0x1AF8 JUMPI PUSH1 0x1 SWAP2 POP PUSH2 0x1B00 JUMP JUMPDEST PUSH1 0x1 ADD PUSH2 0x1AAF JUMP JUMPDEST POP PUSH1 0x1 DUP2 ISZERO ISZERO EQ PUSH2 0x1B23 JUMPI PUSH1 0x40 MLOAD PUSH3 0x461BCD PUSH1 0xE5 SHL DUP2 MSTORE PUSH1 0x4 ADD PUSH2 0x526 SWAP1 PUSH2 0x348C JUMP JUMPDEST PUSH1 0xF DUP1 SLOAD DUP1 PUSH1 0x20 MUL PUSH1 0x20 ADD PUSH1 0x40 MLOAD SWAP1 DUP2 ADD PUSH1 0x40 MSTORE DUP1 SWAP3 SWAP2 SWAP1 DUP2 DUP2 MSTORE PUSH1 0x20 ADD PUSH0 SWAP1 JUMPDEST DUP3 DUP3 LT ISZERO PUSH2 0x1CB5 JUMPI DUP4 DUP3 SWAP1 PUSH0 MSTORE PUSH1 0x20 PUSH0 KECCAK256 SWAP1 PUSH1 0x8 MUL ADD PUSH1 0x40 MLOAD DUP1 PUSH2 0x100 ADD PUSH1 0x40 MSTORE SWAP1 DUP2 PUSH0 DUP3 ADD DUP1 SLOAD PUSH2 0x1B75 SWAP1 PUSH2 0x342B JUMP JUMPDEST DUP1 PUSH1 0x1F ADD PUSH1 0x20 DUP1 SWAP2 DIV MUL PUSH1 0x20 ADD PUSH1 0x40 MLOAD SWAP1 DUP2 ADD PUSH1 0x40 MSTORE DUP1 SWAP3 SWAP2 SWAP1 DUP2 DUP2 MSTORE PUSH1 0x20 ADD DUP3 DUP1 SLOAD PUSH2 0x1BA1 SWAP1 PUSH2 0x342B JUMP JUMPDEST DUP1 ISZERO PUSH2 0x1BEC JUMPI DUP1 PUSH1 0x1F LT PUSH2 0x1BC3 JUMPI PUSH2 0x100 DUP1 DUP4 SLOAD DIV MUL DUP4 MSTORE SWAP2 PUSH1 0x20 ADD SWAP2 PUSH2 0x1BEC JUMP JUMPDEST DUP3 ADD SWAP2 SWAP1 PUSH0 MSTORE PUSH1 0x20 PUSH0 KECCAK256 SWAP1 JUMPDEST DUP2 SLOAD DUP2 MSTORE SWAP1 PUSH1 0x1 ADD SWAP1 PUSH1 0x20 ADD DUP1 DUP4 GT PUSH2 0x1BCF JUMPI DUP3 SWAP1 SUB PUSH1 0x1F AND DUP3 ADD SWAP2 JUMPDEST POP POP POP SWAP2 DUP4 MSTORE POP POP PUSH1 0x1 DUP3 ADD SLOAD PUSH1 0x1 PUSH1 0x1 PUSH1 0xA0 SHL SUB SWAP1 DUP2 AND PUSH1 0x20 DUP1 DUP5 ADD SWAP2 SWAP1 SWAP2 MSTORE PUSH1 0x2 DUP5 ADD SLOAD SWAP1 SWAP2 AND PUSH1 0x40 DUP1 DUP5 ADD SWAP2 SWAP1 SWAP2 MSTORE PUSH1 0x3 DUP5 ADD SLOAD PUSH1 0x60 DUP5 ADD MSTORE PUSH1 0x4 DUP5 ADD SLOAD PUSH1 0x80 DUP5 ADD MSTORE PUSH1 0x5 DUP5 ADD SLOAD PUSH1 0xA0 DUP5 ADD MSTORE PUSH1 0x6 DUP5 ADD SLOAD PUSH1 0xC0 DUP5 ADD MSTORE PUSH1 0x7 DUP5 ADD DUP1 SLOAD DUP3 MLOAD DUP2 DUP6 MUL DUP2 ADD DUP6 ADD SWAP1 SWAP4 MSTORE DUP1 DUP4 MSTORE PUSH1 0xE0 SWAP1 SWAP5 ADD SWAP4 SWAP2 SWAP3 SWAP1 SWAP2 SWAP1 DUP4 ADD DUP3 DUP3 DUP1 ISZERO PUSH2 0x1C9D JUMPI PUSH1 0x20 MUL DUP3 ADD SWAP2 SWAP1 PUSH0 MSTORE PUSH1 0x20 PUSH0 KECCAK256 SWAP1 JUMPDEST DUP2 SLOAD PUSH1 0x1 PUSH1 0x1 PUSH1 0xA0 SHL SUB AND DUP2 MSTORE PUSH1 0x1 SWAP1 SWAP2 ADD SWAP1 PUSH1 0x20 ADD DUP1 DUP4 GT PUSH2 0x1C7F JUMPI JUMPDEST POP POP POP POP POP DUP2 MSTORE POP POP DUP2 MSTORE PUSH1 0x20 ADD SWAP1 PUSH1 0x1 ADD SWAP1 PUSH2 0x1B44 JUMP JUMPDEST POP POP POP POP SWAP2 POP POP SWAP1 JUMP JUMPDEST PUSH0 DUP1 DUP1 JUMPDEST PUSH1 0x2 SLOAD DUP2 LT ISZERO PUSH2 0x1D14 JUMPI CALLER PUSH1 0x1 PUSH1 0x1 PUSH1 0xA0 SHL SUB AND PUSH1 0x2 DUP3 DUP2 SLOAD DUP2 LT PUSH2 0x1CEA JUMPI PUSH2 0x1CEA PUSH2 0x3478 JUMP JUMPDEST PUSH0 SWAP2 DUP3 MSTORE PUSH1 0x20 SWAP1 SWAP2 KECCAK256 ADD SLOAD PUSH1 0x1 PUSH1 0x1 PUSH1 0xA0 SHL SUB AND SUB PUSH2 0x1D0C JUMPI PUSH1 0x1 SWAP2 POP PUSH2 0x1D14 JUMP JUMPDEST PUSH1 0x1 ADD PUSH2 0x1CC3 JUMP JUMPDEST POP PUSH1 0x1 DUP2 ISZERO ISZERO EQ PUSH2 0x1D37 JUMPI PUSH1 0x40 MLOAD PUSH3 0x461BCD PUSH1 0xE5 SHL DUP2 MSTORE PUSH1 0x4 ADD PUSH2 0x526 SWAP1 PUSH2 0x348C JUMP JUMPDEST PUSH0 PUSH1 0xF DUP5 DUP2 SLOAD DUP2 LT PUSH2 0x1D4B JUMPI PUSH2 0x1D4B PUSH2 0x3478 JUMP JUMPDEST SWAP1 PUSH0 MSTORE PUSH1 0x20 PUSH0 KECCAK256 SWAP1 PUSH1 0x8 MUL ADD PUSH1 0x7 ADD DUP1 SLOAD DUP1 PUSH1 0x20 MUL PUSH1 0x20 ADD PUSH1 0x40 MLOAD SWAP1 DUP2 ADD PUSH1 0x40 MSTORE DUP1 SWAP3 SWAP2 SWAP1 DUP2 DUP2 MSTORE PUSH1 0x20 ADD DUP3 DUP1 SLOAD DUP1 ISZERO PUSH2 0x1DAC JUMPI PUSH1 0x20 MUL DUP3 ADD SWAP2 SWAP1 PUSH0 MSTORE PUSH1 0x20 PUSH0 KECCAK256 SWAP1 JUMPDEST DUP2 SLOAD PUSH1 0x1 PUSH1 0x1 PUSH1 0xA0 SHL SUB AND DUP2 MSTORE PUSH1 0x1 SWAP1 SWAP2 ADD SWAP1 PUSH1 0x20 ADD DUP1 DUP4 GT PUSH2 0x1D8E JUMPI JUMPDEST POP POP POP POP POP SWAP1 POP PUSH0 JUMPDEST DUP2 MLOAD DUP2 LT ISZERO PUSH2 0x1E03 JUMPI CALLER PUSH1 0x1 PUSH1 0x1 PUSH1 0xA0 SHL SUB AND DUP3 DUP3 DUP2 MLOAD DUP2 LT PUSH2 0x1DDA JUMPI PUSH2 0x1DDA PUSH2 0x3478 JUMP JUMPDEST PUSH1 0x20 MUL PUSH1 0x20 ADD ADD MLOAD PUSH1 0x1 PUSH1 0x1 PUSH1 0xA0 SHL SUB AND SUB PUSH2 0x1DFB JUMPI PUSH1 0x1 SWAP4 POP POP POP PUSH2 0x1E09 JUMP JUMPDEST PUSH1 0x1 ADD PUSH2 0x1DB5 JUMP JUMPDEST POP PUSH0 SWAP3 POP POP JUMPDEST POP SWAP2 SWAP1 POP JUMP JUMPDEST PUSH0 DUP1 JUMPDEST PUSH1 0x2 SLOAD DUP2 LT ISZERO PUSH2 0x1E63 JUMPI CALLER PUSH1 0x1 PUSH1 0x1 PUSH1 0xA0 SHL SUB AND PUSH1 0x2 DUP3 DUP2 SLOAD DUP2 LT PUSH2 0x1E39 JUMPI PUSH2 0x1E39 PUSH2 0x3478 JUMP JUMPDEST PUSH0 SWAP2 DUP3 MSTORE PUSH1 0x20 SWAP1 SWAP2 KECCAK256 ADD SLOAD PUSH1 0x1 PUSH1 0x1 PUSH1 0xA0 SHL SUB AND SUB PUSH2 0x1E5B JUMPI PUSH1 0x1 SWAP2 POP PUSH2 0x1E63 JUMP JUMPDEST PUSH1 0x1 ADD PUSH2 0x1E12 JUMP JUMPDEST POP PUSH1 0x1 DUP2 ISZERO ISZERO EQ PUSH2 0x1E86 JUMPI PUSH1 0x40 MLOAD PUSH3 0x461BCD PUSH1 0xE5 SHL DUP2 MSTORE PUSH1 0x4 ADD PUSH2 0x526 SWAP1 PUSH2 0x348C JUMP JUMPDEST PUSH0 DUP3 GT PUSH2 0x1ED5 JUMPI PUSH1 0x40 MLOAD PUSH3 0x461BCD PUSH1 0xE5 SHL DUP2 MSTORE PUSH1 0x20 PUSH1 0x4 DUP3 ADD MSTORE PUSH1 0x1D PUSH1 0x24 DUP3 ADD MSTORE PUSH32 0x416D6F756E74206D7573742062652067726561746572207468616E2030000000 PUSH1 0x44 DUP3 ADD MSTORE PUSH1 0x64 ADD PUSH2 0x526 JUMP JUMPDEST CALLER PUSH0 SWAP1 DUP2 MSTORE PUSH1 0x9 PUSH1 0x20 MSTORE PUSH1 0x40 SWAP1 DUP2 SWAP1 KECCAK256 SWAP1 MLOAD DUP4 SWAP2 SWAP1 PUSH2 0x1EF5 SWAP1 DUP7 SWAP1 PUSH2 0x345D JUMP JUMPDEST SWAP1 DUP2 MSTORE PUSH1 0x20 ADD PUSH1 0x40 MLOAD DUP1 SWAP2 SUB SWAP1 KECCAK256 SLOAD LT ISZERO PUSH2 0x1F48 JUMPI PUSH1 0x40 MLOAD PUSH3 0x461BCD PUSH1 0xE5 SHL DUP2 MSTORE PUSH1 0x20 PUSH1 0x4 DUP3 ADD MSTORE PUSH1 0x13 PUSH1 0x24 DUP3 ADD MSTORE PUSH19 0x62616C616E636520746964616B2063756B757 PUSH1 0x6C SHL PUSH1 0x44 DUP3 ADD MSTORE PUSH1 0x64 ADD PUSH2 0x526 JUMP JUMPDEST CALLER PUSH0 SWAP1 DUP2 MSTORE PUSH1 0xB PUSH1 0x20 MSTORE PUSH1 0x40 SWAP1 KECCAK256 SLOAD PUSH1 0xFF AND ISZERO PUSH2 0x1FA7 JUMPI PUSH1 0x40 MLOAD PUSH3 0x461BCD PUSH1 0xE5 SHL DUP2 MSTORE PUSH1 0x20 PUSH1 0x4 DUP3 ADD MSTORE PUSH1 0x1D PUSH1 0x24 DUP3 ADD MSTORE PUSH32 0x5769746864726177616C207265717565737420696E2070726F63657373000000 PUSH1 0x44 DUP3 ADD MSTORE PUSH1 0x64 ADD PUSH2 0x526 JUMP JUMPDEST PUSH1 0x40 DUP1 MLOAD DUP1 DUP3 ADD SWAP1 SWAP2 MSTORE PUSH1 0x3 DUP2 MSTORE PUSH3 0x8AA89 PUSH1 0xEB SHL PUSH1 0x20 SWAP2 DUP3 ADD MSTORE DUP4 MLOAD SWAP1 DUP5 ADD KECCAK256 PUSH32 0xAAAEBEBA3810B1E6B70781F14B2D72C1CB89C0B2B320C43BB67FF79F562F5FF4 EQ PUSH2 0x2041 JUMPI PUSH0 PUSH1 0x1 PUSH1 0x1 PUSH1 0xA0 SHL SUB AND PUSH1 0xC DUP5 PUSH1 0x40 MLOAD PUSH2 0x2008 SWAP2 SWAP1 PUSH2 0x345D JUMP JUMPDEST SWAP1 DUP2 MSTORE PUSH1 0x40 MLOAD SWAP1 DUP2 SWAP1 SUB PUSH1 0x20 ADD SWAP1 KECCAK256 PUSH1 0x1 ADD SLOAD PUSH1 0x1 PUSH1 0x1 PUSH1 0xA0 SHL SUB AND SUB PUSH2 0x2041 JUMPI PUSH1 0x40 MLOAD PUSH3 0x461BCD PUSH1 0xE5 SHL DUP2 MSTORE PUSH1 0x4 ADD PUSH2 0x526 SWAP1 PUSH2 0x3653 JUMP JUMPDEST CALLER PUSH0 SWAP1 DUP2 MSTORE PUSH1 0xD PUSH1 0x20 SWAP1 DUP2 MSTORE PUSH1 0x40 DUP1 DUP4 KECCAK256 DUP6 SWAP1 SSTORE PUSH1 0xE SWAP1 SWAP2 MSTORE SWAP1 KECCAK256 PUSH2 0x2066 DUP5 DUP3 PUSH2 0x3597 JUMP JUMPDEST POP POP CALLER PUSH0 SWAP1 DUP2 MSTORE PUSH1 0xB PUSH1 0x20 MSTORE PUSH1 0x40 SWAP1 KECCAK256 DUP1 SLOAD PUSH1 0xFF NOT AND PUSH1 0x1 OR SWAP1 SSTORE POP POP JUMP JUMPDEST PUSH0 DUP1 JUMPDEST PUSH1 0x2 SLOAD DUP2 LT ISZERO PUSH2 0x20D9 JUMPI CALLER PUSH1 0x1 PUSH1 0x1 PUSH1 0xA0 SHL SUB AND PUSH1 0x2 DUP3 DUP2 SLOAD DUP2 LT PUSH2 0x20AF JUMPI PUSH2 0x20AF PUSH2 0x3478 JUMP JUMPDEST PUSH0 SWAP2 DUP3 MSTORE PUSH1 0x20 SWAP1 SWAP2 KECCAK256 ADD SLOAD PUSH1 0x1 PUSH1 0x1 PUSH1 0xA0 SHL SUB AND SUB PUSH2 0x20D1 JUMPI PUSH1 0x1 SWAP2 POP PUSH2 0x20D9 JUMP JUMPDEST PUSH1 0x1 ADD PUSH2 0x2088 JUMP JUMPDEST POP PUSH1 0x1 DUP2 ISZERO ISZERO EQ PUSH2 0x20FC JUMPI PUSH1 0x40 MLOAD PUSH3 0x461BCD PUSH1 0xE5 SHL DUP2 MSTORE PUSH1 0x4 ADD PUSH2 0x526 SWAP1 PUSH2 0x348C JUMP JUMPDEST PUSH0 JUMPDEST PUSH1 0x7 SLOAD DUP2 LT ISZERO PUSH2 0x2195 JUMPI DUP4 DUP1 MLOAD SWAP1 PUSH1 0x20 ADD KECCAK256 PUSH1 0x7 DUP3 DUP2 SLOAD DUP2 LT PUSH2 0x2123 JUMPI PUSH2 0x2123 PUSH2 0x3478 JUMP JUMPDEST SWAP1 PUSH0 MSTORE PUSH1 0x20 PUSH0 KECCAK256 ADD PUSH1 0x40 MLOAD PUSH2 0x2138 SWAP2 SWAP1 PUSH2 0x38D3 JUMP JUMPDEST PUSH1 0x40 MLOAD DUP1 SWAP2 SUB SWAP1 KECCAK256 SUB PUSH2 0x218D JUMPI PUSH1 0x40 MLOAD PUSH3 0x461BCD PUSH1 0xE5 SHL DUP2 MSTORE PUSH1 0x20 PUSH1 0x4 DUP3 ADD MSTORE PUSH1 0x1F PUSH1 0x24 DUP3 ADD MSTORE PUSH32 0x746964616B2064617061742061646420746F6B656E73206475706C696B617400 PUSH1 0x44 DUP3 ADD MSTORE PUSH1 0x64 ADD PUSH2 0x526 JUMP JUMPDEST PUSH1 0x1 ADD PUSH2 0x20FE JUMP JUMPDEST POP DUP3 DUP1 MLOAD SWAP1 PUSH1 0x20 ADD KECCAK256 DUP3 PUSH1 0x1 PUSH1 0x1 PUSH1 0xA0 SHL SUB AND PUSH4 0x95D89B41 PUSH1 0x40 MLOAD DUP2 PUSH4 0xFFFFFFFF AND PUSH1 0xE0 SHL DUP2 MSTORE PUSH1 0x4 ADD PUSH0 PUSH1 0x40 MLOAD DUP1 DUP4 SUB DUP2 DUP7 GAS STATICCALL ISZERO DUP1 ISZERO PUSH2 0x21D9 JUMPI RETURNDATASIZE PUSH0 DUP1 RETURNDATACOPY RETURNDATASIZE PUSH0 REVERT JUMPDEST POP POP POP POP PUSH1 0x40 MLOAD RETURNDATASIZE PUSH0 DUP3 RETURNDATACOPY PUSH1 0x1F RETURNDATASIZE SWAP1 DUP2 ADD PUSH1 0x1F NOT AND DUP3 ADD PUSH1 0x40 MSTORE PUSH2 0x2200 SWAP2 SWAP1 DUP2 ADD SWAP1 PUSH2 0x3945 JUMP JUMPDEST DUP1 MLOAD SWAP1 PUSH1 0x20 ADD KECCAK256 EQ PUSH2 0x2254 JUMPI PUSH1 0x40 MLOAD PUSH3 0x461BCD PUSH1 0xE5 SHL DUP2 MSTORE PUSH1 0x20 PUSH1 0x4 DUP3 ADD MSTORE PUSH1 0x1F PUSH1 0x24 DUP3 ADD MSTORE PUSH32 0x746F6B656E20746964616B207465727365646961207061646120455243323000 PUSH1 0x44 DUP3 ADD MSTORE PUSH1 0x64 ADD PUSH2 0x526 JUMP JUMPDEST PUSH1 0x40 MLOAD DUP1 PUSH1 0x40 ADD PUSH1 0x40 MSTORE DUP1 DUP5 DUP2 MSTORE PUSH1 0x20 ADD DUP4 PUSH1 0x1 PUSH1 0x1 PUSH1 0xA0 SHL SUB AND DUP2 MSTORE POP PUSH1 0xC DUP5 PUSH1 0x40 MLOAD PUSH2 0x2282 SWAP2 SWAP1 PUSH2 0x345D JUMP JUMPDEST SWAP1 DUP2 MSTORE PUSH1 0x40 MLOAD SWAP1 DUP2 SWAP1 SUB PUSH1 0x20 ADD SWAP1 KECCAK256 DUP2 MLOAD DUP2 SWAP1 PUSH2 0x229F SWAP1 DUP3 PUSH2 0x3597 JUMP JUMPDEST POP PUSH1 0x20 SWAP2 SWAP1 SWAP2 ADD MLOAD PUSH1 0x1 SWAP2 DUP3 ADD DUP1 SLOAD PUSH1 0x1 PUSH1 0x1 PUSH1 0xA0 SHL SUB NOT AND PUSH1 0x1 PUSH1 0x1 PUSH1 0xA0 SHL SUB SWAP1 SWAP3 AND SWAP2 SWAP1 SWAP2 OR SWAP1 SSTORE PUSH1 0x7 DUP1 SLOAD SWAP2 DUP3 ADD DUP2 SSTORE PUSH0 MSTORE PUSH32 0xA66CC928B5EDB82AF9BD49922954155AB7B0942694BEA4CE44661D9A8736C688 ADD PUSH2 0x2300 DUP5 DUP3 PUSH2 0x3597 JUMP JUMPDEST POP PUSH32 0xE6887A88BB2477605D9B68E33F64A263587018A6A232F3B234BA1B78C96B84F2 CALLER DUP5 DUP5 TIMESTAMP PUSH1 0x40 MLOAD PUSH2 0x2336 SWAP5 SWAP4 SWAP3 SWAP2 SWAP1 PUSH2 0x39B7 JUMP JUMPDEST PUSH1 0x40 MLOAD DUP1 SWAP2 SUB SWAP1 LOG1 POP POP POP JUMP JUMPDEST PUSH0 DUP1 JUMPDEST PUSH1 0x2 SLOAD DUP2 LT ISZERO PUSH2 0x2397 JUMPI CALLER PUSH1 0x1 PUSH1 0x1 PUSH1 0xA0 SHL SUB AND PUSH1 0x2 DUP3 DUP2 SLOAD DUP2 LT PUSH2 0x236D JUMPI PUSH2 0x236D PUSH2 0x3478 JUMP JUMPDEST PUSH0 SWAP2 DUP3 MSTORE PUSH1 0x20 SWAP1 SWAP2 KECCAK256 ADD SLOAD PUSH1 0x1 PUSH1 0x1 PUSH1 0xA0 SHL SUB AND SUB PUSH2 0x238F JUMPI PUSH1 0x1 SWAP2 POP PUSH2 0x2397 JUMP JUMPDEST PUSH1 0x1 ADD PUSH2 0x2346 JUMP JUMPDEST POP PUSH1 0x1 DUP2 ISZERO ISZERO EQ PUSH2 0x23BA JUMPI PUSH1 0x40 MLOAD PUSH3 0x461BCD PUSH1 0xE5 SHL DUP2 MSTORE PUSH1 0x4 ADD PUSH2 0x526 SWAP1 PUSH2 0x348C JUMP JUMPDEST PUSH1 0x40 DUP1 MLOAD DUP1 DUP3 ADD SWAP1 SWAP2 MSTORE PUSH1 0x3 DUP2 MSTORE PUSH3 0x8AA89 PUSH1 0xEB SHL PUSH1 0x20 SWAP2 DUP3 ADD MSTORE DUP5 MLOAD SWAP1 DUP6 ADD KECCAK256 DUP5 SWAP1 PUSH32 0xAAAEBEBA3810B1E6B70781F14B2D72C1CB89C0B2B320C43BB67FF79F562F5FF4 EQ PUSH2 0x2456 JUMPI PUSH0 PUSH1 0x1 PUSH1 0x1 PUSH1 0xA0 SHL SUB AND PUSH1 0xC DUP3 PUSH1 0x40 MLOAD PUSH2 0x241D SWAP2 SWAP1 PUSH2 0x345D JUMP JUMPDEST SWAP1 DUP2 MSTORE PUSH1 0x40 MLOAD SWAP1 DUP2 SWAP1 SUB PUSH1 0x20 ADD SWAP1 KECCAK256 PUSH1 0x1 ADD SLOAD PUSH1 0x1 PUSH1 0x1 PUSH1 0xA0 SHL SUB AND SUB PUSH2 0x2456 JUMPI PUSH1 0x40 MLOAD PUSH3 0x461BCD PUSH1 0xE5 SHL DUP2 MSTORE PUSH1 0x4 ADD PUSH2 0x526 SWAP1 PUSH2 0x3653 JUMP JUMPDEST CALLER PUSH0 SWAP1 DUP2 MSTORE PUSH1 0x9 PUSH1 0x20 MSTORE PUSH1 0x40 SWAP1 DUP2 SWAP1 KECCAK256 SWAP1 MLOAD DUP5 SWAP2 SWAP1 PUSH2 0x2476 SWAP1 DUP9 SWAP1 PUSH2 0x345D JUMP JUMPDEST SWAP1 DUP2 MSTORE PUSH1 0x20 ADD PUSH1 0x40 MLOAD DUP1 SWAP2 SUB SWAP1 KECCAK256 SLOAD LT ISZERO PUSH2 0x24E3 JUMPI PUSH1 0x40 MLOAD PUSH3 0x461BCD PUSH1 0xE5 SHL DUP2 MSTORE PUSH1 0x20 PUSH1 0x4 DUP3 ADD MSTORE PUSH1 0x27 PUSH1 0x24 DUP3 ADD MSTORE PUSH32 0x66756E647320746964616B2063756B757020756E74756B206372656174652074 PUSH1 0x44 DUP3 ADD MSTORE PUSH7 0x3930B739B332B9 PUSH1 0xC9 SHL PUSH1 0x64 DUP3 ADD MSTORE PUSH1 0x84 ADD PUSH2 0x526 JUMP JUMPDEST PUSH0 JUMPDEST PUSH1 0x2 SLOAD DUP2 LT ISZERO PUSH2 0x258B JUMPI DUP5 PUSH1 0x1 PUSH1 0x1 PUSH1 0xA0 SHL SUB AND PUSH1 0x2 DUP3 DUP2 SLOAD DUP2 LT PUSH2 0x250C JUMPI PUSH2 0x250C PUSH2 0x3478 JUMP JUMPDEST PUSH0 SWAP2 DUP3 MSTORE PUSH1 0x20 SWAP1 SWAP2 KECCAK256 ADD SLOAD PUSH1 0x1 PUSH1 0x1 PUSH1 0xA0 SHL SUB AND SUB PUSH2 0x2583 JUMPI PUSH1 0x40 MLOAD PUSH3 0x461BCD PUSH1 0xE5 SHL DUP2 MSTORE PUSH1 0x20 PUSH1 0x4 DUP3 ADD MSTORE PUSH1 0x2D PUSH1 0x24 DUP3 ADD MSTORE PUSH32 0x746964616B2062697361207472616E736665722066756E647320706164612077 PUSH1 0x44 DUP3 ADD MSTORE PUSH13 0x616C6C65742070726962616469 PUSH1 0x98 SHL PUSH1 0x64 DUP3 ADD MSTORE PUSH1 0x84 ADD PUSH2 0x526 JUMP JUMPDEST PUSH1 0x1 ADD PUSH2 0x24E5 JUMP JUMPDEST POP CALLER PUSH0 SWAP1 DUP2 MSTORE PUSH1 0x9 PUSH1 0x20 MSTORE PUSH1 0x40 SWAP1 DUP2 SWAP1 KECCAK256 SWAP1 MLOAD DUP5 SWAP2 SWAP1 PUSH2 0x25AC SWAP1 DUP9 SWAP1 PUSH2 0x345D JUMP JUMPDEST SWAP1 DUP2 MSTORE PUSH1 0x20 ADD PUSH1 0x40 MLOAD DUP1 SWAP2 SUB SWAP1 KECCAK256 PUSH0 DUP3 DUP3 SLOAD PUSH2 0x25C8 SWAP2 SWAP1 PUSH2 0x36E3 JUMP JUMPDEST SWAP1 SWAP2 SSTORE POP POP PUSH1 0x40 DUP1 MLOAD PUSH2 0x100 DUP2 ADD DUP3 MSTORE DUP7 DUP2 MSTORE CALLER PUSH1 0x20 DUP3 ADD MSTORE PUSH1 0x1 PUSH1 0x1 PUSH1 0xA0 SHL SUB DUP7 AND SWAP2 DUP2 ADD SWAP2 SWAP1 SWAP2 MSTORE PUSH1 0x60 DUP2 DUP2 ADD DUP6 SWAP1 MSTORE PUSH1 0x6 SLOAD PUSH1 0x80 DUP4 ADD MSTORE PUSH0 PUSH1 0xA0 DUP4 ADD DUP2 SWAP1 MSTORE TIMESTAMP PUSH1 0xC0 DUP5 ADD MSTORE PUSH1 0xE0 DUP4 ADD DUP3 SWAP1 MSTORE PUSH1 0xF DUP1 SLOAD PUSH1 0x1 DUP2 ADD DUP3 SSTORE SWAP2 MSTORE DUP3 MLOAD SWAP2 SWAP3 SWAP2 PUSH1 0x8 SWAP1 SWAP2 MUL PUSH32 0x8D1108E10BCB7C27DDDFC02ED9D693A074039D026CF4EA4240B40F7D581AC802 ADD SWAP1 DUP2 SWAP1 PUSH2 0x265C SWAP1 DUP3 PUSH2 0x3597 JUMP JUMPDEST POP PUSH1 0x20 DUP3 DUP2 ADD MLOAD PUSH1 0x1 DUP4 ADD DUP1 SLOAD PUSH1 0x1 PUSH1 0x1 PUSH1 0xA0 SHL SUB SWAP3 DUP4 AND PUSH1 0x1 PUSH1 0x1 PUSH1 0xA0 SHL SUB NOT SWAP2 DUP3 AND OR SWAP1 SWAP2 SSTORE PUSH1 0x40 DUP6 ADD MLOAD PUSH1 0x2 DUP6 ADD DUP1 SLOAD SWAP2 SWAP1 SWAP4 AND SWAP2 AND OR SWAP1 SSTORE PUSH1 0x60 DUP4 ADD MLOAD PUSH1 0x3 DUP4 ADD SSTORE PUSH1 0x80 DUP4 ADD MLOAD PUSH1 0x4 DUP4 ADD SSTORE PUSH1 0xA0 DUP4 ADD MLOAD PUSH1 0x5 DUP4 ADD SSTORE PUSH1 0xC0 DUP4 ADD MLOAD PUSH1 0x6 DUP4 ADD SSTORE PUSH1 0xE0 DUP4 ADD MLOAD DUP1 MLOAD PUSH2 0x26D7 SWAP3 PUSH1 0x7 DUP6 ADD SWAP3 ADD SWAP1 PUSH2 0x2F1F JUMP JUMPDEST POP POP PUSH1 0x6 DUP1 SLOAD SWAP2 POP PUSH0 PUSH2 0x26E9 DUP4 PUSH2 0x3735 JUMP JUMPDEST SWAP2 SWAP1 POP SSTORE POP PUSH32 0x9CC5DF05955D08828D561F92AD3F6B82C78A55CF7D3DEDACFFACC4F694FAF9BE DUP7 CALLER DUP8 DUP8 PUSH1 0x6 SLOAD PUSH0 TIMESTAMP PUSH1 0x40 MLOAD PUSH2 0x272B SWAP8 SWAP7 SWAP6 SWAP5 SWAP4 SWAP3 SWAP2 SWAP1 PUSH2 0x37A9 JUMP JUMPDEST PUSH1 0x40 MLOAD DUP1 SWAP2 SUB SWAP1 LOG1 POP POP POP POP POP POP JUMP JUMPDEST PUSH1 0xE PUSH1 0x20 MSTORE PUSH0 SWAP1 DUP2 MSTORE PUSH1 0x40 SWAP1 KECCAK256 DUP1 SLOAD PUSH2 0x2753 SWAP1 PUSH2 0x342B JUMP JUMPDEST DUP1 PUSH1 0x1F ADD PUSH1 0x20 DUP1 SWAP2 DIV MUL PUSH1 0x20 ADD PUSH1 0x40 MLOAD SWAP1 DUP2 ADD PUSH1 0x40 MSTORE DUP1 SWAP3 SWAP2 SWAP1 DUP2 DUP2 MSTORE PUSH1 0x20 ADD DUP3 DUP1 SLOAD PUSH2 0x277F SWAP1 PUSH2 0x342B JUMP JUMPDEST DUP1 ISZERO PUSH2 0x27CA JUMPI DUP1 PUSH1 0x1F LT PUSH2 0x27A1 JUMPI PUSH2 0x100 DUP1 DUP4 SLOAD DIV MUL DUP4 MSTORE SWAP2 PUSH1 0x20 ADD SWAP2 PUSH2 0x27CA JUMP JUMPDEST DUP3 ADD SWAP2 SWAP1 PUSH0 MSTORE PUSH1 0x20 PUSH0 KECCAK256 SWAP1 JUMPDEST DUP2 SLOAD DUP2 MSTORE SWAP1 PUSH1 0x1 ADD SWAP1 PUSH1 0x20 ADD DUP1 DUP4 GT PUSH2 0x27AD JUMPI DUP3 SWAP1 SUB PUSH1 0x1F AND DUP3 ADD SWAP2 JUMPDEST POP POP POP POP POP DUP2 JUMP JUMPDEST PUSH1 0x1 DUP1 SLOAD PUSH1 0x1 PUSH1 0x1 PUSH1 0xA0 SHL SUB NOT AND PUSH1 0x1 PUSH1 0x1 PUSH1 0xA0 SHL SUB SWAP3 SWAP1 SWAP3 AND SWAP2 SWAP1 SWAP2 OR SWAP1 SSTORE JUMP JUMPDEST PUSH1 0x1 SLOAD PUSH1 0x40 MLOAD PUSH4 0x628BF691 PUSH1 0xE0 SHL DUP2 MSTORE PUSH1 0x1 PUSH1 0x1 PUSH1 0xA0 SHL SUB DUP5 DUP2 AND PUSH1 0x4 DUP4 ADD MSTORE DUP4 DUP2 AND PUSH1 0x24 DUP4 ADD MSTORE SWAP1 SWAP2 AND SWAP1 DUP2 SWAP1 PUSH4 0x628BF691 SWAP1 PUSH1 0x44 ADD JUMPDEST PUSH0 PUSH1 0x40 MLOAD DUP1 DUP4 SUB DUP2 PUSH0 DUP8 DUP1 EXTCODESIZE ISZERO DUP1 ISZERO PUSH2 0x2843 JUMPI PUSH0 DUP1 REVERT JUMPDEST POP GAS CALL ISZERO DUP1 ISZERO PUSH2 0x2855 JUMPI RETURNDATASIZE PUSH0 DUP1 RETURNDATACOPY RETURNDATASIZE PUSH0 REVERT JUMPDEST POP POP POP POP POP POP POP JUMP JUMPDEST PUSH0 DUP1 JUMPDEST DUP3 MLOAD DUP2 LT ISZERO PUSH2 0x28AE JUMPI DUP4 PUSH1 0x1 PUSH1 0x1 PUSH1 0xA0 SHL SUB AND DUP4 DUP3 DUP2 MLOAD DUP2 LT PUSH2 0x2886 JUMPI PUSH2 0x2886 PUSH2 0x3478 JUMP JUMPDEST PUSH1 0x20 MUL PUSH1 0x20 ADD ADD MLOAD PUSH1 0x1 PUSH1 0x1 PUSH1 0xA0 SHL SUB AND SUB PUSH2 0x28A6 JUMPI PUSH1 0x1 SWAP2 POP POP PUSH2 0x28B3 JUMP JUMPDEST PUSH1 0x1 ADD PUSH2 0x2861 JUMP JUMPDEST POP PUSH0 SWAP1 POP JUMPDEST SWAP3 SWAP2 POP POP JUMP JUMPDEST PUSH1 0x8 SLOAD PUSH1 0xFF AND ISZERO PUSH2 0x28DC JUMPI PUSH1 0x40 MLOAD PUSH3 0x461BCD PUSH1 0xE5 SHL DUP2 MSTORE PUSH1 0x4 ADD PUSH2 0x526 SWAP1 PUSH2 0x34E0 JUMP JUMPDEST PUSH1 0x8 DUP1 SLOAD PUSH1 0xFF NOT AND PUSH1 0x1 OR SWAP1 SSTORE CALLER PUSH0 SWAP1 DUP2 MSTORE PUSH1 0xA PUSH1 0x20 MSTORE PUSH1 0x40 SWAP1 KECCAK256 SLOAD PUSH1 0xFF AND ISZERO PUSH2 0x2918 JUMPI PUSH1 0x40 MLOAD PUSH3 0x461BCD PUSH1 0xE5 SHL DUP2 MSTORE PUSH1 0x4 ADD PUSH2 0x526 SWAP1 PUSH2 0x3517 JUMP JUMPDEST CALLER PUSH0 SWAP1 DUP2 MSTORE PUSH1 0xA PUSH1 0x20 MSTORE PUSH1 0x40 DUP2 KECCAK256 DUP1 SLOAD PUSH1 0xFF NOT AND PUSH1 0x1 OR SWAP1 SSTORE PUSH1 0xF DUP1 SLOAD DUP4 SWAP1 DUP2 LT PUSH2 0x2945 JUMPI PUSH2 0x2945 PUSH2 0x3478 JUMP JUMPDEST SWAP1 PUSH0 MSTORE PUSH1 0x20 PUSH0 KECCAK256 SWAP1 PUSH1 0x8 MUL ADD PUSH1 0x3 ADD SLOAD PUSH1 0x9 PUSH0 PUSH1 0xF DUP6 DUP2 SLOAD DUP2 LT PUSH2 0x296B JUMPI PUSH2 0x296B PUSH2 0x3478 JUMP JUMPDEST PUSH0 SWAP2 DUP3 MSTORE PUSH1 0x20 DUP1 DUP4 KECCAK256 PUSH1 0x2 PUSH1 0x8 SWAP1 SWAP4 MUL ADD SWAP2 SWAP1 SWAP2 ADD SLOAD PUSH1 0x1 PUSH1 0x1 PUSH1 0xA0 SHL SUB AND DUP4 MSTORE DUP3 ADD SWAP3 SWAP1 SWAP3 MSTORE PUSH1 0x40 SWAP1 DUP2 ADD SWAP1 SWAP2 KECCAK256 SWAP1 MLOAD PUSH2 0x29A7 SWAP1 DUP7 SWAP1 PUSH2 0x345D JUMP JUMPDEST SWAP1 DUP2 MSTORE PUSH1 0x20 ADD PUSH1 0x40 MLOAD DUP1 SWAP2 SUB SWAP1 KECCAK256 PUSH0 DUP3 DUP3 SLOAD PUSH2 0x29C3 SWAP2 SWAP1 PUSH2 0x37F5 JUMP JUMPDEST SWAP1 SWAP2 SSTORE POP POP PUSH1 0x40 DUP1 MLOAD DUP1 DUP3 ADD SWAP1 SWAP2 MSTORE PUSH1 0x3 DUP2 MSTORE PUSH3 0x8AA89 PUSH1 0xEB SHL PUSH1 0x20 SWAP2 DUP3 ADD MSTORE DUP4 MLOAD SWAP1 DUP5 ADD KECCAK256 PUSH32 0x55514145C7EF4E1948F87E0EB4D28D3E34763F4D4CDF3BC449800860A9D0A00C ADD PUSH2 0x2AB2 JUMPI PUSH1 0xF DUP3 DUP2 SLOAD DUP2 LT PUSH2 0x2A22 JUMPI PUSH2 0x2A22 PUSH2 0x3478 JUMP JUMPDEST PUSH0 SWAP2 DUP3 MSTORE PUSH1 0x20 SWAP1 SWAP2 KECCAK256 PUSH1 0x2 PUSH1 0x8 SWAP1 SWAP3 MUL ADD ADD SLOAD PUSH1 0xF DUP1 SLOAD PUSH1 0x1 PUSH1 0x1 PUSH1 0xA0 SHL SUB SWAP1 SWAP3 AND SWAP2 DUP5 SWAP1 DUP2 LT PUSH2 0x2A55 JUMPI PUSH2 0x2A55 PUSH2 0x3478 JUMP JUMPDEST SWAP1 PUSH0 MSTORE PUSH1 0x20 PUSH0 KECCAK256 SWAP1 PUSH1 0x8 MUL ADD PUSH1 0x3 ADD SLOAD PUSH1 0x40 MLOAD PUSH0 PUSH1 0x40 MLOAD DUP1 DUP4 SUB DUP2 DUP6 DUP8 GAS CALL SWAP3 POP POP POP RETURNDATASIZE DUP1 PUSH0 DUP2 EQ PUSH2 0x2AA2 JUMPI PUSH1 0x40 MLOAD SWAP2 POP PUSH1 0x1F NOT PUSH1 0x3F RETURNDATASIZE ADD AND DUP3 ADD PUSH1 0x40 MSTORE RETURNDATASIZE DUP3 MSTORE RETURNDATASIZE PUSH0 PUSH1 0x20 DUP5 ADD RETURNDATACOPY PUSH2 0x2AA7 JUMP JUMPDEST PUSH1 0x60 SWAP2 POP JUMPDEST POP POP DUP1 SWAP2 POP POP PUSH2 0x2BB3 JUMP JUMPDEST PUSH1 0xC DUP4 PUSH1 0x40 MLOAD PUSH2 0x2AC2 SWAP2 SWAP1 PUSH2 0x345D JUMP JUMPDEST SWAP1 DUP2 MSTORE PUSH1 0x40 MLOAD SWAP1 DUP2 SWAP1 SUB PUSH1 0x20 ADD SWAP1 KECCAK256 PUSH1 0x1 ADD SLOAD PUSH1 0xF DUP1 SLOAD PUSH1 0x1 PUSH1 0x1 PUSH1 0xA0 SHL SUB SWAP1 SWAP3 AND SWAP2 PUSH4 0xA9059CBB SWAP2 SWAP1 DUP6 SWAP1 DUP2 LT PUSH2 0x2AFC JUMPI PUSH2 0x2AFC PUSH2 0x3478 JUMP JUMPDEST SWAP1 PUSH0 MSTORE PUSH1 0x20 PUSH0 KECCAK256 SWAP1 PUSH1 0x8 MUL ADD PUSH1 0x2 ADD PUSH0 SWAP1 SLOAD SWAP1 PUSH2 0x100 EXP SWAP1 DIV PUSH1 0x1 PUSH1 0x1 PUSH1 0xA0 SHL SUB AND PUSH1 0xF DUP6 DUP2 SLOAD DUP2 LT PUSH2 0x2B31 JUMPI PUSH2 0x2B31 PUSH2 0x3478 JUMP JUMPDEST PUSH0 SWAP2 DUP3 MSTORE PUSH1 0x20 SWAP1 SWAP2 KECCAK256 PUSH1 0x3 PUSH1 0x8 SWAP1 SWAP3 MUL ADD ADD SLOAD PUSH1 0x40 MLOAD PUSH1 0x1 PUSH1 0x1 PUSH1 0xE0 SHL SUB NOT PUSH1 0xE0 DUP6 SWAP1 SHL AND DUP2 MSTORE PUSH1 0x1 PUSH1 0x1 PUSH1 0xA0 SHL SUB SWAP1 SWAP3 AND PUSH1 0x4 DUP4 ADD MSTORE PUSH1 0x24 DUP3 ADD MSTORE PUSH1 0x44 ADD PUSH1 0x20 PUSH1 0x40 MLOAD DUP1 DUP4 SUB DUP2 PUSH0 DUP8 GAS CALL ISZERO DUP1 ISZERO PUSH2 0x2B8C JUMPI RETURNDATASIZE PUSH0 DUP1 RETURNDATACOPY RETURNDATASIZE PUSH0 REVERT JUMPDEST POP POP POP POP PUSH1 0x40 MLOAD RETURNDATASIZE PUSH1 0x1F NOT PUSH1 0x1F DUP3 ADD AND DUP3 ADD DUP1 PUSH1 0x40 MSTORE POP DUP2 ADD SWAP1 PUSH2 0x2BB0 SWAP2 SWAP1 PUSH2 0x3681 JUMP JUMPDEST SWAP1 POP JUMPDEST DUP1 PUSH2 0x2BD0 JUMPI PUSH1 0x40 MLOAD PUSH3 0x461BCD PUSH1 0xE5 SHL DUP2 MSTORE PUSH1 0x4 ADD PUSH2 0x526 SWAP1 PUSH2 0x36A0 JUMP JUMPDEST PUSH32 0xDEEA4C72B502B4BD7DCE3C793E57C46BB32F3B2F66613D54A765E7585F520A2C DUP4 CALLER PUSH1 0xF DUP6 DUP2 SLOAD DUP2 LT PUSH2 0x2C06 JUMPI PUSH2 0x2C06 PUSH2 0x3478 JUMP JUMPDEST SWAP1 PUSH0 MSTORE PUSH1 0x20 PUSH0 KECCAK256 SWAP1 PUSH1 0x8 MUL ADD PUSH1 0x2 ADD PUSH0 SWAP1 SLOAD SWAP1 PUSH2 0x100 EXP SWAP1 DIV PUSH1 0x1 PUSH1 0x1 PUSH1 0xA0 SHL SUB AND PUSH1 0xF DUP7 DUP2 SLOAD DUP2 LT PUSH2 0x2C3B JUMPI PUSH2 0x2C3B PUSH2 0x3478 JUMP JUMPDEST SWAP1 PUSH0 MSTORE PUSH1 0x20 PUSH0 KECCAK256 SWAP1 PUSH1 0x8 MUL ADD PUSH1 0x3 ADD SLOAD PUSH1 0xF DUP8 DUP2 SLOAD DUP2 LT PUSH2 0x2C5E JUMPI PUSH2 0x2C5E PUSH2 0x3478 JUMP JUMPDEST SWAP1 PUSH0 MSTORE PUSH1 0x20 PUSH0 KECCAK256 SWAP1 PUSH1 0x8 MUL ADD PUSH1 0x4 ADD SLOAD PUSH1 0xF DUP9 DUP2 SLOAD DUP2 LT PUSH2 0x2C81 JUMPI PUSH2 0x2C81 PUSH2 0x3478 JUMP JUMPDEST SWAP1 PUSH0 MSTORE PUSH1 0x20 PUSH0 KECCAK256 SWAP1 PUSH1 0x8 MUL ADD PUSH1 0x5 ADD SLOAD PUSH1 0xF DUP10 DUP2 SLOAD DUP2 LT PUSH2 0x2CA4 JUMPI PUSH2 0x2CA4 PUSH2 0x3478 JUMP JUMPDEST SWAP1 PUSH0 MSTORE PUSH1 0x20 PUSH0 KECCAK256 SWAP1 PUSH1 0x8 MUL ADD PUSH1 0x6 ADD SLOAD PUSH1 0x40 MLOAD PUSH2 0x2CC7 SWAP8 SWAP7 SWAP6 SWAP5 SWAP4 SWAP3 SWAP2 SWAP1 PUSH2 0x37A9 JUMP JUMPDEST PUSH1 0x40 MLOAD DUP1 SWAP2 SUB SWAP1 LOG1 CALLER PUSH0 SWAP1 DUP2 MSTORE PUSH1 0xA PUSH1 0x20 MSTORE PUSH1 0x40 SWAP1 KECCAK256 DUP1 SLOAD PUSH1 0xFF NOT AND SWAP1 SSTORE PUSH1 0xF DUP1 SLOAD PUSH2 0x2CF5 SWAP1 PUSH1 0x1 SWAP1 PUSH2 0x36E3 JUMP JUMPDEST DUP2 SLOAD DUP2 LT PUSH2 0x2D05 JUMPI PUSH2 0x2D05 PUSH2 0x3478 JUMP JUMPDEST SWAP1 PUSH0 MSTORE PUSH1 0x20 PUSH0 KECCAK256 SWAP1 PUSH1 0x8 MUL ADD PUSH1 0xF DUP4 DUP2 SLOAD DUP2 LT PUSH2 0x2D24 JUMPI PUSH2 0x2D24 PUSH2 0x3478 JUMP JUMPDEST PUSH0 SWAP2 DUP3 MSTORE PUSH1 0x20 SWAP1 SWAP2 KECCAK256 PUSH1 0x8 SWAP1 SWAP2 MUL ADD DUP1 PUSH2 0x2D3E DUP4 DUP3 PUSH2 0x3808 JUMP JUMPDEST POP PUSH1 0x1 DUP3 DUP2 ADD SLOAD SWAP1 DUP3 ADD DUP1 SLOAD PUSH1 0x1 PUSH1 0x1 PUSH1 0xA0 SHL SUB SWAP3 DUP4 AND PUSH1 0x1 PUSH1 0x1 PUSH1 0xA0 SHL SUB NOT SWAP2 DUP3 AND OR SWAP1 SWAP2 SSTORE PUSH1 0x2 DUP1 DUP6 ADD SLOAD SWAP1 DUP5 ADD DUP1 SLOAD SWAP2 SWAP1 SWAP4 AND SWAP2 AND OR SWAP1 SSTORE PUSH1 0x3 DUP1 DUP4 ADD SLOAD SWAP1 DUP3 ADD SSTORE PUSH1 0x4 DUP1 DUP4 ADD SLOAD SWAP1 DUP3 ADD SSTORE PUSH1 0x5 DUP1 DUP4 ADD SLOAD SWAP1 DUP3 ADD SSTORE PUSH1 0x6 DUP1 DUP4 ADD SLOAD SWAP1 DUP3 ADD SSTORE PUSH1 0x7 DUP1 DUP4 ADD DUP1 SLOAD PUSH2 0x2DB5 SWAP3 DUP5 ADD SWAP2 SWAP1 PUSH2 0x2E82 JUMP JUMPDEST POP SWAP1 POP POP PUSH1 0xF DUP1 SLOAD DUP1 PUSH2 0x2DCA JUMPI PUSH2 0x2DCA PUSH2 0x374D JUMP JUMPDEST PUSH0 DUP3 DUP2 MSTORE PUSH1 0x20 DUP2 KECCAK256 PUSH0 NOT SWAP1 SWAP3 ADD SWAP2 PUSH1 0x8 DUP4 MUL ADD SWAP1 PUSH2 0x2DE8 DUP3 DUP3 PUSH2 0x2ECA JUMP JUMPDEST PUSH1 0x1 DUP3 ADD DUP1 SLOAD PUSH1 0x1 PUSH1 0x1 PUSH1 0xA0 SHL SUB NOT SWAP1 DUP2 AND SWAP1 SWAP2 SSTORE PUSH1 0x2 DUP4 ADD DUP1 SLOAD SWAP1 SWAP2 AND SWAP1 SSTORE PUSH0 PUSH1 0x3 DUP4 ADD DUP2 SWAP1 SSTORE PUSH1 0x4 DUP4 ADD DUP2 SWAP1 SSTORE PUSH1 0x5 DUP4 ADD DUP2 SWAP1 SSTORE PUSH1 0x6 DUP4 ADD DUP2 SWAP1 SSTORE PUSH2 0x2E33 SWAP1 PUSH1 0x7 DUP5 ADD SWAP1 PUSH2 0x2F04 JUMP JUMPDEST POP POP SWAP1 SSTORE POP POP PUSH1 0x8 DUP1 SLOAD PUSH1 0xFF NOT AND SWAP1 SSTORE POP JUMP JUMPDEST PUSH1 0x1 SLOAD PUSH1 0x40 MLOAD PUSH4 0x269AE8B1 PUSH1 0xE0 SHL DUP2 MSTORE PUSH1 0x1 PUSH1 0x1 PUSH1 0xA0 SHL SUB DUP5 DUP2 AND PUSH1 0x4 DUP4 ADD MSTORE DUP4 DUP2 AND PUSH1 0x24 DUP4 ADD MSTORE SWAP1 SWAP2 AND SWAP1 DUP2 SWAP1 PUSH4 0x269AE8B1 SWAP1 PUSH1 0x44 ADD PUSH2 0x282C JUMP JUMPDEST DUP3 DUP1 SLOAD DUP3 DUP3 SSTORE SWAP1 PUSH0 MSTORE PUSH1 0x20 PUSH0 KECCAK256 SWAP1 DUP2 ADD SWAP3 DUP3 ISZERO PUSH2 0x2EBE JUMPI PUSH0 MSTORE PUSH1 0x20 PUSH0 KECCAK256 SWAP2 DUP3 ADD JUMPDEST DUP3 DUP2 GT ISZERO PUSH2 0x2EBE JUMPI DUP3 SLOAD DUP3 SSTORE SWAP2 PUSH1 0x1 ADD SWAP2 SWAP1 PUSH1 0x1 ADD SWAP1 PUSH2 0x2EA3 JUMP JUMPDEST POP PUSH2 0x1024 SWAP3 SWAP2 POP PUSH2 0x2F72 JUMP JUMPDEST POP DUP1 SLOAD PUSH2 0x2ED6 SWAP1 PUSH2 0x342B JUMP JUMPDEST PUSH0 DUP3 SSTORE DUP1 PUSH1 0x1F LT PUSH2 0x2EE5 JUMPI POP POP JUMP JUMPDEST PUSH1 0x1F ADD PUSH1 0x20 SWAP1 DIV SWAP1 PUSH0 MSTORE PUSH1 0x20 PUSH0 KECCAK256 SWAP1 DUP2 ADD SWAP1 PUSH2 0x2F01 SWAP2 SWAP1 PUSH2 0x2F72 JUMP JUMPDEST POP JUMP JUMPDEST POP DUP1 SLOAD PUSH0 DUP3 SSTORE SWAP1 PUSH0 MSTORE PUSH1 0x20 PUSH0 KECCAK256 SWAP1 DUP2 ADD SWAP1 PUSH2 0x2F01 SWAP2 SWAP1 PUSH2 0x2F72 JUMP JUMPDEST DUP3 DUP1 SLOAD DUP3 DUP3 SSTORE SWAP1 PUSH0 MSTORE PUSH1 0x20 PUSH0 KECCAK256 SWAP1 DUP2 ADD SWAP3 DUP3 ISZERO PUSH2 0x2EBE JUMPI SWAP2 PUSH1 0x20 MUL DUP3 ADD JUMPDEST DUP3 DUP2 GT ISZERO PUSH2 0x2EBE JUMPI DUP3 MLOAD DUP3 SLOAD PUSH1 0x1 PUSH1 0x1 PUSH1 0xA0 SHL SUB NOT AND PUSH1 0x1 PUSH1 0x1 PUSH1 0xA0 SHL SUB SWAP1 SWAP2 AND OR DUP3 SSTORE PUSH1 0x20 SWAP1 SWAP3 ADD SWAP2 PUSH1 0x1 SWAP1 SWAP2 ADD SWAP1 PUSH2 0x2F3D JUMP JUMPDEST JUMPDEST DUP1 DUP3 GT ISZERO PUSH2 0x1024 JUMPI PUSH0 DUP2 SSTORE PUSH1 0x1 ADD PUSH2 0x2F73 JUMP JUMPDEST PUSH0 JUMPDEST DUP4 DUP2 LT ISZERO PUSH2 0x2FA0 JUMPI DUP2 DUP2 ADD MLOAD DUP4 DUP3 ADD MSTORE PUSH1 0x20 ADD PUSH2 0x2F88 JUMP JUMPDEST POP POP PUSH0 SWAP2 ADD MSTORE JUMP JUMPDEST PUSH0 DUP2 MLOAD DUP1 DUP5 MSTORE PUSH2 0x2FBF DUP2 PUSH1 0x20 DUP7 ADD PUSH1 0x20 DUP7 ADD PUSH2 0x2F86 JUMP JUMPDEST PUSH1 0x1F ADD PUSH1 0x1F NOT AND SWAP3 SWAP1 SWAP3 ADD PUSH1 0x20 ADD SWAP3 SWAP2 POP POP JUMP JUMPDEST PUSH0 PUSH1 0x20 DUP1 DUP4 ADD PUSH1 0x20 DUP5 MSTORE DUP1 DUP6 MLOAD DUP1 DUP4 MSTORE PUSH1 0x40 DUP7 ADD SWAP2 POP PUSH1 0x40 DUP2 PUSH1 0x5 SHL DUP8 ADD ADD SWAP3 POP PUSH1 0x20 DUP8 ADD PUSH0 JUMPDEST DUP3 DUP2 LT ISZERO PUSH2 0x3028 JUMPI PUSH1 0x3F NOT DUP9 DUP7 SUB ADD DUP5 MSTORE PUSH2 0x3016 DUP6 DUP4 MLOAD PUSH2 0x2FA8 JUMP JUMPDEST SWAP5 POP SWAP3 DUP6 ADD SWAP3 SWAP1 DUP6 ADD SWAP1 PUSH1 0x1 ADD PUSH2 0x2FFA JUMP JUMPDEST POP SWAP3 SWAP8 SWAP7 POP POP POP POP POP POP POP JUMP JUMPDEST PUSH4 0x4E487B71 PUSH1 0xE0 SHL PUSH0 MSTORE PUSH1 0x41 PUSH1 0x4 MSTORE PUSH1 0x24 PUSH0 REVERT JUMPDEST PUSH1 0x40 MLOAD PUSH1 0x1F DUP3 ADD PUSH1 0x1F NOT AND DUP2 ADD PUSH8 0xFFFFFFFFFFFFFFFF DUP2 GT DUP3 DUP3 LT OR ISZERO PUSH2 0x3072 JUMPI PUSH2 0x3072 PUSH2 0x3035 JUMP JUMPDEST PUSH1 0x40 MSTORE SWAP2 SWAP1 POP JUMP JUMPDEST PUSH0 PUSH8 0xFFFFFFFFFFFFFFFF DUP3 GT ISZERO PUSH2 0x3093 JUMPI PUSH2 0x3093 PUSH2 0x3035 JUMP JUMPDEST POP PUSH1 0x1F ADD PUSH1 0x1F NOT AND PUSH1 0x20 ADD SWAP1 JUMP JUMPDEST PUSH0 DUP3 PUSH1 0x1F DUP4 ADD SLT PUSH2 0x30B0 JUMPI PUSH0 DUP1 REVERT JUMPDEST DUP2 CALLDATALOAD PUSH2 0x30C3 PUSH2 0x30BE DUP3 PUSH2 0x307A JUMP JUMPDEST PUSH2 0x3049 JUMP JUMPDEST DUP2 DUP2 MSTORE DUP5 PUSH1 0x20 DUP4 DUP7 ADD ADD GT ISZERO PUSH2 0x30D7 JUMPI PUSH0 DUP1 REVERT JUMPDEST DUP2 PUSH1 0x20 DUP6 ADD PUSH1 0x20 DUP4 ADD CALLDATACOPY PUSH0 SWAP2 DUP2 ADD PUSH1 0x20 ADD SWAP2 SWAP1 SWAP2 MSTORE SWAP4 SWAP3 POP POP POP JUMP JUMPDEST PUSH0 PUSH1 0x20 DUP3 DUP5 SUB SLT ISZERO PUSH2 0x3103 JUMPI PUSH0 DUP1 REVERT JUMPDEST DUP2 CALLDATALOAD PUSH8 0xFFFFFFFFFFFFFFFF DUP2 GT ISZERO PUSH2 0x3119 JUMPI PUSH0 DUP1 REVERT JUMPDEST PUSH2 0x3125 DUP5 DUP3 DUP6 ADD PUSH2 0x30A1 JUMP JUMPDEST SWAP5 SWAP4 POP POP POP POP JUMP JUMPDEST PUSH1 0x1 PUSH1 0x1 PUSH1 0xA0 SHL SUB DUP2 AND DUP2 EQ PUSH2 0x2F01 JUMPI PUSH0 DUP1 REVERT JUMPDEST PUSH0 DUP1 PUSH0 PUSH1 0x60 DUP5 DUP7 SUB SLT ISZERO PUSH2 0x3153 JUMPI PUSH0 DUP1 REVERT JUMPDEST DUP4 CALLDATALOAD PUSH2 0x315E DUP2 PUSH2 0x312D JUMP JUMPDEST SWAP3 POP PUSH1 0x20 DUP5 ADD CALLDATALOAD PUSH2 0x316E DUP2 PUSH2 0x312D JUMP JUMPDEST SWAP2 POP PUSH1 0x40 DUP5 ADD CALLDATALOAD PUSH2 0x317E DUP2 PUSH2 0x312D JUMP JUMPDEST DUP1 SWAP2 POP POP SWAP3 POP SWAP3 POP SWAP3 JUMP JUMPDEST PUSH0 DUP1 PUSH1 0x40 DUP4 DUP6 SUB SLT ISZERO PUSH2 0x319A JUMPI PUSH0 DUP1 REVERT JUMPDEST DUP3 CALLDATALOAD PUSH8 0xFFFFFFFFFFFFFFFF DUP2 GT ISZERO PUSH2 0x31B0 JUMPI PUSH0 DUP1 REVERT JUMPDEST PUSH2 0x31BC DUP6 DUP3 DUP7 ADD PUSH2 0x30A1 JUMP JUMPDEST SWAP6 PUSH1 0x20 SWAP5 SWAP1 SWAP5 ADD CALLDATALOAD SWAP5 POP POP POP POP JUMP JUMPDEST PUSH0 PUSH1 0x20 DUP3 DUP5 SUB SLT ISZERO PUSH2 0x31DB JUMPI PUSH0 DUP1 REVERT JUMPDEST DUP2 CALLDATALOAD PUSH2 0x31E6 DUP2 PUSH2 0x312D JUMP JUMPDEST SWAP4 SWAP3 POP POP POP JUMP JUMPDEST PUSH1 0x20 DUP1 DUP3 MSTORE DUP3 MLOAD DUP3 DUP3 ADD DUP2 SWAP1 MSTORE PUSH0 SWAP2 SWAP1 DUP5 DUP3 ADD SWAP1 PUSH1 0x40 DUP6 ADD SWAP1 DUP5 JUMPDEST DUP2 DUP2 LT ISZERO PUSH2 0x322D JUMPI DUP4 MLOAD PUSH1 0x1 PUSH1 0x1 PUSH1 0xA0 SHL SUB AND DUP4 MSTORE SWAP3 DUP5 ADD SWAP3 SWAP2 DUP5 ADD SWAP2 PUSH1 0x1 ADD PUSH2 0x3208 JUMP JUMPDEST POP SWAP1 SWAP7 SWAP6 POP POP POP POP POP POP JUMP JUMPDEST PUSH0 DUP2 MLOAD DUP1 DUP5 MSTORE PUSH1 0x20 DUP1 DUP6 ADD SWAP5 POP PUSH1 0x20 DUP5 ADD PUSH0 JUMPDEST DUP4 DUP2 LT ISZERO PUSH2 0x3271 JUMPI DUP2 MLOAD PUSH1 0x1 PUSH1 0x1 PUSH1 0xA0 SHL SUB AND DUP8 MSTORE SWAP6 DUP3 ADD SWAP6 SWAP1 DUP3 ADD SWAP1 PUSH1 0x1 ADD PUSH2 0x324C JUMP JUMPDEST POP SWAP5 SWAP6 SWAP5 POP POP POP POP POP JUMP JUMPDEST PUSH0 PUSH1 0x20 DUP1 DUP4 ADD DUP2 DUP5 MSTORE DUP1 DUP6 MLOAD DUP1 DUP4 MSTORE PUSH1 0x40 SWAP3 POP PUSH1 0x40 DUP7 ADD SWAP2 POP PUSH1 0x40 DUP2 PUSH1 0x5 SHL DUP8 ADD ADD DUP5 DUP9 ADD PUSH0 JUMPDEST DUP4 DUP2 LT ISZERO PUSH2 0x334F JUMPI PUSH1 0x3F NOT DUP10 DUP5 SUB ADD DUP6 MSTORE DUP2 MLOAD PUSH2 0x100 DUP2 MLOAD DUP2 DUP7 MSTORE PUSH2 0x32CA DUP3 DUP8 ADD DUP3 PUSH2 0x2FA8 JUMP JUMPDEST DUP4 DUP12 ADD MLOAD PUSH1 0x1 PUSH1 0x1 PUSH1 0xA0 SHL SUB AND DUP8 DUP13 ADD MSTORE DUP10 DUP5 ADD MLOAD SWAP1 SWAP3 POP SWAP1 POP PUSH2 0x32F8 DUP10 DUP8 ADD DUP3 PUSH1 0x1 PUSH1 0x1 PUSH1 0xA0 SHL SUB AND SWAP1 MSTORE JUMP JUMPDEST POP PUSH1 0x60 DUP3 DUP2 ADD MLOAD SWAP1 DUP7 ADD MSTORE PUSH1 0x80 DUP1 DUP4 ADD MLOAD SWAP1 DUP7 ADD MSTORE PUSH1 0xA0 DUP1 DUP4 ADD MLOAD SWAP1 DUP7 ADD MSTORE PUSH1 0xC0 DUP1 DUP4 ADD MLOAD SWAP1 DUP7 ADD MSTORE PUSH1 0xE0 SWAP2 DUP3 ADD MLOAD DUP6 DUP3 SUB SWAP3 DUP7 ADD SWAP3 SWAP1 SWAP3 MSTORE PUSH2 0x333B DUP2 DUP4 PUSH2 0x3239 JUMP JUMPDEST SWAP7 DUP10 ADD SWAP7 SWAP5 POP POP POP SWAP1 DUP7 ADD SWAP1 PUSH1 0x1 ADD PUSH2 0x32A3 JUMP JUMPDEST POP SWAP1 SWAP9 SWAP8 POP POP POP POP POP POP POP POP JUMP JUMPDEST PUSH0 PUSH1 0x20 DUP3 DUP5 SUB SLT ISZERO PUSH2 0x336D JUMPI PUSH0 DUP1 REVERT JUMPDEST POP CALLDATALOAD SWAP2 SWAP1 POP JUMP JUMPDEST PUSH0 DUP1 PUSH1 0x40 DUP4 DUP6 SUB SLT ISZERO PUSH2 0x3385 JUMPI PUSH0 DUP1 REVERT JUMPDEST DUP3 CALLDATALOAD PUSH8 0xFFFFFFFFFFFFFFFF DUP2 GT ISZERO PUSH2 0x339B JUMPI PUSH0 DUP1 REVERT JUMPDEST PUSH2 0x33A7 DUP6 DUP3 DUP7 ADD PUSH2 0x30A1 JUMP JUMPDEST SWAP3 POP POP PUSH1 0x20 DUP4 ADD CALLDATALOAD PUSH2 0x33B8 DUP2 PUSH2 0x312D JUMP JUMPDEST DUP1 SWAP2 POP POP SWAP3 POP SWAP3 SWAP1 POP JUMP JUMPDEST PUSH0 DUP1 PUSH0 PUSH1 0x60 DUP5 DUP7 SUB SLT ISZERO PUSH2 0x33D5 JUMPI PUSH0 DUP1 REVERT JUMPDEST DUP4 CALLDATALOAD PUSH8 0xFFFFFFFFFFFFFFFF DUP2 GT ISZERO PUSH2 0x33EB JUMPI PUSH0 DUP1 REVERT JUMPDEST PUSH2 0x33F7 DUP7 DUP3 DUP8 ADD PUSH2 0x30A1 JUMP JUMPDEST SWAP4 POP POP PUSH1 0x20 DUP5 ADD CALLDATALOAD PUSH2 0x3408 DUP2 PUSH2 0x312D JUMP JUMPDEST SWAP3 SWAP6 SWAP3 SWAP5 POP POP POP PUSH1 0x40 SWAP2 SWAP1 SWAP2 ADD CALLDATALOAD SWAP1 JUMP JUMPDEST PUSH1 0x20 DUP2 MSTORE PUSH0 PUSH2 0x31E6 PUSH1 0x20 DUP4 ADD DUP5 PUSH2 0x2FA8 JUMP JUMPDEST PUSH1 0x1 DUP2 DUP2 SHR SWAP1 DUP3 AND DUP1 PUSH2 0x343F JUMPI PUSH1 0x7F DUP3 AND SWAP2 POP JUMPDEST PUSH1 0x20 DUP3 LT DUP2 SUB PUSH2 0x1E09 JUMPI PUSH4 0x4E487B71 PUSH1 0xE0 SHL PUSH0 MSTORE PUSH1 0x22 PUSH1 0x4 MSTORE PUSH1 0x24 PUSH0 REVERT JUMPDEST PUSH0 DUP3 MLOAD PUSH2 0x346E DUP2 DUP5 PUSH1 0x20 DUP8 ADD PUSH2 0x2F86 JUMP JUMPDEST SWAP2 SWAP1 SWAP2 ADD SWAP3 SWAP2 POP POP JUMP JUMPDEST PUSH4 0x4E487B71 PUSH1 0xE0 SHL PUSH0 MSTORE PUSH1 0x32 PUSH1 0x4 MSTORE PUSH1 0x24 PUSH0 REVERT JUMPDEST PUSH1 0x20 DUP1 DUP3 MSTORE PUSH1 0x34 SWAP1 DUP3 ADD MSTORE PUSH32 0x68616E79612077616C6C6574206F776E6572732079616E672062697361206D65 PUSH1 0x40 DUP3 ADD MSTORE PUSH20 0x6D616E6767696C2066756E6374696F6E20696E69 PUSH1 0x60 SHL PUSH1 0x60 DUP3 ADD MSTORE PUSH1 0x80 ADD SWAP1 JUMP JUMPDEST PUSH1 0x20 DUP1 DUP3 MSTORE PUSH1 0x18 SWAP1 DUP3 ADD MSTORE PUSH32 0x5265656E7472616E63792067756172643A206C6F636B65640000000000000000 PUSH1 0x40 DUP3 ADD MSTORE PUSH1 0x60 ADD SWAP1 JUMP JUMPDEST PUSH1 0x20 DUP1 DUP3 MSTORE PUSH1 0x19 SWAP1 DUP3 ADD MSTORE PUSH32 0x70726F73657320736564616E67206265726C616E6773756E6700000000000000 PUSH1 0x40 DUP3 ADD MSTORE PUSH1 0x60 ADD SWAP1 JUMP JUMPDEST PUSH1 0x1F DUP3 GT ISZERO PUSH2 0x3592 JUMPI DUP1 PUSH0 MSTORE PUSH1 0x20 PUSH0 KECCAK256 PUSH1 0x1F DUP5 ADD PUSH1 0x5 SHR DUP2 ADD PUSH1 0x20 DUP6 LT ISZERO PUSH2 0x3573 JUMPI POP DUP1 JUMPDEST PUSH1 0x1F DUP5 ADD PUSH1 0x5 SHR DUP3 ADD SWAP2 POP JUMPDEST DUP2 DUP2 LT ISZERO PUSH2 0xF9F JUMPI PUSH0 DUP2 SSTORE PUSH1 0x1 ADD PUSH2 0x357F JUMP JUMPDEST POP POP POP JUMP JUMPDEST DUP2 MLOAD PUSH8 0xFFFFFFFFFFFFFFFF DUP2 GT ISZERO PUSH2 0x35B1 JUMPI PUSH2 0x35B1 PUSH2 0x3035 JUMP JUMPDEST PUSH2 0x35C5 DUP2 PUSH2 0x35BF DUP5 SLOAD PUSH2 0x342B JUMP JUMPDEST DUP5 PUSH2 0x354E JUMP JUMPDEST PUSH1 0x20 DUP1 PUSH1 0x1F DUP4 GT PUSH1 0x1 DUP2 EQ PUSH2 0x35F8 JUMPI PUSH0 DUP5 ISZERO PUSH2 0x35E1 JUMPI POP DUP6 DUP4 ADD MLOAD JUMPDEST PUSH0 NOT PUSH1 0x3 DUP7 SWAP1 SHL SHR NOT AND PUSH1 0x1 DUP6 SWAP1 SHL OR DUP6 SSTORE PUSH2 0xB6D JUMP JUMPDEST PUSH0 DUP6 DUP2 MSTORE PUSH1 0x20 DUP2 KECCAK256 PUSH1 0x1F NOT DUP7 AND SWAP2 JUMPDEST DUP3 DUP2 LT ISZERO PUSH2 0x3626 JUMPI DUP9 DUP7 ADD MLOAD DUP3 SSTORE SWAP5 DUP5 ADD SWAP5 PUSH1 0x1 SWAP1 SWAP2 ADD SWAP1 DUP5 ADD PUSH2 0x3607 JUMP JUMPDEST POP DUP6 DUP3 LT ISZERO PUSH2 0x3643 JUMPI DUP8 DUP6 ADD MLOAD PUSH0 NOT PUSH1 0x3 DUP9 SWAP1 SHL PUSH1 0xF8 AND SHR NOT AND DUP2 SSTORE JUMPDEST POP POP POP POP POP PUSH1 0x1 SWAP1 DUP2 SHL ADD SWAP1 SSTORE POP JUMP JUMPDEST PUSH1 0x20 DUP1 DUP3 MSTORE PUSH1 0x14 SWAP1 DUP3 ADD MSTORE PUSH20 0x746F6B656E20746964616B207465727365646961 PUSH1 0x60 SHL PUSH1 0x40 DUP3 ADD MSTORE PUSH1 0x60 ADD SWAP1 JUMP JUMPDEST PUSH0 PUSH1 0x20 DUP3 DUP5 SUB SLT ISZERO PUSH2 0x3691 JUMPI PUSH0 DUP1 REVERT JUMPDEST DUP2 MLOAD DUP1 ISZERO ISZERO DUP2 EQ PUSH2 0x31E6 JUMPI PUSH0 DUP1 REVERT JUMPDEST PUSH1 0x20 DUP1 DUP3 MSTORE PUSH1 0x15 SWAP1 DUP3 ADD MSTORE PUSH21 0x115490CC8C081D1C985B9CD9995C8819985A5B1959 PUSH1 0x5A SHL PUSH1 0x40 DUP3 ADD MSTORE PUSH1 0x60 ADD SWAP1 JUMP JUMPDEST PUSH4 0x4E487B71 PUSH1 0xE0 SHL PUSH0 MSTORE PUSH1 0x11 PUSH1 0x4 MSTORE PUSH1 0x24 PUSH0 REVERT JUMPDEST DUP2 DUP2 SUB DUP2 DUP2 GT ISZERO PUSH2 0x28B3 JUMPI PUSH2 0x28B3 PUSH2 0x36CF JUMP JUMPDEST PUSH1 0xA0 DUP2 MSTORE PUSH0 PUSH2 0x3708 PUSH1 0xA0 DUP4 ADD DUP9 PUSH2 0x2FA8 JUMP JUMPDEST PUSH1 0x1 PUSH1 0x1 PUSH1 0xA0 SHL SUB SWAP7 SWAP1 SWAP7 AND PUSH1 0x20 DUP4 ADD MSTORE POP PUSH1 0x40 DUP2 ADD SWAP4 SWAP1 SWAP4 MSTORE PUSH1 0x60 DUP4 ADD SWAP2 SWAP1 SWAP2 MSTORE PUSH1 0x80 SWAP1 SWAP2 ADD MSTORE SWAP2 SWAP1 POP JUMP JUMPDEST PUSH0 PUSH1 0x1 DUP3 ADD PUSH2 0x3746 JUMPI PUSH2 0x3746 PUSH2 0x36CF JUMP JUMPDEST POP PUSH1 0x1 ADD SWAP1 JUMP JUMPDEST PUSH4 0x4E487B71 PUSH1 0xE0 SHL PUSH0 MSTORE PUSH1 0x31 PUSH1 0x4 MSTORE PUSH1 0x24 PUSH0 REVERT JUMPDEST PUSH1 0x20 DUP1 DUP3 MSTORE PUSH1 0x28 SWAP1 DUP3 ADD MSTORE PUSH32 0x68616E7961207472616E736665722063726561746F722079616E672064617061 PUSH1 0x40 DUP3 ADD MSTORE PUSH8 0x1D0818D85B98D95B PUSH1 0xC2 SHL PUSH1 0x60 DUP3 ADD MSTORE PUSH1 0x80 ADD SWAP1 JUMP JUMPDEST PUSH1 0xE0 DUP2 MSTORE PUSH0 PUSH2 0x37BB PUSH1 0xE0 DUP4 ADD DUP11 PUSH2 0x2FA8 JUMP JUMPDEST PUSH1 0x1 PUSH1 0x1 PUSH1 0xA0 SHL SUB SWAP9 DUP10 AND PUSH1 0x20 DUP5 ADD MSTORE SWAP7 SWAP1 SWAP8 AND PUSH1 0x40 DUP3 ADD MSTORE PUSH1 0x60 DUP2 ADD SWAP5 SWAP1 SWAP5 MSTORE PUSH1 0x80 DUP5 ADD SWAP3 SWAP1 SWAP3 MSTORE PUSH1 0xA0 DUP4 ADD MSTORE PUSH1 0xC0 SWAP1 SWAP2 ADD MSTORE SWAP3 SWAP2 POP POP JUMP JUMPDEST DUP1 DUP3 ADD DUP1 DUP3 GT ISZERO PUSH2 0x28B3 JUMPI PUSH2 0x28B3 PUSH2 0x36CF JUMP JUMPDEST DUP2 DUP2 SUB PUSH2 0x3813 JUMPI POP POP JUMP JUMPDEST PUSH2 0x381D DUP3 SLOAD PUSH2 0x342B JUMP JUMPDEST PUSH8 0xFFFFFFFFFFFFFFFF DUP2 GT ISZERO PUSH2 0x3835 JUMPI PUSH2 0x3835 PUSH2 0x3035 JUMP JUMPDEST PUSH2 0x3843 DUP2 PUSH2 0x35BF DUP5 SLOAD PUSH2 0x342B JUMP JUMPDEST PUSH0 PUSH1 0x1F DUP3 GT PUSH1 0x1 DUP2 EQ PUSH2 0x3874 JUMPI PUSH0 DUP4 ISZERO PUSH2 0x385D JUMPI POP DUP5 DUP3 ADD SLOAD JUMPDEST PUSH0 NOT PUSH1 0x3 DUP6 SWAP1 SHL SHR NOT AND PUSH1 0x1 DUP5 SWAP1 SHL OR DUP5 SSTORE PUSH2 0xF9F JUMP JUMPDEST PUSH0 DUP6 DUP2 MSTORE PUSH1 0x20 DUP1 DUP3 KECCAK256 DUP7 DUP4 MSTORE SWAP1 DUP3 KECCAK256 PUSH1 0x1F NOT DUP7 AND SWAP3 JUMPDEST DUP4 DUP2 LT ISZERO PUSH2 0x38AA JUMPI DUP3 DUP7 ADD SLOAD DUP3 SSTORE PUSH1 0x1 SWAP6 DUP7 ADD SWAP6 SWAP1 SWAP2 ADD SWAP1 PUSH1 0x20 ADD PUSH2 0x388A JUMP JUMPDEST POP DUP6 DUP4 LT ISZERO PUSH2 0x3643 JUMPI SWAP4 ADD SLOAD PUSH0 NOT PUSH1 0xF8 PUSH1 0x3 DUP8 SWAP1 SHL AND SHR NOT AND SWAP1 SWAP3 SSTORE POP POP PUSH1 0x1 SWAP1 DUP2 SHL ADD SWAP1 SSTORE POP JUMP JUMPDEST PUSH0 DUP1 DUP4 SLOAD PUSH2 0x38E0 DUP2 PUSH2 0x342B JUMP JUMPDEST PUSH1 0x1 DUP3 DUP2 AND DUP1 ISZERO PUSH2 0x38F8 JUMPI PUSH1 0x1 DUP2 EQ PUSH2 0x390D JUMPI PUSH2 0x3939 JUMP JUMPDEST PUSH1 0xFF NOT DUP5 AND DUP8 MSTORE DUP3 ISZERO ISZERO DUP4 MUL DUP8 ADD SWAP5 POP PUSH2 0x3939 JUMP JUMPDEST DUP8 PUSH0 MSTORE PUSH1 0x20 DUP1 PUSH0 KECCAK256 PUSH0 JUMPDEST DUP6 DUP2 LT ISZERO PUSH2 0x3930 JUMPI DUP2 SLOAD DUP11 DUP3 ADD MSTORE SWAP1 DUP5 ADD SWAP1 DUP3 ADD PUSH2 0x3917 JUMP JUMPDEST POP POP POP DUP3 DUP8 ADD SWAP5 POP JUMPDEST POP SWAP3 SWAP7 SWAP6 POP POP POP POP POP POP JUMP JUMPDEST PUSH0 PUSH1 0x20 DUP3 DUP5 SUB SLT ISZERO PUSH2 0x3955 JUMPI PUSH0 DUP1 REVERT JUMPDEST DUP2 MLOAD PUSH8 0xFFFFFFFFFFFFFFFF DUP2 GT ISZERO PUSH2 0x396B JUMPI PUSH0 DUP1 REVERT JUMPDEST DUP3 ADD PUSH1 0x1F DUP2 ADD DUP5 SGT PUSH2 0x397B JUMPI PUSH0 DUP1 REVERT JUMPDEST DUP1 MLOAD PUSH2 0x3989 PUSH2 0x30BE DUP3 PUSH2 0x307A JUMP JUMPDEST DUP2 DUP2 MSTORE DUP6 PUSH1 0x20 DUP4 DUP6 ADD ADD GT ISZERO PUSH2 0x399D JUMPI PUSH0 DUP1 REVERT JUMPDEST PUSH2 0x39AE DUP3 PUSH1 0x20 DUP4 ADD PUSH1 0x20 DUP7 ADD PUSH2 0x2F86 JUMP JUMPDEST SWAP6 SWAP5 POP POP POP POP POP JUMP JUMPDEST PUSH0 PUSH1 0x1 DUP1 PUSH1 0xA0 SHL SUB DUP1 DUP8 AND DUP4 MSTORE PUSH1 0x80 PUSH1 0x20 DUP5 ADD MSTORE PUSH2 0x39D8 PUSH1 0x80 DUP5 ADD DUP8 PUSH2 0x2FA8 JUMP JUMPDEST SWAP5 AND PUSH1 0x40 DUP4 ADD MSTORE POP PUSH1 0x60 ADD MSTORE SWAP3 SWAP2 POP POP JUMP INVALID LOG2 PUSH5 0x6970667358 0x22 SLT KECCAK256 0xCD PUSH5 0xDAF511D588 0xBB 0xCD 0xE4 CHAINID 0xCD BLOBHASH CALLER 0x2F 0xDD 0xEC KECCAK256 0xC SWAP12 CALLER PUSH6 0xFC7F7F26A1D4 PUSH5 0xE4DEF06473 PUSH16 0x6C634300081800330000000000000000 "
		},
		"gasEstimates": {
			"creation": {
				"codeDepositCost": "2976000",
				"executionCost": "infinite",
				"totalCost": "infinite"
			},
			"external": {
				"addToken(string,address)": "infinite",
				"addWalletOwner(address,address,address)": "infinite",
				"approveTransferRequest(string,uint256)": "infinite",
				"balancesToWithdraw(address)": "2620",
				"cancelTransferRequest(string,uint256)": "infinite",
				"createTransferRequest(string,address,uint256)": "infinite",
				"deposit(string,uint256)": "infinite",
				"getApprovalLimit()": "infinite",
				"getApprovals(uint256)": "infinite",
				"getBalance(string)": "infinite",
				"getContractBalance()": "260",
				"getTokenList()": "infinite",
				"getTransferRequests()": "infinite",
				"getWalletOwners()": "infinite",
				"initiateWithdrawal(string,uint256)": "infinite",
				"removeWalletOwner(address,address,address)": "infinite",
				"threshold()": "2406",
				"tickerToWithdraw(address)": "infinite",
				"withdraw()": "infinite",
				"withdrawalInProcess(address)": "2567"
			},
			"internal": {
				"callAddOwner(address,address)": "infinite",
				"callRemoveOwner(address,address)": "infinite",
				"isApprover(address,address[] memory)": "infinite",
				"setMultisigContractAdress(address)": "24278",
				"transferFunds(string memory,uint256)": "infinite"
			}
		},
		"methodIdentifiers": {
			"addToken(string,address)": "b0b22c2c",
			"addWalletOwner(address,address,address)": "8f031443",
			"approveTransferRequest(string,uint256)": "4e67d1d6",
			"balancesToWithdraw(address)": "e6c1e137",
			"cancelTransferRequest(string,uint256)": "80735a5a",
			"createTransferRequest(string,address,uint256)": "ce3b3e88",
			"deposit(string,uint256)": "8e27d719",
			"getApprovalLimit()": "7278a1fa",
			"getApprovals(uint256)": "a4e360c8",
			"getBalance(string)": "3a51d246",
			"getContractBalance()": "6f9fb98a",
			"getTokenList()": "273cbaa0",
			"getTransferRequests()": "a04ef145",
			"getWalletOwners()": "8a94d416",
			"initiateWithdrawal(string,uint256)": "a7fbd80d",
			"removeWalletOwner(address,address,address)": "4071e6d9",
			"threshold()": "42cde4e8",
			"tickerToWithdraw(address)": "d2381c73",
			"withdraw()": "3ccfd60b",
			"withdrawalInProcess(address)": "6edb0503"
		}
	},
	"abi": [
		{
			"inputs": [],
			"stateMutability": "nonpayable",
			"type": "constructor"
		},
		{
			"anonymous": false,
			"inputs": [
				{
					"indexed": false,
					"internalType": "string",
					"name": "ticker",
					"type": "string"
				},
				{
					"indexed": false,
					"internalType": "address",
					"name": "sender",
					"type": "address"
				},
				{
					"indexed": false,
					"internalType": "uint256",
					"name": "amount",
					"type": "uint256"
				},
				{
					"indexed": false,
					"internalType": "uint256",
					"name": "depositId",
					"type": "uint256"
				},
				{
					"indexed": false,
					"internalType": "uint256",
					"name": "timeOfTransaction",
					"type": "uint256"
				}
			],
			"name": "fundsDeposited",
			"type": "event"
		},
		{
			"anonymous": false,
			"inputs": [
				{
					"indexed": false,
					"internalType": "string",
					"name": "ticker",
					"type": "string"
				},
				{
					"indexed": false,
					"internalType": "address",
					"name": "sender",
					"type": "address"
				},
				{
					"indexed": false,
					"internalType": "address",
					"name": "receiver",
					"type": "address"
				},
				{
					"indexed": false,
					"internalType": "uint256",
					"name": "amount",
					"type": "uint256"
				},
				{
					"indexed": false,
					"internalType": "uint256",
					"name": "id",
					"type": "uint256"
				},
				{
					"indexed": false,
					"internalType": "uint256",
					"name": "approvals",
					"type": "uint256"
				},
				{
					"indexed": false,
					"internalType": "uint256",
					"name": "timeOfTransaction",
					"type": "uint256"
				}
			],
			"name": "fundsTransfered",
			"type": "event"
		},
		{
			"anonymous": false,
			"inputs": [
				{
					"indexed": false,
					"internalType": "string",
					"name": "ticker",
					"type": "string"
				},
				{
					"indexed": false,
					"internalType": "address",
					"name": "sender",
					"type": "address"
				},
				{
					"indexed": false,
					"internalType": "uint256",
					"name": "amount",
					"type": "uint256"
				},
				{
					"indexed": false,
					"internalType": "uint256",
					"name": "withdrawalId",
					"type": "uint256"
				},
				{
					"indexed": false,
					"internalType": "uint256",
					"name": "timeOfTransaction",
					"type": "uint256"
				}
			],
			"name": "fundsWithdrawed",
			"type": "event"
		},
		{
			"anonymous": false,
			"inputs": [
				{
					"indexed": false,
					"internalType": "address",
					"name": "addedBy",
					"type": "address"
				},
				{
					"indexed": false,
					"internalType": "string",
					"name": "ticker",
					"type": "string"
				},
				{
					"indexed": false,
					"internalType": "address",
					"name": "tokenAddress",
					"type": "address"
				},
				{
					"indexed": false,
					"internalType": "uint256",
					"name": "timeOfTransaction",
					"type": "uint256"
				}
			],
			"name": "tokenAdded",
			"type": "event"
		},
		{
			"anonymous": false,
			"inputs": [
				{
					"indexed": false,
					"internalType": "string",
					"name": "ticker",
					"type": "string"
				},
				{
					"indexed": false,
					"internalType": "address",
					"name": "sender",
					"type": "address"
				},
				{
					"indexed": false,
					"internalType": "address",
					"name": "receiver",
					"type": "address"
				},
				{
					"indexed": false,
					"internalType": "uint256",
					"name": "amount",
					"type": "uint256"
				},
				{
					"indexed": false,
					"internalType": "uint256",
					"name": "id",
					"type": "uint256"
				},
				{
					"indexed": false,
					"internalType": "uint256",
					"name": "approvals",
					"type": "uint256"
				},
				{
					"indexed": false,
					"internalType": "uint256",
					"name": "timeOfTransaction",
					"type": "uint256"
				}
			],
			"name": "transferApproved",
			"type": "event"
		},
		{
			"anonymous": false,
			"inputs": [
				{
					"indexed": false,
					"internalType": "string",
					"name": "ticker",
					"type": "string"
				},
				{
					"indexed": false,
					"internalType": "address",
					"name": "sender",
					"type": "address"
				},
				{
					"indexed": false,
					"internalType": "address",
					"name": "receiver",
					"type": "address"
				},
				{
					"indexed": false,
					"internalType": "uint256",
					"name": "amount",
					"type": "uint256"
				},
				{
					"indexed": false,
					"internalType": "uint256",
					"name": "id",
					"type": "uint256"
				},
				{
					"indexed": false,
					"internalType": "uint256",
					"name": "approvals",
					"type": "uint256"
				},
				{
					"indexed": false,
					"internalType": "uint256",
					"name": "timeOfTransaction",
					"type": "uint256"
				}
			],
			"name": "transferCancelled",
			"type": "event"
		},
		{
			"anonymous": false,
			"inputs": [
				{
					"indexed": false,
					"internalType": "string",
					"name": "ticker",
					"type": "string"
				},
				{
					"indexed": false,
					"internalType": "address",
					"name": "sender",
					"type": "address"
				},
				{
					"indexed": false,
					"internalType": "address",
					"name": "receiver",
					"type": "address"
				},
				{
					"indexed": false,
					"internalType": "uint256",
					"name": "amount",
					"type": "uint256"
				},
				{
					"indexed": false,
					"internalType": "uint256",
					"name": "id",
					"type": "uint256"
				},
				{
					"indexed": false,
					"internalType": "uint256",
					"name": "approvals",
					"type": "uint256"
				},
				{
					"indexed": false,
					"internalType": "uint256",
					"name": "timeOfTransaction",
					"type": "uint256"
				}
			],
			"name": "transferCreated",
			"type": "event"
		},
		{
			"anonymous": false,
			"inputs": [
				{
					"indexed": false,
					"internalType": "address",
					"name": "addedBy",
					"type": "address"
				},
				{
					"indexed": false,
					"internalType": "address",
					"name": "ownerAdded",
					"type": "address"
				},
				{
					"indexed": false,
					"internalType": "uint256",
					"name": "timeOfTransaction",
					"type": "uint256"
				}
			],
			"name": "walletOwnerAdded",
			"type": "event"
		},
		{
			"anonymous": false,
			"inputs": [
				{
					"indexed": false,
					"internalType": "address",
					"name": "removedBy",
					"type": "address"
				},
				{
					"indexed": false,
					"internalType": "address",
					"name": "ownerRemoved",
					"type": "address"
				},
				{
					"indexed": false,
					"internalType": "uint256",
					"name": "timeOfTransaction",
					"type": "uint256"
				}
			],
			"name": "walletOwnerRemoved",
			"type": "event"
		},
		{
			"inputs": [
				{
					"internalType": "string",
					"name": "ticker",
					"type": "string"
				},
				{
					"internalType": "address",
					"name": "_tokenAddress",
					"type": "address"
				}
			],
			"name": "addToken",
			"outputs": [],
			"stateMutability": "nonpayable",
			"type": "function"
		},
		{
			"inputs": [
				{
					"internalType": "address",
					"name": "owner",
					"type": "address"
				},
				{
					"internalType": "address",
					"name": "walletAddress",
					"type": "address"
				},
				{
					"internalType": "address",
					"name": "_address",
					"type": "address"
				}
			],
			"name": "addWalletOwner",
			"outputs": [],
			"stateMutability": "nonpayable",
			"type": "function"
		},
		{
			"inputs": [
				{
					"internalType": "string",
					"name": "ticker",
					"type": "string"
				},
				{
					"internalType": "uint256",
					"name": "id",
					"type": "uint256"
				}
			],
			"name": "approveTransferRequest",
			"outputs": [],
			"stateMutability": "nonpayable",
			"type": "function"
		},
		{
			"inputs": [
				{
					"internalType": "address",
					"name": "",
					"type": "address"
				}
			],
			"name": "balancesToWithdraw",
			"outputs": [
				{
					"internalType": "uint256",
					"name": "",
					"type": "uint256"
				}
			],
			"stateMutability": "view",
			"type": "function"
		},
		{
			"inputs": [
				{
					"internalType": "string",
					"name": "ticker",
					"type": "string"
				},
				{
					"internalType": "uint256",
					"name": "id",
					"type": "uint256"
				}
			],
			"name": "cancelTransferRequest",
			"outputs": [],
			"stateMutability": "nonpayable",
			"type": "function"
		},
		{
			"inputs": [
				{
					"internalType": "string",
					"name": "ticker",
					"type": "string"
				},
				{
					"internalType": "address payable",
					"name": "receiver",
					"type": "address"
				},
				{
					"internalType": "uint256",
					"name": "amount",
					"type": "uint256"
				}
			],
			"name": "createTransferRequest",
			"outputs": [],
			"stateMutability": "nonpayable",
			"type": "function"
		},
		{
			"inputs": [
				{
					"internalType": "string",
					"name": "ticker",
					"type": "string"
				},
				{
					"internalType": "uint256",
					"name": "amount",
					"type": "uint256"
				}
			],
			"name": "deposit",
			"outputs": [],
			"stateMutability": "payable",
			"type": "function"
		},
		{
			"inputs": [],
			"name": "getApprovalLimit",
			"outputs": [
				{
					"internalType": "uint256",
					"name": "",
					"type": "uint256"
				}
			],
			"stateMutability": "view",
			"type": "function"
		},
		{
			"inputs": [
				{
					"internalType": "uint256",
					"name": "id",
					"type": "uint256"
				}
			],
			"name": "getApprovals",
			"outputs": [
				{
					"internalType": "bool",
					"name": "",
					"type": "bool"
				}
			],
			"stateMutability": "view",
			"type": "function"
		},
		{
			"inputs": [
				{
					"internalType": "string",
					"name": "ticker",
					"type": "string"
				}
			],
			"name": "getBalance",
			"outputs": [
				{
					"internalType": "uint256",
					"name": "",
					"type": "uint256"
				}
			],
			"stateMutability": "view",
			"type": "function"
		},
		{
			"inputs": [],
			"name": "getContractBalance",
			"outputs": [
				{
					"internalType": "uint256",
					"name": "",
					"type": "uint256"
				}
			],
			"stateMutability": "view",
			"type": "function"
		},
		{
			"inputs": [],
			"name": "getTokenList",
			"outputs": [
				{
					"internalType": "string[]",
					"name": "",
					"type": "string[]"
				}
			],
			"stateMutability": "view",
			"type": "function"
		},
		{
			"inputs": [],
			"name": "getTransferRequests",
			"outputs": [
				{
					"components": [
						{
							"internalType": "string",
							"name": "ticker",
							"type": "string"
						},
						{
							"internalType": "address",
							"name": "sender",
							"type": "address"
						},
						{
							"internalType": "address payable",
							"name": "receiver",
							"type": "address"
						},
						{
							"internalType": "uint256",
							"name": "amount",
							"type": "uint256"
						},
						{
							"internalType": "uint256",
							"name": "id",
							"type": "uint256"
						},
						{
							"internalType": "uint256",
							"name": "approvals",
							"type": "uint256"
						},
						{
							"internalType": "uint256",
							"name": "timeOfTransaction",
							"type": "uint256"
						},
						{
							"internalType": "address[]",
							"name": "approvers",
							"type": "address[]"
						}
					],
					"internalType": "struct MultiSigTA.Transfer[]",
					"name": "",
					"type": "tuple[]"
				}
			],
			"stateMutability": "view",
			"type": "function"
		},
		{
			"inputs": [],
			"name": "getWalletOwners",
			"outputs": [
				{
					"internalType": "address[]",
					"name": "",
					"type": "address[]"
				}
			],
			"stateMutability": "view",
			"type": "function"
		},
		{
			"inputs": [
				{
					"internalType": "string",
					"name": "ticker",
					"type": "string"
				},
				{
					"internalType": "uint256",
					"name": "_amount",
					"type": "uint256"
				}
			],
			"name": "initiateWithdrawal",
			"outputs": [],
			"stateMutability": "nonpayable",
			"type": "function"
		},
		{
			"inputs": [
				{
					"internalType": "address",
					"name": "owner",
					"type": "address"
				},
				{
					"internalType": "address",
					"name": "walletAddress",
					"type": "address"
				},
				{
					"internalType": "address",
					"name": "_address",
					"type": "address"
				}
			],
			"name": "removeWalletOwner",
			"outputs": [],
			"stateMutability": "nonpayable",
			"type": "function"
		},
		{
			"inputs": [],
			"name": "threshold",
			"outputs": [
				{
					"internalType": "uint256",
					"name": "",
					"type": "uint256"
				}
			],
			"stateMutability": "view",
			"type": "function"
		},
		{
			"inputs": [
				{
					"internalType": "address",
					"name": "",
					"type": "address"
				}
			],
			"name": "tickerToWithdraw",
			"outputs": [
				{
					"internalType": "string",
					"name": "",
					"type": "string"
				}
			],
			"stateMutability": "view",
			"type": "function"
		},
		{
			"inputs": [],
			"name": "withdraw",
			"outputs": [],
			"stateMutability": "nonpayable",
			"type": "function"
		},
		{
			"inputs": [
				{
					"internalType": "address",
					"name": "",
					"type": "address"
				}
			],
			"name": "withdrawalInProcess",
			"outputs": [
				{
					"internalType": "bool",
					"name": "",
					"type": "bool"
				}
			],
			"stateMutability": "view",
			"type": "function"
		}
	]
}